Archive member included to satisfy reference by file (symbol)

e:/program files (x86)/gnu tools arm embedded/9 2019-q4-major/bin/../lib/gcc/arm-none-eabi/9.2.1/../../../../arm-none-eabi/lib/thumb/v7e-m+fp/hard\libc.a(lib_a-exit.o)
                              e:/program files (x86)/gnu tools arm embedded/9 2019-q4-major/bin/../lib/gcc/arm-none-eabi/9.2.1/../../../../arm-none-eabi/lib/thumb/v7e-m+fp/hard/crt0.o (exit)
e:/program files (x86)/gnu tools arm embedded/9 2019-q4-major/bin/../lib/gcc/arm-none-eabi/9.2.1/../../../../arm-none-eabi/lib/thumb/v7e-m+fp/hard\libc.a(lib_a-impure.o)
                              e:/program files (x86)/gnu tools arm embedded/9 2019-q4-major/bin/../lib/gcc/arm-none-eabi/9.2.1/../../../../arm-none-eabi/lib/thumb/v7e-m+fp/hard\libc.a(lib_a-exit.o) (_global_impure_ptr)
e:/program files (x86)/gnu tools arm embedded/9 2019-q4-major/bin/../lib/gcc/arm-none-eabi/9.2.1/../../../../arm-none-eabi/lib/thumb/v7e-m+fp/hard\libc.a(lib_a-init.o)
                              e:/program files (x86)/gnu tools arm embedded/9 2019-q4-major/bin/../lib/gcc/arm-none-eabi/9.2.1/../../../../arm-none-eabi/lib/thumb/v7e-m+fp/hard/crt0.o (__libc_init_array)
e:/program files (x86)/gnu tools arm embedded/9 2019-q4-major/bin/../lib/gcc/arm-none-eabi/9.2.1/../../../../arm-none-eabi/lib/thumb/v7e-m+fp/hard\libc.a(lib_a-memset.o)
                              e:/program files (x86)/gnu tools arm embedded/9 2019-q4-major/bin/../lib/gcc/arm-none-eabi/9.2.1/../../../../arm-none-eabi/lib/thumb/v7e-m+fp/hard/crt0.o (memset)
e:/program files (x86)/gnu tools arm embedded/9 2019-q4-major/bin/../lib/gcc/arm-none-eabi/9.2.1/../../../../arm-none-eabi/lib/thumb/v7e-m+fp/hard\libc.a(lib_a-__call_atexit.o)
                              e:/program files (x86)/gnu tools arm embedded/9 2019-q4-major/bin/../lib/gcc/arm-none-eabi/9.2.1/../../../../arm-none-eabi/lib/thumb/v7e-m+fp/hard\libc.a(lib_a-exit.o) (__call_exitprocs)
e:/program files (x86)/gnu tools arm embedded/9 2019-q4-major/bin/../lib/gcc/arm-none-eabi/9.2.1/../../../../arm-none-eabi/lib/thumb/v7e-m+fp/hard\libc.a(lib_a-atexit.o)
                              e:/program files (x86)/gnu tools arm embedded/9 2019-q4-major/bin/../lib/gcc/arm-none-eabi/9.2.1/../../../../arm-none-eabi/lib/thumb/v7e-m+fp/hard\libc.a(lib_a-__call_atexit.o) (atexit)
e:/program files (x86)/gnu tools arm embedded/9 2019-q4-major/bin/../lib/gcc/arm-none-eabi/9.2.1/../../../../arm-none-eabi/lib/thumb/v7e-m+fp/hard\libc.a(lib_a-fini.o)
                              e:/program files (x86)/gnu tools arm embedded/9 2019-q4-major/bin/../lib/gcc/arm-none-eabi/9.2.1/../../../../arm-none-eabi/lib/thumb/v7e-m+fp/hard\libc.a(lib_a-__call_atexit.o) (__libc_fini_array)
e:/program files (x86)/gnu tools arm embedded/9 2019-q4-major/bin/../lib/gcc/arm-none-eabi/9.2.1/../../../../arm-none-eabi/lib/thumb/v7e-m+fp/hard\libc.a(lib_a-lock.o)
                              e:/program files (x86)/gnu tools arm embedded/9 2019-q4-major/bin/../lib/gcc/arm-none-eabi/9.2.1/../../../../arm-none-eabi/lib/thumb/v7e-m+fp/hard\libc.a(lib_a-__call_atexit.o) (__retarget_lock_acquire_recursive)
e:/program files (x86)/gnu tools arm embedded/9 2019-q4-major/bin/../lib/gcc/arm-none-eabi/9.2.1/../../../../arm-none-eabi/lib/thumb/v7e-m+fp/hard\libc.a(lib_a-__atexit.o)
                              e:/program files (x86)/gnu tools arm embedded/9 2019-q4-major/bin/../lib/gcc/arm-none-eabi/9.2.1/../../../../arm-none-eabi/lib/thumb/v7e-m+fp/hard\libc.a(lib_a-atexit.o) (__register_exitproc)
e:/program files (x86)/gnu tools arm embedded/9 2019-q4-major/bin/../lib/gcc/arm-none-eabi/9.2.1/../../../../arm-none-eabi/lib/thumb/v7e-m+fp/hard\libnosys.a(_exit.o)
                              e:/program files (x86)/gnu tools arm embedded/9 2019-q4-major/bin/../lib/gcc/arm-none-eabi/9.2.1/../../../../arm-none-eabi/lib/thumb/v7e-m+fp/hard\libc.a(lib_a-exit.o) (_exit)
e:/program files (x86)/gnu tools arm embedded/9 2019-q4-major/bin/../lib/gcc/arm-none-eabi/9.2.1/thumb/v7e-m+fp/hard\libgcc.a(_aeabi_uldivmod.o)
                              CMakeFiles/build.elf.dir/micro/target/STM32F4xx_HAL_Driver/Src/stm32f4xx_hal_rcc.c.obj (__aeabi_uldivmod)
e:/program files (x86)/gnu tools arm embedded/9 2019-q4-major/bin/../lib/gcc/arm-none-eabi/9.2.1/thumb/v7e-m+fp/hard\libgcc.a(_udivmoddi4.o)
                              e:/program files (x86)/gnu tools arm embedded/9 2019-q4-major/bin/../lib/gcc/arm-none-eabi/9.2.1/thumb/v7e-m+fp/hard\libgcc.a(_aeabi_uldivmod.o) (__udivmoddi4)
e:/program files (x86)/gnu tools arm embedded/9 2019-q4-major/bin/../lib/gcc/arm-none-eabi/9.2.1/thumb/v7e-m+fp/hard\libgcc.a(_dvmd_tls.o)
                              e:/program files (x86)/gnu tools arm embedded/9 2019-q4-major/bin/../lib/gcc/arm-none-eabi/9.2.1/thumb/v7e-m+fp/hard\libgcc.a(_aeabi_uldivmod.o) (__aeabi_ldiv0)

Allocating common symbols
Common symbol       size              file

__lock___atexit_recursive_mutex
                    0x1               e:/program files (x86)/gnu tools arm embedded/9 2019-q4-major/bin/../lib/gcc/arm-none-eabi/9.2.1/../../../../arm-none-eabi/lib/thumb/v7e-m+fp/hard\libc.a(lib_a-lock.o)
__lock___arc4random_mutex
                    0x1               e:/program files (x86)/gnu tools arm embedded/9 2019-q4-major/bin/../lib/gcc/arm-none-eabi/9.2.1/../../../../arm-none-eabi/lib/thumb/v7e-m+fp/hard\libc.a(lib_a-lock.o)
hi2c1               0x54              CMakeFiles/build.elf.dir/src/main.c.obj
uwTick              0x4               CMakeFiles/build.elf.dir/micro/target/STM32F4xx_HAL_Driver/Src/stm32f4xx_hal.c.obj
pFlash              0x20              CMakeFiles/build.elf.dir/micro/target/STM32F4xx_HAL_Driver/Src/stm32f4xx_hal_flash.c.obj
__lock___env_recursive_mutex
                    0x1               e:/program files (x86)/gnu tools arm embedded/9 2019-q4-major/bin/../lib/gcc/arm-none-eabi/9.2.1/../../../../arm-none-eabi/lib/thumb/v7e-m+fp/hard\libc.a(lib_a-lock.o)
__lock___sinit_recursive_mutex
                    0x1               e:/program files (x86)/gnu tools arm embedded/9 2019-q4-major/bin/../lib/gcc/arm-none-eabi/9.2.1/../../../../arm-none-eabi/lib/thumb/v7e-m+fp/hard\libc.a(lib_a-lock.o)
__lock___malloc_recursive_mutex
                    0x1               e:/program files (x86)/gnu tools arm embedded/9 2019-q4-major/bin/../lib/gcc/arm-none-eabi/9.2.1/../../../../arm-none-eabi/lib/thumb/v7e-m+fp/hard\libc.a(lib_a-lock.o)
hspi1               0x58              CMakeFiles/build.elf.dir/src/main.c.obj
__lock___at_quick_exit_mutex
                    0x1               e:/program files (x86)/gnu tools arm embedded/9 2019-q4-major/bin/../lib/gcc/arm-none-eabi/9.2.1/../../../../arm-none-eabi/lib/thumb/v7e-m+fp/hard\libc.a(lib_a-lock.o)
__lock___dd_hash_mutex
                    0x1               e:/program files (x86)/gnu tools arm embedded/9 2019-q4-major/bin/../lib/gcc/arm-none-eabi/9.2.1/../../../../arm-none-eabi/lib/thumb/v7e-m+fp/hard\libc.a(lib_a-lock.o)
__lock___tz_mutex   0x1               e:/program files (x86)/gnu tools arm embedded/9 2019-q4-major/bin/../lib/gcc/arm-none-eabi/9.2.1/../../../../arm-none-eabi/lib/thumb/v7e-m+fp/hard\libc.a(lib_a-lock.o)
hi2s3               0x48              CMakeFiles/build.elf.dir/src/main.c.obj
__lock___sfp_recursive_mutex
                    0x1               e:/program files (x86)/gnu tools arm embedded/9 2019-q4-major/bin/../lib/gcc/arm-none-eabi/9.2.1/../../../../arm-none-eabi/lib/thumb/v7e-m+fp/hard\libc.a(lib_a-lock.o)

Discarded input sections

 .text          0x00000000        0x0 e:/program files (x86)/gnu tools arm embedded/9 2019-q4-major/bin/../lib/gcc/arm-none-eabi/9.2.1/thumb/v7e-m+fp/hard/crti.o
 .data          0x00000000        0x0 e:/program files (x86)/gnu tools arm embedded/9 2019-q4-major/bin/../lib/gcc/arm-none-eabi/9.2.1/thumb/v7e-m+fp/hard/crti.o
 .bss           0x00000000        0x0 e:/program files (x86)/gnu tools arm embedded/9 2019-q4-major/bin/../lib/gcc/arm-none-eabi/9.2.1/thumb/v7e-m+fp/hard/crti.o
 .data          0x00000000        0x4 e:/program files (x86)/gnu tools arm embedded/9 2019-q4-major/bin/../lib/gcc/arm-none-eabi/9.2.1/thumb/v7e-m+fp/hard/crtbegin.o
 .text          0x00000000       0x74 e:/program files (x86)/gnu tools arm embedded/9 2019-q4-major/bin/../lib/gcc/arm-none-eabi/9.2.1/../../../../arm-none-eabi/lib/thumb/v7e-m+fp/hard/crt0.o
 .data          0x00000000        0x0 e:/program files (x86)/gnu tools arm embedded/9 2019-q4-major/bin/../lib/gcc/arm-none-eabi/9.2.1/../../../../arm-none-eabi/lib/thumb/v7e-m+fp/hard/crt0.o
 .bss           0x00000000        0x0 e:/program files (x86)/gnu tools arm embedded/9 2019-q4-major/bin/../lib/gcc/arm-none-eabi/9.2.1/../../../../arm-none-eabi/lib/thumb/v7e-m+fp/hard/crt0.o
 .ARM.extab     0x00000000        0x0 e:/program files (x86)/gnu tools arm embedded/9 2019-q4-major/bin/../lib/gcc/arm-none-eabi/9.2.1/../../../../arm-none-eabi/lib/thumb/v7e-m+fp/hard/crt0.o
 .ARM.exidx     0x00000000        0x8 e:/program files (x86)/gnu tools arm embedded/9 2019-q4-major/bin/../lib/gcc/arm-none-eabi/9.2.1/../../../../arm-none-eabi/lib/thumb/v7e-m+fp/hard/crt0.o
 .ARM.attributes
                0x00000000       0x1c e:/program files (x86)/gnu tools arm embedded/9 2019-q4-major/bin/../lib/gcc/arm-none-eabi/9.2.1/../../../../arm-none-eabi/lib/thumb/v7e-m+fp/hard/crt0.o
 .text          0x00000000        0x0 e:/program files (x86)/gnu tools arm embedded/9 2019-q4-major/bin/../lib/gcc/arm-none-eabi/9.2.1/../../../../arm-none-eabi/lib/thumb/v7e-m+fp/hard\libc.a(lib_a-exit.o)
 .data          0x00000000        0x0 e:/program files (x86)/gnu tools arm embedded/9 2019-q4-major/bin/../lib/gcc/arm-none-eabi/9.2.1/../../../../arm-none-eabi/lib/thumb/v7e-m+fp/hard\libc.a(lib_a-exit.o)
 .bss           0x00000000        0x0 e:/program files (x86)/gnu tools arm embedded/9 2019-q4-major/bin/../lib/gcc/arm-none-eabi/9.2.1/../../../../arm-none-eabi/lib/thumb/v7e-m+fp/hard\libc.a(lib_a-exit.o)
 .text.exit     0x00000000       0x20 e:/program files (x86)/gnu tools arm embedded/9 2019-q4-major/bin/../lib/gcc/arm-none-eabi/9.2.1/../../../../arm-none-eabi/lib/thumb/v7e-m+fp/hard\libc.a(lib_a-exit.o)
 .debug_frame   0x00000000       0x28 e:/program files (x86)/gnu tools arm embedded/9 2019-q4-major/bin/../lib/gcc/arm-none-eabi/9.2.1/../../../../arm-none-eabi/lib/thumb/v7e-m+fp/hard\libc.a(lib_a-exit.o)
 .ARM.attributes
                0x00000000       0x34 e:/program files (x86)/gnu tools arm embedded/9 2019-q4-major/bin/../lib/gcc/arm-none-eabi/9.2.1/../../../../arm-none-eabi/lib/thumb/v7e-m+fp/hard\libc.a(lib_a-exit.o)
Memory Configuration

Name             Origin             Length             Attributes
RAM              0x20000000         0x00020000         xrw
CCMRAM           0x10000000         0x00010000         rw
FLASH            0x08000000         0x00100000         xr
*default*        0x00000000         0xffffffff

Linker script and memory map

LOAD e:/program files (x86)/gnu tools arm embedded/9 2019-q4-major/bin/../lib/gcc/arm-none-eabi/9.2.1/thumb/v7e-m+fp/hard/crti.o
LOAD e:/program files (x86)/gnu tools arm embedded/9 2019-q4-major/bin/../lib/gcc/arm-none-eabi/9.2.1/thumb/v7e-m+fp/hard/crtbegin.o
LOAD e:/program files (x86)/gnu tools arm embedded/9 2019-q4-major/bin/../lib/gcc/arm-none-eabi/9.2.1/../../../../arm-none-eabi/lib/thumb/v7e-m+fp/hard/crt0.o
LOAD e:/program files (x86)/gnu tools arm embedded/9 2019-q4-major/bin/../lib/gcc/arm-none-eabi/9.2.1/../../../../arm-none-eabi/lib/thumb/v7e-m+fp/hard\libc.a
LOAD e:/program files (x86)/gnu tools arm embedded/9 2019-q4-major/bin/../lib/gcc/arm-none-eabi/9.2.1/../../../../arm-none-eabi/lib/thumb/v7e-m+fp/hard\libm.a
LOAD e:/program files (x86)/gnu tools arm embedded/9 2019-q4-major/bin/../lib/gcc/arm-none-eabi/9.2.1/../../../../arm-none-eabi/lib/thumb/v7e-m+fp/hard\libnosys.a
LOAD CMakeFiles/build.elf.dir/micro/target/STM32F4xx_HAL_Driver/Src/stm32f4xx_hal.c.obj
LOAD CMakeFiles/build.elf.dir/micro/target/STM32F4xx_HAL_Driver/Src/stm32f4xx_hal_adc.c.obj
LOAD CMakeFiles/build.elf.dir/micro/target/STM32F4xx_HAL_Driver/Src/stm32f4xx_hal_adc_ex.c.obj
LOAD CMakeFiles/build.elf.dir/micro/target/STM32F4xx_HAL_Driver/Src/stm32f4xx_hal_can.c.obj
LOAD CMakeFiles/build.elf.dir/micro/target/STM32F4xx_HAL_Driver/Src/stm32f4xx_hal_cec.c.obj
LOAD CMakeFiles/build.elf.dir/micro/target/STM32F4xx_HAL_Driver/Src/stm32f4xx_hal_cortex.c.obj
LOAD CMakeFiles/build.elf.dir/micro/target/STM32F4xx_HAL_Driver/Src/stm32f4xx_hal_crc.c.obj
LOAD CMakeFiles/build.elf.dir/micro/target/STM32F4xx_HAL_Driver/Src/stm32f4xx_hal_cryp.c.obj
LOAD CMakeFiles/build.elf.dir/micro/target/STM32F4xx_HAL_Driver/Src/stm32f4xx_hal_cryp_ex.c.obj
LOAD CMakeFiles/build.elf.dir/micro/target/STM32F4xx_HAL_Driver/Src/stm32f4xx_hal_dac.c.obj
LOAD CMakeFiles/build.elf.dir/micro/target/STM32F4xx_HAL_Driver/Src/stm32f4xx_hal_dac_ex.c.obj
LOAD CMakeFiles/build.elf.dir/micro/target/STM32F4xx_HAL_Driver/Src/stm32f4xx_hal_dcmi.c.obj
LOAD CMakeFiles/build.elf.dir/micro/target/STM32F4xx_HAL_Driver/Src/stm32f4xx_hal_dcmi_ex.c.obj
LOAD CMakeFiles/build.elf.dir/micro/target/STM32F4xx_HAL_Driver/Src/stm32f4xx_hal_dfsdm.c.obj
LOAD CMakeFiles/build.elf.dir/micro/target/STM32F4xx_HAL_Driver/Src/stm32f4xx_hal_dma.c.obj
LOAD CMakeFiles/build.elf.dir/micro/target/STM32F4xx_HAL_Driver/Src/stm32f4xx_hal_dma2d.c.obj
LOAD CMakeFiles/build.elf.dir/micro/target/STM32F4xx_HAL_Driver/Src/stm32f4xx_hal_dma_ex.c.obj
LOAD CMakeFiles/build.elf.dir/micro/target/STM32F4xx_HAL_Driver/Src/stm32f4xx_hal_dsi.c.obj
LOAD CMakeFiles/build.elf.dir/micro/target/STM32F4xx_HAL_Driver/Src/stm32f4xx_hal_eth.c.obj
LOAD CMakeFiles/build.elf.dir/micro/target/STM32F4xx_HAL_Driver/Src/stm32f4xx_hal_exti.c.obj
LOAD CMakeFiles/build.elf.dir/micro/target/STM32F4xx_HAL_Driver/Src/stm32f4xx_hal_flash.c.obj
LOAD CMakeFiles/build.elf.dir/micro/target/STM32F4xx_HAL_Driver/Src/stm32f4xx_hal_flash_ex.c.obj
LOAD CMakeFiles/build.elf.dir/micro/target/STM32F4xx_HAL_Driver/Src/stm32f4xx_hal_flash_ramfunc.c.obj
LOAD CMakeFiles/build.elf.dir/micro/target/STM32F4xx_HAL_Driver/Src/stm32f4xx_hal_fmpi2c.c.obj
LOAD CMakeFiles/build.elf.dir/micro/target/STM32F4xx_HAL_Driver/Src/stm32f4xx_hal_fmpi2c_ex.c.obj
LOAD CMakeFiles/build.elf.dir/micro/target/STM32F4xx_HAL_Driver/Src/stm32f4xx_hal_gpio.c.obj
LOAD CMakeFiles/build.elf.dir/micro/target/STM32F4xx_HAL_Driver/Src/stm32f4xx_hal_hash.c.obj
LOAD CMakeFiles/build.elf.dir/micro/target/STM32F4xx_HAL_Driver/Src/stm32f4xx_hal_hash_ex.c.obj
LOAD CMakeFiles/build.elf.dir/micro/target/STM32F4xx_HAL_Driver/Src/stm32f4xx_hal_hcd.c.obj
LOAD CMakeFiles/build.elf.dir/micro/target/STM32F4xx_HAL_Driver/Src/stm32f4xx_hal_i2c.c.obj
LOAD CMakeFiles/build.elf.dir/micro/target/STM32F4xx_HAL_Driver/Src/stm32f4xx_hal_i2c_ex.c.obj
LOAD CMakeFiles/build.elf.dir/micro/target/STM32F4xx_HAL_Driver/Src/stm32f4xx_hal_i2s.c.obj
LOAD CMakeFiles/build.elf.dir/micro/target/STM32F4xx_HAL_Driver/Src/stm32f4xx_hal_i2s_ex.c.obj
LOAD CMakeFiles/build.elf.dir/micro/target/STM32F4xx_HAL_Driver/Src/stm32f4xx_hal_irda.c.obj
LOAD CMakeFiles/build.elf.dir/micro/target/STM32F4xx_HAL_Driver/Src/stm32f4xx_hal_iwdg.c.obj
LOAD CMakeFiles/build.elf.dir/micro/target/STM32F4xx_HAL_Driver/Src/stm32f4xx_hal_lptim.c.obj
LOAD CMakeFiles/build.elf.dir/micro/target/STM32F4xx_HAL_Driver/Src/stm32f4xx_hal_ltdc.c.obj
LOAD CMakeFiles/build.elf.dir/micro/target/STM32F4xx_HAL_Driver/Src/stm32f4xx_hal_ltdc_ex.c.obj
LOAD CMakeFiles/build.elf.dir/micro/target/STM32F4xx_HAL_Driver/Src/stm32f4xx_hal_mmc.c.obj
LOAD CMakeFiles/build.elf.dir/micro/target/STM32F4xx_HAL_Driver/Src/stm32f4xx_hal_nand.c.obj
LOAD CMakeFiles/build.elf.dir/micro/target/STM32F4xx_HAL_Driver/Src/stm32f4xx_hal_nor.c.obj
LOAD CMakeFiles/build.elf.dir/micro/target/STM32F4xx_HAL_Driver/Src/stm32f4xx_hal_pccard.c.obj
LOAD CMakeFiles/build.elf.dir/micro/target/STM32F4xx_HAL_Driver/Src/stm32f4xx_hal_pcd.c.obj
LOAD CMakeFiles/build.elf.dir/micro/target/STM32F4xx_HAL_Driver/Src/stm32f4xx_hal_pcd_ex.c.obj
LOAD CMakeFiles/build.elf.dir/micro/target/STM32F4xx_HAL_Driver/Src/stm32f4xx_hal_pwr.c.obj
LOAD CMakeFiles/build.elf.dir/micro/target/STM32F4xx_HAL_Driver/Src/stm32f4xx_hal_pwr_ex.c.obj
LOAD CMakeFiles/build.elf.dir/micro/target/STM32F4xx_HAL_Driver/Src/stm32f4xx_hal_qspi.c.obj
LOAD CMakeFiles/build.elf.dir/micro/target/STM32F4xx_HAL_Driver/Src/stm32f4xx_hal_rcc.c.obj
LOAD CMakeFiles/build.elf.dir/micro/target/STM32F4xx_HAL_Driver/Src/stm32f4xx_hal_rcc_ex.c.obj
LOAD CMakeFiles/build.elf.dir/micro/target/STM32F4xx_HAL_Driver/Src/stm32f4xx_hal_rng.c.obj
LOAD CMakeFiles/build.elf.dir/micro/target/STM32F4xx_HAL_Driver/Src/stm32f4xx_hal_rtc.c.obj
LOAD CMakeFiles/build.elf.dir/micro/target/STM32F4xx_HAL_Driver/Src/stm32f4xx_hal_rtc_ex.c.obj
LOAD CMakeFiles/build.elf.dir/micro/target/STM32F4xx_HAL_Driver/Src/stm32f4xx_hal_sai.c.obj
LOAD CMakeFiles/build.elf.dir/micro/target/STM32F4xx_HAL_Driver/Src/stm32f4xx_hal_sai_ex.c.obj
LOAD CMakeFiles/build.elf.dir/micro/target/STM32F4xx_HAL_Driver/Src/stm32f4xx_hal_sd.c.obj
LOAD CMakeFiles/build.elf.dir/micro/target/STM32F4xx_HAL_Driver/Src/stm32f4xx_hal_sdram.c.obj
LOAD CMakeFiles/build.elf.dir/micro/target/STM32F4xx_HAL_Driver/Src/stm32f4xx_hal_smartcard.c.obj
LOAD CMakeFiles/build.elf.dir/micro/target/STM32F4xx_HAL_Driver/Src/stm32f4xx_hal_smbus.c.obj
LOAD CMakeFiles/build.elf.dir/micro/target/STM32F4xx_HAL_Driver/Src/stm32f4xx_hal_spdifrx.c.obj
LOAD CMakeFiles/build.elf.dir/micro/target/STM32F4xx_HAL_Driver/Src/stm32f4xx_hal_spi.c.obj
LOAD CMakeFiles/build.elf.dir/micro/target/STM32F4xx_HAL_Driver/Src/stm32f4xx_hal_sram.c.obj
LOAD CMakeFiles/build.elf.dir/micro/target/STM32F4xx_HAL_Driver/Src/stm32f4xx_hal_tim.c.obj
LOAD CMakeFiles/build.elf.dir/micro/target/STM32F4xx_HAL_Driver/Src/stm32f4xx_hal_tim_ex.c.obj
LOAD CMakeFiles/build.elf.dir/micro/target/STM32F4xx_HAL_Driver/Src/stm32f4xx_hal_uart.c.obj
LOAD CMakeFiles/build.elf.dir/micro/target/STM32F4xx_HAL_Driver/Src/stm32f4xx_hal_usart.c.obj
LOAD CMakeFiles/build.elf.dir/micro/target/STM32F4xx_HAL_Driver/Src/stm32f4xx_hal_wwdg.c.obj
LOAD CMakeFiles/build.elf.dir/micro/target/STM32F4xx_HAL_Driver/Src/stm32f4xx_ll_adc.c.obj
LOAD CMakeFiles/build.elf.dir/micro/target/STM32F4xx_HAL_Driver/Src/stm32f4xx_ll_crc.c.obj
LOAD CMakeFiles/build.elf.dir/micro/target/STM32F4xx_HAL_Driver/Src/stm32f4xx_ll_dac.c.obj
LOAD CMakeFiles/build.elf.dir/micro/target/STM32F4xx_HAL_Driver/Src/stm32f4xx_ll_dma.c.obj
LOAD CMakeFiles/build.elf.dir/micro/target/STM32F4xx_HAL_Driver/Src/stm32f4xx_ll_dma2d.c.obj
LOAD CMakeFiles/build.elf.dir/micro/target/STM32F4xx_HAL_Driver/Src/stm32f4xx_ll_exti.c.obj
LOAD CMakeFiles/build.elf.dir/micro/target/STM32F4xx_HAL_Driver/Src/stm32f4xx_ll_fmc.c.obj
LOAD CMakeFiles/build.elf.dir/micro/target/STM32F4xx_HAL_Driver/Src/stm32f4xx_ll_fsmc.c.obj
LOAD CMakeFiles/build.elf.dir/micro/target/STM32F4xx_HAL_Driver/Src/stm32f4xx_ll_gpio.c.obj
LOAD CMakeFiles/build.elf.dir/micro/target/STM32F4xx_HAL_Driver/Src/stm32f4xx_ll_i2c.c.obj
LOAD CMakeFiles/build.elf.dir/micro/target/STM32F4xx_HAL_Driver/Src/stm32f4xx_ll_lptim.c.obj
LOAD CMakeFiles/build.elf.dir/micro/target/STM32F4xx_HAL_Driver/Src/stm32f4xx_ll_pwr.c.obj
LOAD CMakeFiles/build.elf.dir/micro/target/STM32F4xx_HAL_Driver/Src/stm32f4xx_ll_rcc.c.obj
LOAD CMakeFiles/build.elf.dir/micro/target/STM32F4xx_HAL_Driver/Src/stm32f4xx_ll_rng.c.obj
LOAD CMakeFiles/build.elf.dir/micro/target/STM32F4xx_HAL_Driver/Src/stm32f4xx_ll_rtc.c.obj
LOAD CMakeFiles/build.elf.dir/micro/target/STM32F4xx_HAL_Driver/Src/stm32f4xx_ll_sdmmc.c.obj
LOAD CMakeFiles/build.elf.dir/micro/target/STM32F4xx_HAL_Driver/Src/stm32f4xx_ll_spi.c.obj
LOAD CMakeFiles/build.elf.dir/micro/target/STM32F4xx_HAL_Driver/Src/stm32f4xx_ll_tim.c.obj
LOAD CMakeFiles/build.elf.dir/micro/target/STM32F4xx_HAL_Driver/Src/stm32f4xx_ll_usart.c.obj
LOAD CMakeFiles/build.elf.dir/micro/target/STM32F4xx_HAL_Driver/Src/stm32f4xx_ll_usb.c.obj
LOAD CMakeFiles/build.elf.dir/micro/target/STM32F4xx_HAL_Driver/Src/stm32f4xx_ll_utils.c.obj
LOAD CMakeFiles/build.elf.dir/src/main.c.obj
LOAD CMakeFiles/build.elf.dir/src/startup_stm32f407xx.s.obj
LOAD CMakeFiles/build.elf.dir/src/stm32f4xx_hal_msp.c.obj
LOAD CMakeFiles/build.elf.dir/src/stm32f4xx_it.c.obj
LOAD CMakeFiles/build.elf.dir/src/system_stm32f4xx.c.obj
START GROUP
LOAD e:/program files (x86)/gnu tools arm embedded/9 2019-q4-major/bin/../lib/gcc/arm-none-eabi/9.2.1/thumb/v7e-m+fp/hard\libgcc.a
LOAD e:/program files (x86)/gnu tools arm embedded/9 2019-q4-major/bin/../lib/gcc/arm-none-eabi/9.2.1/../../../../arm-none-eabi/lib/thumb/v7e-m+fp/hard\libg.a
LOAD e:/program files (x86)/gnu tools arm embedded/9 2019-q4-major/bin/../lib/gcc/arm-none-eabi/9.2.1/../../../../arm-none-eabi/lib/thumb/v7e-m+fp/hard\libc.a
END GROUP
START GROUP
LOAD e:/program files (x86)/gnu tools arm embedded/9 2019-q4-major/bin/../lib/gcc/arm-none-eabi/9.2.1/thumb/v7e-m+fp/hard\libgcc.a
LOAD e:/program files (x86)/gnu tools arm embedded/9 2019-q4-major/bin/../lib/gcc/arm-none-eabi/9.2.1/../../../../arm-none-eabi/lib/thumb/v7e-m+fp/hard\libc.a
LOAD e:/program files (x86)/gnu tools arm embedded/9 2019-q4-major/bin/../lib/gcc/arm-none-eabi/9.2.1/../../../../arm-none-eabi/lib/thumb/v7e-m+fp/hard\libnosys.a
END GROUP
LOAD e:/program files (x86)/gnu tools arm embedded/9 2019-q4-major/bin/../lib/gcc/arm-none-eabi/9.2.1/thumb/v7e-m+fp/hard/crtend.o
LOAD e:/program files (x86)/gnu tools arm embedded/9 2019-q4-major/bin/../lib/gcc/arm-none-eabi/9.2.1/thumb/v7e-m+fp/hard/crtn.o
                0x20020000                _estack = 0x20020000
                0x00000200                _Min_Heap_Size = 0x200
                0x00000400                _Min_Stack_Size = 0x400

.isr_vector     0x08000000      0x188
                0x08000000                . = ALIGN (0x4)
 *(.isr_vector)
 .isr_vector    0x08000000      0x188 CMakeFiles/build.elf.dir/src/startup_stm32f407xx.s.obj
                0x08000000                g_pfnVectors
                0x08000188                . = ALIGN (0x4)

.text           0x08000188     0x1dc0
                0x08000188                . = ALIGN (0x4)
 *(.text)
 .text          0x08000188       0x40 e:/program files (x86)/gnu tools arm embedded/9 2019-q4-major/bin/../lib/gcc/arm-none-eabi/9.2.1/thumb/v7e-m+fp/hard/crtbegin.o
 .text          0x080001c8       0x30 e:/program files (x86)/gnu tools arm embedded/9 2019-q4-major/bin/../lib/gcc/arm-none-eabi/9.2.1/thumb/v7e-m+fp/hard\libgcc.a(_aeabi_uldivmod.o)
                0x080001c8                __aeabi_uldivmod
 .text          0x080001f8      0x2c4 e:/program files (x86)/gnu tools arm embedded/9 2019-q4-major/bin/../lib/gcc/arm-none-eabi/9.2.1/thumb/v7e-m+fp/hard\libgcc.a(_udivmoddi4.o)
                0x080001f8                __udivmoddi4
 .text          0x080004bc        0x4 e:/program files (x86)/gnu tools arm embedded/9 2019-q4-major/bin/../lib/gcc/arm-none-eabi/9.2.1/thumb/v7e-m+fp/hard\libgcc.a(_dvmd_tls.o)
                0x080004bc                __aeabi_idiv0
                0x080004bc                __aeabi_ldiv0
 *(.text*)
 .text.__libc_init_array
                0x080004c0       0x48 e:/program files (x86)/gnu tools arm embedded/9 2019-q4-major/bin/../lib/gcc/arm-none-eabi/9.2.1/../../../../arm-none-eabi/lib/thumb/v7e-m+fp/hard\libc.a(lib_a-init.o)
                0x080004c0                __libc_init_array
 .text.memset   0x08000508       0xa0 e:/program files (x86)/gnu tools arm embedded/9 2019-q4-major/bin/../lib/gcc/arm-none-eabi/9.2.1/../../../../arm-none-eabi/lib/thumb/v7e-m+fp/hard\libc.a(lib_a-memset.o)
                0x08000508                memset
 .text.startup.register_fini
                0x080005a8       0x14 e:/program files (x86)/gnu tools arm embedded/9 2019-q4-major/bin/../lib/gcc/arm-none-eabi/9.2.1/../../../../arm-none-eabi/lib/thumb/v7e-m+fp/hard\libc.a(lib_a-__call_atexit.o)
 .text.atexit   0x080005bc        0xc e:/program files (x86)/gnu tools arm embedded/9 2019-q4-major/bin/../lib/gcc/arm-none-eabi/9.2.1/../../../../arm-none-eabi/lib/thumb/v7e-m+fp/hard\libc.a(lib_a-atexit.o)
                0x080005bc                atexit
 .text.__libc_fini_array
                0x080005c8       0x2c e:/program files (x86)/gnu tools arm embedded/9 2019-q4-major/bin/../lib/gcc/arm-none-eabi/9.2.1/../../../../arm-none-eabi/lib/thumb/v7e-m+fp/hard\libc.a(lib_a-fini.o)
                0x080005c8                __libc_fini_array
 .text.__retarget_lock_acquire_recursive
                0x080005f4        0x4 e:/program files (x86)/gnu tools arm embedded/9 2019-q4-major/bin/../lib/gcc/arm-none-eabi/9.2.1/../../../../arm-none-eabi/lib/thumb/v7e-m+fp/hard\libc.a(lib_a-lock.o)
                0x080005f4                __retarget_lock_acquire_recursive
 .text.__retarget_lock_release_recursive
                0x080005f8        0x4 e:/program files (x86)/gnu tools arm embedded/9 2019-q4-major/bin/../lib/gcc/arm-none-eabi/9.2.1/../../../../arm-none-eabi/lib/thumb/v7e-m+fp/hard\libc.a(lib_a-lock.o)
                0x080005f8                __retarget_lock_release_recursive
 .text.__register_exitproc
                0x080005fc       0x8c e:/program files (x86)/gnu tools arm embedded/9 2019-q4-major/bin/../lib/gcc/arm-none-eabi/9.2.1/../../../../arm-none-eabi/lib/thumb/v7e-m+fp/hard\libc.a(lib_a-__atexit.o)
                0x080005fc                __register_exitproc
 .text.HAL_InitTick
                0x08000688       0x4c CMakeFiles/build.elf.dir/micro/target/STM32F4xx_HAL_Driver/Src/stm32f4xx_hal.c.obj
                0x08000688                HAL_InitTick
 .text.HAL_Init
                0x080006d4       0x34 CMakeFiles/build.elf.dir/micro/target/STM32F4xx_HAL_Driver/Src/stm32f4xx_hal.c.obj
                0x080006d4                HAL_Init
 .text.HAL_IncTick
                0x08000708       0x18 CMakeFiles/build.elf.dir/micro/target/STM32F4xx_HAL_Driver/Src/stm32f4xx_hal.c.obj
                0x08000708                HAL_IncTick
 .text.HAL_GetTick
                0x08000720        0xc CMakeFiles/build.elf.dir/micro/target/STM32F4xx_HAL_Driver/Src/stm32f4xx_hal.c.obj
                0x08000720                HAL_GetTick
 .text.HAL_Delay
                0x0800072c       0x28 CMakeFiles/build.elf.dir/micro/target/STM32F4xx_HAL_Driver/Src/stm32f4xx_hal.c.obj
                0x0800072c                HAL_Delay
 .text.HAL_NVIC_SetPriorityGrouping
                0x08000754       0x24 CMakeFiles/build.elf.dir/micro/target/STM32F4xx_HAL_Driver/Src/stm32f4xx_hal_cortex.c.obj
                0x08000754                HAL_NVIC_SetPriorityGrouping
 .text.HAL_NVIC_SetPriority
                0x08000778       0x68 CMakeFiles/build.elf.dir/micro/target/STM32F4xx_HAL_Driver/Src/stm32f4xx_hal_cortex.c.obj
                0x08000778                HAL_NVIC_SetPriority
 .text.HAL_SYSTICK_Config
                0x080007e0       0x2c CMakeFiles/build.elf.dir/micro/target/STM32F4xx_HAL_Driver/Src/stm32f4xx_hal_cortex.c.obj
                0x080007e0                HAL_SYSTICK_Config
 .text.HAL_GPIO_Init
                0x0800080c      0x1cc CMakeFiles/build.elf.dir/micro/target/STM32F4xx_HAL_Driver/Src/stm32f4xx_hal_gpio.c.obj
                0x0800080c                HAL_GPIO_Init
 .text.HAL_GPIO_WritePin
                0x080009d8        0xc CMakeFiles/build.elf.dir/micro/target/STM32F4xx_HAL_Driver/Src/stm32f4xx_hal_gpio.c.obj
                0x080009d8                HAL_GPIO_WritePin
 .text.HAL_I2C_Init
                0x080009e4      0x1a8 CMakeFiles/build.elf.dir/micro/target/STM32F4xx_HAL_Driver/Src/stm32f4xx_hal_i2c.c.obj
                0x080009e4                HAL_I2C_Init
 .text.HAL_I2S_Init
                0x08000b8c      0x19c CMakeFiles/build.elf.dir/micro/target/STM32F4xx_HAL_Driver/Src/stm32f4xx_hal_i2s.c.obj
                0x08000b8c                HAL_I2S_Init
 .text.HAL_I2S_TxCpltCallback
                0x08000d28        0x2 CMakeFiles/build.elf.dir/micro/target/STM32F4xx_HAL_Driver/Src/stm32f4xx_hal_i2s.c.obj
                0x08000d28                HAL_I2S_TxCpltCallback
 .text.I2S_Transmit_IT
                0x08000d2a       0x38 CMakeFiles/build.elf.dir/micro/target/STM32F4xx_HAL_Driver/Src/stm32f4xx_hal_i2s.c.obj
 .text.HAL_I2S_RxCpltCallback
                0x08000d62        0x2 CMakeFiles/build.elf.dir/micro/target/STM32F4xx_HAL_Driver/Src/stm32f4xx_hal_i2s.c.obj
                0x08000d62                HAL_I2S_RxCpltCallback
 .text.I2S_Receive_IT
                0x08000d64       0x38 CMakeFiles/build.elf.dir/micro/target/STM32F4xx_HAL_Driver/Src/stm32f4xx_hal_i2s.c.obj
 .text.HAL_I2S_ErrorCallback
                0x08000d9c        0x2 CMakeFiles/build.elf.dir/micro/target/STM32F4xx_HAL_Driver/Src/stm32f4xx_hal_i2s.c.obj
                0x08000d9c                HAL_I2S_ErrorCallback
 .text.I2S_IRQHandler
                0x08000d9e       0xd0 CMakeFiles/build.elf.dir/micro/target/STM32F4xx_HAL_Driver/Src/stm32f4xx_hal_i2s.c.obj
 .text.HAL_I2SEx_TxRxCpltCallback
                0x08000e6e        0x2 CMakeFiles/build.elf.dir/micro/target/STM32F4xx_HAL_Driver/Src/stm32f4xx_hal_i2s_ex.c.obj
                0x08000e6e                HAL_I2SEx_TxRxCpltCallback
 .text.I2SEx_TxISR_I2S
                0x08000e70       0x3c CMakeFiles/build.elf.dir/micro/target/STM32F4xx_HAL_Driver/Src/stm32f4xx_hal_i2s_ex.c.obj
 .text.I2SEx_RxISR_I2SExt
                0x08000eac       0x64 CMakeFiles/build.elf.dir/micro/target/STM32F4xx_HAL_Driver/Src/stm32f4xx_hal_i2s_ex.c.obj
 .text.I2SEx_TxISR_I2SExt
                0x08000f10       0x64 CMakeFiles/build.elf.dir/micro/target/STM32F4xx_HAL_Driver/Src/stm32f4xx_hal_i2s_ex.c.obj
 .text.I2SEx_RxISR_I2S
                0x08000f74       0x3c CMakeFiles/build.elf.dir/micro/target/STM32F4xx_HAL_Driver/Src/stm32f4xx_hal_i2s_ex.c.obj
 .text.HAL_I2SEx_FullDuplex_IRQHandler
                0x08000fb0      0x1d8 CMakeFiles/build.elf.dir/micro/target/STM32F4xx_HAL_Driver/Src/stm32f4xx_hal_i2s_ex.c.obj
                0x08000fb0                HAL_I2SEx_FullDuplex_IRQHandler
 .text.HAL_RCC_OscConfig
                0x08001188      0x398 CMakeFiles/build.elf.dir/micro/target/STM32F4xx_HAL_Driver/Src/stm32f4xx_hal_rcc.c.obj
                0x08001188                HAL_RCC_OscConfig
 .text.HAL_RCC_GetSysClockFreq
                0x08001520       0xa0 CMakeFiles/build.elf.dir/micro/target/STM32F4xx_HAL_Driver/Src/stm32f4xx_hal_rcc.c.obj
                0x08001520                HAL_RCC_GetSysClockFreq
 .text.HAL_RCC_ClockConfig
                0x080015c0      0x15c CMakeFiles/build.elf.dir/micro/target/STM32F4xx_HAL_Driver/Src/stm32f4xx_hal_rcc.c.obj
                0x080015c0                HAL_RCC_ClockConfig
 .text.HAL_RCC_GetHCLKFreq
                0x0800171c        0xc CMakeFiles/build.elf.dir/micro/target/STM32F4xx_HAL_Driver/Src/stm32f4xx_hal_rcc.c.obj
                0x0800171c                HAL_RCC_GetHCLKFreq
 .text.HAL_RCC_GetPCLK1Freq
                0x08001728       0x20 CMakeFiles/build.elf.dir/micro/target/STM32F4xx_HAL_Driver/Src/stm32f4xx_hal_rcc.c.obj
                0x08001728                HAL_RCC_GetPCLK1Freq
 .text.HAL_RCCEx_PeriphCLKConfig
                0x08001748      0x154 CMakeFiles/build.elf.dir/micro/target/STM32F4xx_HAL_Driver/Src/stm32f4xx_hal_rcc_ex.c.obj
                0x08001748                HAL_RCCEx_PeriphCLKConfig
 .text.HAL_RCCEx_GetPeriphCLKFreq
                0x0800189c       0x74 CMakeFiles/build.elf.dir/micro/target/STM32F4xx_HAL_Driver/Src/stm32f4xx_hal_rcc_ex.c.obj
                0x0800189c                HAL_RCCEx_GetPeriphCLKFreq
 .text.HAL_SPI_Init
                0x08001910       0x80 CMakeFiles/build.elf.dir/micro/target/STM32F4xx_HAL_Driver/Src/stm32f4xx_hal_spi.c.obj
                0x08001910                HAL_SPI_Init
 .text.MX_GPIO_Init
                0x08001990      0x18c CMakeFiles/build.elf.dir/src/main.c.obj
 .text.MX_I2C1_Init
                0x08001b1c       0x34 CMakeFiles/build.elf.dir/src/main.c.obj
 .text.MX_I2S3_Init
                0x08001b50       0x34 CMakeFiles/build.elf.dir/src/main.c.obj
 .text.MX_SPI1_Init
                0x08001b84       0x38 CMakeFiles/build.elf.dir/src/main.c.obj
 .text.SystemClock_Config
                0x08001bbc       0xb0 CMakeFiles/build.elf.dir/src/main.c.obj
                0x08001bbc                SystemClock_Config
 .text.main     0x08001c6c       0x48 CMakeFiles/build.elf.dir/src/main.c.obj
                0x08001c6c                main
 .text.Reset_Handler
                0x08001cb4       0x50 CMakeFiles/build.elf.dir/src/startup_stm32f407xx.s.obj
                0x08001cb4                Reset_Handler
 .text.Default_Handler
                0x08001d04        0x2 CMakeFiles/build.elf.dir/src/startup_stm32f407xx.s.obj
                0x08001d04                RTC_Alarm_IRQHandler
                0x08001d04                HASH_RNG_IRQHandler
                0x08001d04                EXTI2_IRQHandler
                0x08001d04                TIM8_CC_IRQHandler
                0x08001d04                TIM1_CC_IRQHandler
                0x08001d04                DMA2_Stream5_IRQHandler
                0x08001d04                DMA1_Stream5_IRQHandler
                0x08001d04                PVD_IRQHandler
                0x08001d04                SDIO_IRQHandler
                0x08001d04                TAMP_STAMP_IRQHandler
                0x08001d04                CAN2_RX1_IRQHandler
                0x08001d04                EXTI3_IRQHandler
                0x08001d04                TIM8_TRG_COM_TIM14_IRQHandler
                0x08001d04                TIM1_UP_TIM10_IRQHandler
                0x08001d04                TIM8_UP_TIM13_IRQHandler
                0x08001d04                I2C3_ER_IRQHandler
                0x08001d04                EXTI0_IRQHandler
                0x08001d04                I2C2_EV_IRQHandler
                0x08001d04                DMA1_Stream2_IRQHandler
                0x08001d04                CAN1_RX0_IRQHandler
                0x08001d04                FPU_IRQHandler
                0x08001d04                OTG_HS_WKUP_IRQHandler
                0x08001d04                CAN2_SCE_IRQHandler
                0x08001d04                DMA2_Stream2_IRQHandler
                0x08001d04                SPI1_IRQHandler
                0x08001d04                TIM6_DAC_IRQHandler
                0x08001d04                TIM1_BRK_TIM9_IRQHandler
                0x08001d04                DCMI_IRQHandler
                0x08001d04                CAN2_RX0_IRQHandler
                0x08001d04                DMA2_Stream3_IRQHandler
                0x08001d04                USART6_IRQHandler
                0x08001d04                USART3_IRQHandler
                0x08001d04                CAN1_RX1_IRQHandler
                0x08001d04                UART5_IRQHandler
                0x08001d04                DMA2_Stream0_IRQHandler
                0x08001d04                TIM4_IRQHandler
                0x08001d04                I2C1_EV_IRQHandler
                0x08001d04                DMA1_Stream6_IRQHandler
                0x08001d04                DMA1_Stream1_IRQHandler
                0x08001d04                UART4_IRQHandler
                0x08001d04                TIM3_IRQHandler
                0x08001d04                RCC_IRQHandler
                0x08001d04                TIM8_BRK_TIM12_IRQHandler
                0x08001d04                Default_Handler
                0x08001d04                EXTI15_10_IRQHandler
                0x08001d04                ADC_IRQHandler
                0x08001d04                DMA1_Stream7_IRQHandler
                0x08001d04                TIM7_IRQHandler
                0x08001d04                CAN2_TX_IRQHandler
                0x08001d04                TIM5_IRQHandler
                0x08001d04                DMA2_Stream7_IRQHandler
                0x08001d04                I2C3_EV_IRQHandler
                0x08001d04                EXTI9_5_IRQHandler
                0x08001d04                RTC_WKUP_IRQHandler
                0x08001d04                ETH_WKUP_IRQHandler
                0x08001d04                SPI2_IRQHandler
                0x08001d04                OTG_HS_EP1_IN_IRQHandler
                0x08001d04                DMA1_Stream0_IRQHandler
                0x08001d04                CAN1_TX_IRQHandler
                0x08001d04                EXTI4_IRQHandler
                0x08001d04                FSMC_IRQHandler
                0x08001d04                ETH_IRQHandler
                0x08001d04                OTG_HS_EP1_OUT_IRQHandler
                0x08001d04                WWDG_IRQHandler
                0x08001d04                TIM2_IRQHandler
                0x08001d04                OTG_FS_WKUP_IRQHandler
                0x08001d04                TIM1_TRG_COM_TIM11_IRQHandler
                0x08001d04                OTG_HS_IRQHandler
                0x08001d04                EXTI1_IRQHandler
                0x08001d04                USART2_IRQHandler
                0x08001d04                I2C2_ER_IRQHandler
                0x08001d04                DMA2_Stream1_IRQHandler
                0x08001d04                CAN1_SCE_IRQHandler
                0x08001d04                FLASH_IRQHandler
                0x08001d04                DMA2_Stream4_IRQHandler
                0x08001d04                USART1_IRQHandler
                0x08001d04                SPI3_IRQHandler
                0x08001d04                DMA1_Stream4_IRQHandler
                0x08001d04                I2C1_ER_IRQHandler
                0x08001d04                DMA2_Stream6_IRQHandler
                0x08001d04                DMA1_Stream3_IRQHandler
 *fill*         0x08001d06        0x2 
 .text.HAL_MspInit
                0x08001d08       0x40 CMakeFiles/build.elf.dir/src/stm32f4xx_hal_msp.c.obj
                0x08001d08                HAL_MspInit
 .text.HAL_I2C_MspInit
                0x08001d48       0x74 CMakeFiles/build.elf.dir/src/stm32f4xx_hal_msp.c.obj
                0x08001d48                HAL_I2C_MspInit
 .text.HAL_I2S_MspInit
                0x08001dbc       0x9c CMakeFiles/build.elf.dir/src/stm32f4xx_hal_msp.c.obj
                0x08001dbc                HAL_I2S_MspInit
 .text.HAL_SPI_MspInit
                0x08001e58       0x70 CMakeFiles/build.elf.dir/src/stm32f4xx_hal_msp.c.obj
                0x08001e58                HAL_SPI_MspInit
 .text.NMI_Handler
                0x08001ec8        0x2 CMakeFiles/build.elf.dir/src/stm32f4xx_it.c.obj
                0x08001ec8                NMI_Handler
 .text.HardFault_Handler
                0x08001eca        0x2 CMakeFiles/build.elf.dir/src/stm32f4xx_it.c.obj
                0x08001eca                HardFault_Handler
 .text.MemManage_Handler
                0x08001ecc        0x2 CMakeFiles/build.elf.dir/src/stm32f4xx_it.c.obj
                0x08001ecc                MemManage_Handler
 .text.BusFault_Handler
                0x08001ece        0x2 CMakeFiles/build.elf.dir/src/stm32f4xx_it.c.obj
                0x08001ece                BusFault_Handler
 .text.UsageFault_Handler
                0x08001ed0        0x2 CMakeFiles/build.elf.dir/src/stm32f4xx_it.c.obj
                0x08001ed0                UsageFault_Handler
 .text.SVC_Handler
                0x08001ed2        0x2 CMakeFiles/build.elf.dir/src/stm32f4xx_it.c.obj
                0x08001ed2                SVC_Handler
 .text.DebugMon_Handler
                0x08001ed4        0x2 CMakeFiles/build.elf.dir/src/stm32f4xx_it.c.obj
                0x08001ed4                DebugMon_Handler
 .text.PendSV_Handler
                0x08001ed6        0x2 CMakeFiles/build.elf.dir/src/stm32f4xx_it.c.obj
                0x08001ed6                PendSV_Handler
 .text.SysTick_Handler
                0x08001ed8        0x8 CMakeFiles/build.elf.dir/src/stm32f4xx_it.c.obj
                0x08001ed8                SysTick_Handler
 .text.OTG_FS_IRQHandler
                0x08001ee0        0x2 CMakeFiles/build.elf.dir/src/stm32f4xx_it.c.obj
                0x08001ee0                OTG_FS_IRQHandler
 *fill*         0x08001ee2        0x2 
 .text.SystemInit
                0x08001ee4       0x4c CMakeFiles/build.elf.dir/src/system_stm32f4xx.c.obj
                0x08001ee4                SystemInit
 *(.glue_7)
 .glue_7        0x08001f30        0x0 linker stubs
 *(.glue_7t)
 .glue_7t       0x08001f30        0x0 linker stubs
 *(.eh_frame)
 .eh_frame      0x08001f30        0x0 e:/program files (x86)/gnu tools arm embedded/9 2019-q4-major/bin/../lib/gcc/arm-none-eabi/9.2.1/thumb/v7e-m+fp/hard/crtbegin.o
 *(.init)
 .init          0x08001f30        0x4 e:/program files (x86)/gnu tools arm embedded/9 2019-q4-major/bin/../lib/gcc/arm-none-eabi/9.2.1/thumb/v7e-m+fp/hard/crti.o
                0x08001f30                _init
 .init          0x08001f34        0x8 e:/program files (x86)/gnu tools arm embedded/9 2019-q4-major/bin/../lib/gcc/arm-none-eabi/9.2.1/thumb/v7e-m+fp/hard/crtn.o
 *(.fini)
 .fini          0x08001f3c        0x4 e:/program files (x86)/gnu tools arm embedded/9 2019-q4-major/bin/../lib/gcc/arm-none-eabi/9.2.1/thumb/v7e-m+fp/hard/crti.o
                0x08001f3c                _fini
 .fini          0x08001f40        0x8 e:/program files (x86)/gnu tools arm embedded/9 2019-q4-major/bin/../lib/gcc/arm-none-eabi/9.2.1/thumb/v7e-m+fp/hard/crtn.o
                0x08001f48                . = ALIGN (0x4)
                0x08001f48                _etext = .

.vfp11_veneer   0x08001f48        0x0
 .vfp11_veneer  0x08001f48        0x0 linker stubs

.v4_bx          0x08001f48        0x0
 .v4_bx         0x08001f48        0x0 linker stubs

.iplt           0x08001f48        0x0
 .iplt          0x08001f48        0x0 e:/program files (x86)/gnu tools arm embedded/9 2019-q4-major/bin/../lib/gcc/arm-none-eabi/9.2.1/thumb/v7e-m+fp/hard/crtbegin.o

.rodata         0x08001f48       0x1c
                0x08001f48                . = ALIGN (0x4)
 *(.rodata)
 *(.rodata*)
 .rodata._global_impure_ptr
                0x08001f48        0x4 e:/program files (x86)/gnu tools arm embedded/9 2019-q4-major/bin/../lib/gcc/arm-none-eabi/9.2.1/../../../../arm-none-eabi/lib/thumb/v7e-m+fp/hard\libc.a(lib_a-impure.o)
                0x08001f48                _global_impure_ptr
 .rodata.AHBPrescTable
                0x08001f4c       0x10 CMakeFiles/build.elf.dir/src/system_stm32f4xx.c.obj
                0x08001f4c                AHBPrescTable
 .rodata.APBPrescTable
                0x08001f5c        0x8 CMakeFiles/build.elf.dir/src/system_stm32f4xx.c.obj
                0x08001f5c                APBPrescTable
                0x08001f64                . = ALIGN (0x4)

.ARM.extab
 *(.ARM.extab* .gnu.linkonce.armextab.*)

.ARM            0x08001f64        0x8
                0x08001f64                __exidx_start = .
 *(.ARM.exidx*)
 .ARM.exidx     0x08001f64        0x8 e:/program files (x86)/gnu tools arm embedded/9 2019-q4-major/bin/../lib/gcc/arm-none-eabi/9.2.1/thumb/v7e-m+fp/hard\libgcc.a(_udivmoddi4.o)
                0x08001f6c                __exidx_end = .

.rel.dyn        0x08001f6c        0x0
 .rel.iplt      0x08001f6c        0x0 e:/program files (x86)/gnu tools arm embedded/9 2019-q4-major/bin/../lib/gcc/arm-none-eabi/9.2.1/thumb/v7e-m+fp/hard/crtbegin.o

.preinit_array  0x08001f6c        0x0
                0x08001f6c                PROVIDE (__preinit_array_start = .)
 *(.preinit_array*)
                0x08001f6c                PROVIDE (__preinit_array_end = .)

.init_array     0x08001f6c        0x8
                0x08001f6c                PROVIDE (__init_array_start = .)
 *(SORT_BY_NAME(.init_array.*))
 .init_array.00000
                0x08001f6c        0x4 e:/program files (x86)/gnu tools arm embedded/9 2019-q4-major/bin/../lib/gcc/arm-none-eabi/9.2.1/../../../../arm-none-eabi/lib/thumb/v7e-m+fp/hard\libc.a(lib_a-__call_atexit.o)
 *(.init_array*)
 .init_array    0x08001f70        0x4 e:/program files (x86)/gnu tools arm embedded/9 2019-q4-major/bin/../lib/gcc/arm-none-eabi/9.2.1/thumb/v7e-m+fp/hard/crtbegin.o
                0x08001f74                PROVIDE (__init_array_end = .)

.fini_array     0x08001f74        0x4
                0x08001f74                PROVIDE (__fini_array_start = .)
 *(SORT_BY_NAME(.fini_array.*))
 *(.fini_array*)
 .fini_array    0x08001f74        0x4 e:/program files (x86)/gnu tools arm embedded/9 2019-q4-major/bin/../lib/gcc/arm-none-eabi/9.2.1/thumb/v7e-m+fp/hard/crtbegin.o
                0x08001f78                PROVIDE (__fini_array_end = .)
                0x08001f78                _sidata = LOADADDR (.data)

.data           0x20000000      0x438 load address 0x08001f78
                0x20000000                . = ALIGN (0x4)
                0x20000000                _sdata = .
 *(.data)
 *(.data*)
 .data.impure_data
                0x20000000      0x428 e:/program files (x86)/gnu tools arm embedded/9 2019-q4-major/bin/../lib/gcc/arm-none-eabi/9.2.1/../../../../arm-none-eabi/lib/thumb/v7e-m+fp/hard\libc.a(lib_a-impure.o)
 .data.__atexit_recursive_mutex
                0x20000428        0x4 e:/program files (x86)/gnu tools arm embedded/9 2019-q4-major/bin/../lib/gcc/arm-none-eabi/9.2.1/../../../../arm-none-eabi/lib/thumb/v7e-m+fp/hard\libc.a(lib_a-__call_atexit.o)
                0x20000428                __atexit_recursive_mutex
 .data.uwTickFreq
                0x2000042c        0x1 CMakeFiles/build.elf.dir/micro/target/STM32F4xx_HAL_Driver/Src/stm32f4xx_hal.c.obj
                0x2000042c                uwTickFreq
 *fill*         0x2000042d        0x3 
 .data.uwTickPrio
                0x20000430        0x4 CMakeFiles/build.elf.dir/micro/target/STM32F4xx_HAL_Driver/Src/stm32f4xx_hal.c.obj
                0x20000430                uwTickPrio
 .data.SystemCoreClock
                0x20000434        0x4 CMakeFiles/build.elf.dir/src/system_stm32f4xx.c.obj
                0x20000434                SystemCoreClock
                0x20000438                . = ALIGN (0x4)
                0x20000438                _edata = .
                0x080023b0                _siccmram = LOADADDR (.ccmram)

.igot.plt       0x20000438        0x0 load address 0x080023b0
 .igot.plt      0x20000438        0x0 e:/program files (x86)/gnu tools arm embedded/9 2019-q4-major/bin/../lib/gcc/arm-none-eabi/9.2.1/thumb/v7e-m+fp/hard/crtbegin.o

.ccmram         0x10000000        0x0 load address 0x080023b0
                0x10000000                . = ALIGN (0x4)
                0x10000000                _sccmram = .
 *(.ccmram)
 *(.ccmram*)
                0x10000000                . = ALIGN (0x4)
                0x10000000                _eccmram = .
                0x10000000                . = ALIGN (0x4)

.bss            0x20000438      0x138
                0x20000438                _sbss = .
                0x20000438                __bss_start__ = _sbss
 *(.bss)
 .bss           0x20000438       0x1c e:/program files (x86)/gnu tools arm embedded/9 2019-q4-major/bin/../lib/gcc/arm-none-eabi/9.2.1/thumb/v7e-m+fp/hard/crtbegin.o
 *(.bss*)
 *(COMMON)
 COMMON         0x20000454       0x21 e:/program files (x86)/gnu tools arm embedded/9 2019-q4-major/bin/../lib/gcc/arm-none-eabi/9.2.1/../../../../arm-none-eabi/lib/thumb/v7e-m+fp/hard\libc.a(lib_a-lock.o)
                0x20000454                __lock___atexit_recursive_mutex
                0x20000458                __lock___arc4random_mutex
                0x2000045c                __lock___env_recursive_mutex
                0x20000460                __lock___sinit_recursive_mutex
                0x20000464                __lock___malloc_recursive_mutex
                0x20000468                __lock___at_quick_exit_mutex
                0x2000046c                __lock___dd_hash_mutex
                0x20000470                __lock___tz_mutex
                0x20000474                __lock___sfp_recursive_mutex
 *fill*         0x20000475        0x3 
 COMMON         0x20000478        0x4 CMakeFiles/build.elf.dir/micro/target/STM32F4xx_HAL_Driver/Src/stm32f4xx_hal.c.obj
                0x20000478                uwTick
 COMMON         0x2000047c       0xf4 CMakeFiles/build.elf.dir/src/main.c.obj
                0x2000047c                hi2c1
                0x200004d0                hspi1
                0x20000528                hi2s3
                0x20000570                . = ALIGN (0x4)
                0x20000570                _ebss = .
                0x20000570                __bss_end__ = _ebss

._user_heap_stack
                0x20000570      0x600
                0x20000570                . = ALIGN (0x8)
                [!provide]                PROVIDE (end = .)
                [!provide]                PROVIDE (_end = .)
                0x20000770                . = (. + _Min_Heap_Size)
 *fill*         0x20000570      0x200 
                0x20000b70                . = (. + _Min_Stack_Size)
 *fill*         0x20000770      0x400 
                0x20000b70                . = ALIGN (0x8)

/DISCARD/
 libc.a(*)
 libm.a(*)
 libgcc.a(*)

.ARM.attributes
                0x00000000       0x30
 *(.ARM.attributes)
 .ARM.attributes
                0x00000000       0x1e e:/program files (x86)/gnu tools arm embedded/9 2019-q4-major/bin/../lib/gcc/arm-none-eabi/9.2.1/thumb/v7e-m+fp/hard/crti.o
 .ARM.attributes
                0x0000001e       0x34 e:/program files (x86)/gnu tools arm embedded/9 2019-q4-major/bin/../lib/gcc/arm-none-eabi/9.2.1/thumb/v7e-m+fp/hard/crtbegin.o
 .ARM.attributes
                0x00000052       0x32 e:/program files (x86)/gnu tools arm embedded/9 2019-q4-major/bin/../lib/gcc/arm-none-eabi/9.2.1/../../../../arm-none-eabi/lib/thumb/v7e-m+fp/hard\libc.a(lib_a-impure.o)
 .ARM.attributes
                0x00000084       0x34 e:/program files (x86)/gnu tools arm embedded/9 2019-q4-major/bin/../lib/gcc/arm-none-eabi/9.2.1/../../../../arm-none-eabi/lib/thumb/v7e-m+fp/hard\libc.a(lib_a-init.o)
 .ARM.attributes
                0x000000b8       0x34 e:/program files (x86)/gnu tools arm embedded/9 2019-q4-major/bin/../lib/gcc/arm-none-eabi/9.2.1/../../../../arm-none-eabi/lib/thumb/v7e-m+fp/hard\libc.a(lib_a-memset.o)
 .ARM.attributes
                0x000000ec       0x34 e:/program files (x86)/gnu tools arm embedded/9 2019-q4-major/bin/../lib/gcc/arm-none-eabi/9.2.1/../../../../arm-none-eabi/lib/thumb/v7e-m+fp/hard\libc.a(lib_a-__call_atexit.o)
 .ARM.attributes
                0x00000120       0x34 e:/program files (x86)/gnu tools arm embedded/9 2019-q4-major/bin/../lib/gcc/arm-none-eabi/9.2.1/../../../../arm-none-eabi/lib/thumb/v7e-m+fp/hard\libc.a(lib_a-atexit.o)
 .ARM.attributes
                0x00000154       0x34 e:/program files (x86)/gnu tools arm embedded/9 2019-q4-major/bin/../lib/gcc/arm-none-eabi/9.2.1/../../../../arm-none-eabi/lib/thumb/v7e-m+fp/hard\libc.a(lib_a-fini.o)
 .ARM.attributes
                0x00000188       0x34 e:/program files (x86)/gnu tools arm embedded/9 2019-q4-major/bin/../lib/gcc/arm-none-eabi/9.2.1/../../../../arm-none-eabi/lib/thumb/v7e-m+fp/hard\libc.a(lib_a-lock.o)
 .ARM.attributes
                0x000001bc       0x34 e:/program files (x86)/gnu tools arm embedded/9 2019-q4-major/bin/../lib/gcc/arm-none-eabi/9.2.1/../../../../arm-none-eabi/lib/thumb/v7e-m+fp/hard\libc.a(lib_a-__atexit.o)
 .ARM.attributes
                0x000001f0       0x34 CMakeFiles/build.elf.dir/micro/target/STM32F4xx_HAL_Driver/Src/stm32f4xx_hal.c.obj
 .ARM.attributes
                0x00000224       0x34 CMakeFiles/build.elf.dir/micro/target/STM32F4xx_HAL_Driver/Src/stm32f4xx_hal_cortex.c.obj
 .ARM.attributes
                0x00000258       0x34 CMakeFiles/build.elf.dir/micro/target/STM32F4xx_HAL_Driver/Src/stm32f4xx_hal_gpio.c.obj
 .ARM.attributes
                0x0000028c       0x34 CMakeFiles/build.elf.dir/micro/target/STM32F4xx_HAL_Driver/Src/stm32f4xx_hal_i2c.c.obj
 .ARM.attributes
                0x000002c0       0x34 CMakeFiles/build.elf.dir/micro/target/STM32F4xx_HAL_Driver/Src/stm32f4xx_hal_i2s.c.obj
 .ARM.attributes
                0x000002f4       0x34 CMakeFiles/build.elf.dir/micro/target/STM32F4xx_HAL_Driver/Src/stm32f4xx_hal_i2s_ex.c.obj
 .ARM.attributes
                0x00000328       0x34 CMakeFiles/build.elf.dir/micro/target/STM32F4xx_HAL_Driver/Src/stm32f4xx_hal_rcc.c.obj
 .ARM.attributes
                0x0000035c       0x34 CMakeFiles/build.elf.dir/micro/target/STM32F4xx_HAL_Driver/Src/stm32f4xx_hal_rcc_ex.c.obj
 .ARM.attributes
                0x00000390       0x34 CMakeFiles/build.elf.dir/micro/target/STM32F4xx_HAL_Driver/Src/stm32f4xx_hal_spi.c.obj
 .ARM.attributes
                0x000003c4       0x34 CMakeFiles/build.elf.dir/src/main.c.obj
 .ARM.attributes
                0x000003f8       0x21 CMakeFiles/build.elf.dir/src/startup_stm32f407xx.s.obj
 .ARM.attributes
                0x00000419       0x34 CMakeFiles/build.elf.dir/src/stm32f4xx_hal_msp.c.obj
 .ARM.attributes
                0x0000044d       0x34 CMakeFiles/build.elf.dir/src/stm32f4xx_it.c.obj
 .ARM.attributes
                0x00000481       0x34 CMakeFiles/build.elf.dir/src/system_stm32f4xx.c.obj
 .ARM.attributes
                0x000004b5       0x1e e:/program files (x86)/gnu tools arm embedded/9 2019-q4-major/bin/../lib/gcc/arm-none-eabi/9.2.1/thumb/v7e-m+fp/hard\libgcc.a(_aeabi_uldivmod.o)
 .ARM.attributes
                0x000004d3       0x34 e:/program files (x86)/gnu tools arm embedded/9 2019-q4-major/bin/../lib/gcc/arm-none-eabi/9.2.1/thumb/v7e-m+fp/hard\libgcc.a(_udivmoddi4.o)
 .ARM.attributes
                0x00000507       0x1e e:/program files (x86)/gnu tools arm embedded/9 2019-q4-major/bin/../lib/gcc/arm-none-eabi/9.2.1/thumb/v7e-m+fp/hard\libgcc.a(_dvmd_tls.o)
 .ARM.attributes
                0x00000525       0x1e e:/program files (x86)/gnu tools arm embedded/9 2019-q4-major/bin/../lib/gcc/arm-none-eabi/9.2.1/thumb/v7e-m+fp/hard/crtn.o
OUTPUT(build.elf elf32-littlearm)

.debug_frame    0x00000000     0x1ea0
 .debug_frame   0x00000000       0x2c e:/program files (x86)/gnu tools arm embedded/9 2019-q4-major/bin/../lib/gcc/arm-none-eabi/9.2.1/../../../../arm-none-eabi/lib/thumb/v7e-m+fp/hard\libc.a(lib_a-init.o)
 .debug_frame   0x0000002c       0x38 e:/program files (x86)/gnu tools arm embedded/9 2019-q4-major/bin/../lib/gcc/arm-none-eabi/9.2.1/../../../../arm-none-eabi/lib/thumb/v7e-m+fp/hard\libc.a(lib_a-memset.o)
 .debug_frame   0x00000064       0x68 e:/program files (x86)/gnu tools arm embedded/9 2019-q4-major/bin/../lib/gcc/arm-none-eabi/9.2.1/../../../../arm-none-eabi/lib/thumb/v7e-m+fp/hard\libc.a(lib_a-__call_atexit.o)
 .debug_frame   0x000000cc       0x20 e:/program files (x86)/gnu tools arm embedded/9 2019-q4-major/bin/../lib/gcc/arm-none-eabi/9.2.1/../../../../arm-none-eabi/lib/thumb/v7e-m+fp/hard\libc.a(lib_a-atexit.o)
 .debug_frame   0x000000ec       0x34 e:/program files (x86)/gnu tools arm embedded/9 2019-q4-major/bin/../lib/gcc/arm-none-eabi/9.2.1/../../../../arm-none-eabi/lib/thumb/v7e-m+fp/hard\libc.a(lib_a-fini.o)
 .debug_frame   0x00000120       0xb0 e:/program files (x86)/gnu tools arm embedded/9 2019-q4-major/bin/../lib/gcc/arm-none-eabi/9.2.1/../../../../arm-none-eabi/lib/thumb/v7e-m+fp/hard\libc.a(lib_a-lock.o)
 .debug_frame   0x000001d0       0x34 e:/program files (x86)/gnu tools arm embedded/9 2019-q4-major/bin/../lib/gcc/arm-none-eabi/9.2.1/../../../../arm-none-eabi/lib/thumb/v7e-m+fp/hard\libc.a(lib_a-__atexit.o)
 .debug_frame   0x00000204      0x1ec CMakeFiles/build.elf.dir/micro/target/STM32F4xx_HAL_Driver/Src/stm32f4xx_hal.c.obj
 .debug_frame   0x000003f0      0x15c CMakeFiles/build.elf.dir/micro/target/STM32F4xx_HAL_Driver/Src/stm32f4xx_hal_cortex.c.obj
 .debug_frame   0x0000054c       0xd8 CMakeFiles/build.elf.dir/micro/target/STM32F4xx_HAL_Driver/Src/stm32f4xx_hal_gpio.c.obj
 .debug_frame   0x00000624      0x930 CMakeFiles/build.elf.dir/micro/target/STM32F4xx_HAL_Driver/Src/stm32f4xx_hal_i2c.c.obj
 .debug_frame   0x00000f54      0x318 CMakeFiles/build.elf.dir/micro/target/STM32F4xx_HAL_Driver/Src/stm32f4xx_hal_i2s.c.obj
 .debug_frame   0x0000126c      0x198 CMakeFiles/build.elf.dir/micro/target/STM32F4xx_HAL_Driver/Src/stm32f4xx_hal_i2s_ex.c.obj
 .debug_frame   0x00001404      0x174 CMakeFiles/build.elf.dir/micro/target/STM32F4xx_HAL_Driver/Src/stm32f4xx_hal_rcc.c.obj
 .debug_frame   0x00001578       0xa4 CMakeFiles/build.elf.dir/micro/target/STM32F4xx_HAL_Driver/Src/stm32f4xx_hal_rcc_ex.c.obj
 .debug_frame   0x0000161c      0x590 CMakeFiles/build.elf.dir/micro/target/STM32F4xx_HAL_Driver/Src/stm32f4xx_hal_spi.c.obj
 .debug_frame   0x00001bac       0xd0 CMakeFiles/build.elf.dir/src/main.c.obj
 .debug_frame   0x00001c7c       0xdc CMakeFiles/build.elf.dir/src/stm32f4xx_hal_msp.c.obj
 .debug_frame   0x00001d58       0xb8 CMakeFiles/build.elf.dir/src/stm32f4xx_it.c.obj
 .debug_frame   0x00001e10       0x30 CMakeFiles/build.elf.dir/src/system_stm32f4xx.c.obj
 .debug_frame   0x00001e40       0x2c e:/program files (x86)/gnu tools arm embedded/9 2019-q4-major/bin/../lib/gcc/arm-none-eabi/9.2.1/thumb/v7e-m+fp/hard\libgcc.a(_aeabi_uldivmod.o)
 .debug_frame   0x00001e6c       0x34 e:/program files (x86)/gnu tools arm embedded/9 2019-q4-major/bin/../lib/gcc/arm-none-eabi/9.2.1/thumb/v7e-m+fp/hard\libgcc.a(_udivmoddi4.o)

.debug_info     0x00000000     0xdc22
 .debug_info    0x00000000      0xa2c CMakeFiles/build.elf.dir/micro/target/STM32F4xx_HAL_Driver/Src/stm32f4xx_hal.c.obj
 .debug_info    0x00000a2c     0x10dd CMakeFiles/build.elf.dir/micro/target/STM32F4xx_HAL_Driver/Src/stm32f4xx_hal_cortex.c.obj
 .debug_info    0x00001b09      0x7ec CMakeFiles/build.elf.dir/micro/target/STM32F4xx_HAL_Driver/Src/stm32f4xx_hal_gpio.c.obj
 .debug_info    0x000022f5     0x382b CMakeFiles/build.elf.dir/micro/target/STM32F4xx_HAL_Driver/Src/stm32f4xx_hal_i2c.c.obj
 .debug_info    0x00005b20     0x111b CMakeFiles/build.elf.dir/micro/target/STM32F4xx_HAL_Driver/Src/stm32f4xx_hal_i2s.c.obj
 .debug_info    0x00006c3b      0xea5 CMakeFiles/build.elf.dir/micro/target/STM32F4xx_HAL_Driver/Src/stm32f4xx_hal_i2s_ex.c.obj
 .debug_info    0x00007ae0      0xac0 CMakeFiles/build.elf.dir/micro/target/STM32F4xx_HAL_Driver/Src/stm32f4xx_hal_rcc.c.obj
 .debug_info    0x000085a0      0x6cf CMakeFiles/build.elf.dir/micro/target/STM32F4xx_HAL_Driver/Src/stm32f4xx_hal_rcc_ex.c.obj
 .debug_info    0x00008c6f     0x1e79 CMakeFiles/build.elf.dir/micro/target/STM32F4xx_HAL_Driver/Src/stm32f4xx_hal_spi.c.obj
 .debug_info    0x0000aae8     0x1477 CMakeFiles/build.elf.dir/src/main.c.obj
 .debug_info    0x0000bf5f       0x22 CMakeFiles/build.elf.dir/src/startup_stm32f407xx.s.obj
 .debug_info    0x0000bf81     0x10b7 CMakeFiles/build.elf.dir/src/stm32f4xx_hal_msp.c.obj
 .debug_info    0x0000d038      0x6af CMakeFiles/build.elf.dir/src/stm32f4xx_it.c.obj
 .debug_info    0x0000d6e7      0x53b CMakeFiles/build.elf.dir/src/system_stm32f4xx.c.obj

.debug_abbrev   0x00000000     0x1dff
 .debug_abbrev  0x00000000      0x220 CMakeFiles/build.elf.dir/micro/target/STM32F4xx_HAL_Driver/Src/stm32f4xx_hal.c.obj
 .debug_abbrev  0x00000220      0x393 CMakeFiles/build.elf.dir/micro/target/STM32F4xx_HAL_Driver/Src/stm32f4xx_hal_cortex.c.obj
 .debug_abbrev  0x000005b3      0x21f CMakeFiles/build.elf.dir/micro/target/STM32F4xx_HAL_Driver/Src/stm32f4xx_hal_gpio.c.obj
 .debug_abbrev  0x000007d2      0x2bf CMakeFiles/build.elf.dir/micro/target/STM32F4xx_HAL_Driver/Src/stm32f4xx_hal_i2c.c.obj
 .debug_abbrev  0x00000a91      0x26f CMakeFiles/build.elf.dir/micro/target/STM32F4xx_HAL_Driver/Src/stm32f4xx_hal_i2s.c.obj
 .debug_abbrev  0x00000d00      0x2c4 CMakeFiles/build.elf.dir/micro/target/STM32F4xx_HAL_Driver/Src/stm32f4xx_hal_i2s_ex.c.obj
 .debug_abbrev  0x00000fc4      0x2b1 CMakeFiles/build.elf.dir/micro/target/STM32F4xx_HAL_Driver/Src/stm32f4xx_hal_rcc.c.obj
 .debug_abbrev  0x00001275      0x1b4 CMakeFiles/build.elf.dir/micro/target/STM32F4xx_HAL_Driver/Src/stm32f4xx_hal_rcc_ex.c.obj
 .debug_abbrev  0x00001429      0x27d CMakeFiles/build.elf.dir/micro/target/STM32F4xx_HAL_Driver/Src/stm32f4xx_hal_spi.c.obj
 .debug_abbrev  0x000016a6      0x26e CMakeFiles/build.elf.dir/src/main.c.obj
 .debug_abbrev  0x00001914       0x12 CMakeFiles/build.elf.dir/src/startup_stm32f407xx.s.obj
 .debug_abbrev  0x00001926      0x206 CMakeFiles/build.elf.dir/src/stm32f4xx_hal_msp.c.obj
 .debug_abbrev  0x00001b2c      0x1a4 CMakeFiles/build.elf.dir/src/stm32f4xx_it.c.obj
 .debug_abbrev  0x00001cd0      0x12f CMakeFiles/build.elf.dir/src/system_stm32f4xx.c.obj

.debug_loc      0x00000000     0x8ce0
 .debug_loc     0x00000000      0x12c CMakeFiles/build.elf.dir/micro/target/STM32F4xx_HAL_Driver/Src/stm32f4xx_hal.c.obj
 .debug_loc     0x0000012c      0x744 CMakeFiles/build.elf.dir/micro/target/STM32F4xx_HAL_Driver/Src/stm32f4xx_hal_cortex.c.obj
 .debug_loc     0x00000870      0x519 CMakeFiles/build.elf.dir/micro/target/STM32F4xx_HAL_Driver/Src/stm32f4xx_hal_gpio.c.obj
 .debug_loc     0x00000d89     0x3c79 CMakeFiles/build.elf.dir/micro/target/STM32F4xx_HAL_Driver/Src/stm32f4xx_hal_i2c.c.obj
 .debug_loc     0x00004a02      0xe9a CMakeFiles/build.elf.dir/micro/target/STM32F4xx_HAL_Driver/Src/stm32f4xx_hal_i2s.c.obj
 .debug_loc     0x0000589c      0xb12 CMakeFiles/build.elf.dir/micro/target/STM32F4xx_HAL_Driver/Src/stm32f4xx_hal_i2s_ex.c.obj
 .debug_loc     0x000063ae      0x540 CMakeFiles/build.elf.dir/micro/target/STM32F4xx_HAL_Driver/Src/stm32f4xx_hal_rcc.c.obj
 .debug_loc     0x000068ee      0x3cf CMakeFiles/build.elf.dir/micro/target/STM32F4xx_HAL_Driver/Src/stm32f4xx_hal_rcc_ex.c.obj
 .debug_loc     0x00006cbd     0x1d2b CMakeFiles/build.elf.dir/micro/target/STM32F4xx_HAL_Driver/Src/stm32f4xx_hal_spi.c.obj
 .debug_loc     0x000089e8      0x18c CMakeFiles/build.elf.dir/src/stm32f4xx_hal_msp.c.obj
 .debug_loc     0x00008b74      0x16c CMakeFiles/build.elf.dir/src/system_stm32f4xx.c.obj

.debug_aranges  0x00000000      0xa08
 .debug_aranges
                0x00000000       0xf0 CMakeFiles/build.elf.dir/micro/target/STM32F4xx_HAL_Driver/Src/stm32f4xx_hal.c.obj
 .debug_aranges
                0x000000f0       0xa8 CMakeFiles/build.elf.dir/micro/target/STM32F4xx_HAL_Driver/Src/stm32f4xx_hal_cortex.c.obj
 .debug_aranges
                0x00000198       0x58 CMakeFiles/build.elf.dir/micro/target/STM32F4xx_HAL_Driver/Src/stm32f4xx_hal_gpio.c.obj
 .debug_aranges
                0x000001f0      0x290 CMakeFiles/build.elf.dir/micro/target/STM32F4xx_HAL_Driver/Src/stm32f4xx_hal_i2c.c.obj
 .debug_aranges
                0x00000480      0x108 CMakeFiles/build.elf.dir/micro/target/STM32F4xx_HAL_Driver/Src/stm32f4xx_hal_i2s.c.obj
 .debug_aranges
                0x00000588       0x88 CMakeFiles/build.elf.dir/micro/target/STM32F4xx_HAL_Driver/Src/stm32f4xx_hal_i2s_ex.c.obj
 .debug_aranges
                0x00000610       0x88 CMakeFiles/build.elf.dir/micro/target/STM32F4xx_HAL_Driver/Src/stm32f4xx_hal_rcc.c.obj
 .debug_aranges
                0x00000698       0x48 CMakeFiles/build.elf.dir/micro/target/STM32F4xx_HAL_Driver/Src/stm32f4xx_hal_rcc_ex.c.obj
 .debug_aranges
                0x000006e0      0x1d0 CMakeFiles/build.elf.dir/micro/target/STM32F4xx_HAL_Driver/Src/stm32f4xx_hal_spi.c.obj
 .debug_aranges
                0x000008b0       0x50 CMakeFiles/build.elf.dir/src/main.c.obj
 .debug_aranges
                0x00000900       0x28 CMakeFiles/build.elf.dir/src/startup_stm32f407xx.s.obj
 .debug_aranges
                0x00000928       0x50 CMakeFiles/build.elf.dir/src/stm32f4xx_hal_msp.c.obj
 .debug_aranges
                0x00000978       0x68 CMakeFiles/build.elf.dir/src/stm32f4xx_it.c.obj
 .debug_aranges
                0x000009e0       0x28 CMakeFiles/build.elf.dir/src/system_stm32f4xx.c.obj

.debug_ranges   0x00000000      0x9d8
 .debug_ranges  0x00000000       0xe0 CMakeFiles/build.elf.dir/micro/target/STM32F4xx_HAL_Driver/Src/stm32f4xx_hal.c.obj
 .debug_ranges  0x000000e0       0xf8 CMakeFiles/build.elf.dir/micro/target/STM32F4xx_HAL_Driver/Src/stm32f4xx_hal_cortex.c.obj
 .debug_ranges  0x000001d8       0x48 CMakeFiles/build.elf.dir/micro/target/STM32F4xx_HAL_Driver/Src/stm32f4xx_hal_gpio.c.obj
 .debug_ranges  0x00000220      0x298 CMakeFiles/build.elf.dir/micro/target/STM32F4xx_HAL_Driver/Src/stm32f4xx_hal_i2c.c.obj
 .debug_ranges  0x000004b8       0xf8 CMakeFiles/build.elf.dir/micro/target/STM32F4xx_HAL_Driver/Src/stm32f4xx_hal_i2s.c.obj
 .debug_ranges  0x000005b0       0x90 CMakeFiles/build.elf.dir/micro/target/STM32F4xx_HAL_Driver/Src/stm32f4xx_hal_i2s_ex.c.obj
 .debug_ranges  0x00000640       0x90 CMakeFiles/build.elf.dir/micro/target/STM32F4xx_HAL_Driver/Src/stm32f4xx_hal_rcc.c.obj
 .debug_ranges  0x000006d0       0x38 CMakeFiles/build.elf.dir/micro/target/STM32F4xx_HAL_Driver/Src/stm32f4xx_hal_rcc_ex.c.obj
 .debug_ranges  0x00000708      0x1c0 CMakeFiles/build.elf.dir/micro/target/STM32F4xx_HAL_Driver/Src/stm32f4xx_hal_spi.c.obj
 .debug_ranges  0x000008c8       0x40 CMakeFiles/build.elf.dir/src/main.c.obj
 .debug_ranges  0x00000908       0x20 CMakeFiles/build.elf.dir/src/startup_stm32f407xx.s.obj
 .debug_ranges  0x00000928       0x40 CMakeFiles/build.elf.dir/src/stm32f4xx_hal_msp.c.obj
 .debug_ranges  0x00000968       0x58 CMakeFiles/build.elf.dir/src/stm32f4xx_it.c.obj
 .debug_ranges  0x000009c0       0x18 CMakeFiles/build.elf.dir/src/system_stm32f4xx.c.obj

.debug_macro    0x00000000    0x25f53
 .debug_macro   0x00000000      0x3fe CMakeFiles/build.elf.dir/micro/target/STM32F4xx_HAL_Driver/Src/stm32f4xx_hal.c.obj
 .debug_macro   0x000003fe      0xaa8 CMakeFiles/build.elf.dir/micro/target/STM32F4xx_HAL_Driver/Src/stm32f4xx_hal.c.obj
 .debug_macro   0x00000ea6      0x276 CMakeFiles/build.elf.dir/micro/target/STM32F4xx_HAL_Driver/Src/stm32f4xx_hal.c.obj
 .debug_macro   0x0000111c       0x32 CMakeFiles/build.elf.dir/micro/target/STM32F4xx_HAL_Driver/Src/stm32f4xx_hal.c.obj
 .debug_macro   0x0000114e       0x2f CMakeFiles/build.elf.dir/micro/target/STM32F4xx_HAL_Driver/Src/stm32f4xx_hal.c.obj
 .debug_macro   0x0000117d      0x34e CMakeFiles/build.elf.dir/micro/target/STM32F4xx_HAL_Driver/Src/stm32f4xx_hal.c.obj
 .debug_macro   0x000014cb       0x1c CMakeFiles/build.elf.dir/micro/target/STM32F4xx_HAL_Driver/Src/stm32f4xx_hal.c.obj
 .debug_macro   0x000014e7       0x22 CMakeFiles/build.elf.dir/micro/target/STM32F4xx_HAL_Driver/Src/stm32f4xx_hal.c.obj
 .debug_macro   0x00001509       0xdf CMakeFiles/build.elf.dir/micro/target/STM32F4xx_HAL_Driver/Src/stm32f4xx_hal.c.obj
 .debug_macro   0x000015e8     0x102d CMakeFiles/build.elf.dir/micro/target/STM32F4xx_HAL_Driver/Src/stm32f4xx_hal.c.obj
 .debug_macro   0x00002615      0x11f CMakeFiles/build.elf.dir/micro/target/STM32F4xx_HAL_Driver/Src/stm32f4xx_hal.c.obj
 .debug_macro   0x00002734    0x15e43 CMakeFiles/build.elf.dir/micro/target/STM32F4xx_HAL_Driver/Src/stm32f4xx_hal.c.obj
 .debug_macro   0x00018577       0x43 CMakeFiles/build.elf.dir/micro/target/STM32F4xx_HAL_Driver/Src/stm32f4xx_hal.c.obj
 .debug_macro   0x000185ba     0x35d4 CMakeFiles/build.elf.dir/micro/target/STM32F4xx_HAL_Driver/Src/stm32f4xx_hal.c.obj
 .debug_macro   0x0001bb8e      0x174 CMakeFiles/build.elf.dir/micro/target/STM32F4xx_HAL_Driver/Src/stm32f4xx_hal.c.obj
 .debug_macro   0x0001bd02       0x5a CMakeFiles/build.elf.dir/micro/target/STM32F4xx_HAL_Driver/Src/stm32f4xx_hal.c.obj
 .debug_macro   0x0001bd5c      0x96b CMakeFiles/build.elf.dir/micro/target/STM32F4xx_HAL_Driver/Src/stm32f4xx_hal.c.obj
 .debug_macro   0x0001c6c7      0x9fe CMakeFiles/build.elf.dir/micro/target/STM32F4xx_HAL_Driver/Src/stm32f4xx_hal.c.obj
 .debug_macro   0x0001d0c5       0xed CMakeFiles/build.elf.dir/micro/target/STM32F4xx_HAL_Driver/Src/stm32f4xx_hal.c.obj
 .debug_macro   0x0001d1b2      0x117 CMakeFiles/build.elf.dir/micro/target/STM32F4xx_HAL_Driver/Src/stm32f4xx_hal.c.obj
 .debug_macro   0x0001d2c9      0x13e CMakeFiles/build.elf.dir/micro/target/STM32F4xx_HAL_Driver/Src/stm32f4xx_hal.c.obj
 .debug_macro   0x0001d407       0x27 CMakeFiles/build.elf.dir/micro/target/STM32F4xx_HAL_Driver/Src/stm32f4xx_hal.c.obj
 .debug_macro   0x0001d42e      0x287 CMakeFiles/build.elf.dir/micro/target/STM32F4xx_HAL_Driver/Src/stm32f4xx_hal.c.obj
 .debug_macro   0x0001d6b5       0x5f CMakeFiles/build.elf.dir/micro/target/STM32F4xx_HAL_Driver/Src/stm32f4xx_hal.c.obj
 .debug_macro   0x0001d714      0x236 CMakeFiles/build.elf.dir/micro/target/STM32F4xx_HAL_Driver/Src/stm32f4xx_hal.c.obj
 .debug_macro   0x0001d94a      0x391 CMakeFiles/build.elf.dir/micro/target/STM32F4xx_HAL_Driver/Src/stm32f4xx_hal.c.obj
 .debug_macro   0x0001dcdb      0x176 CMakeFiles/build.elf.dir/micro/target/STM32F4xx_HAL_Driver/Src/stm32f4xx_hal.c.obj
 .debug_macro   0x0001de51       0xf9 CMakeFiles/build.elf.dir/micro/target/STM32F4xx_HAL_Driver/Src/stm32f4xx_hal.c.obj
 .debug_macro   0x0001df4a      0x40f CMakeFiles/build.elf.dir/micro/target/STM32F4xx_HAL_Driver/Src/stm32f4xx_hal.c.obj
 .debug_macro   0x0001e359       0x22 CMakeFiles/build.elf.dir/micro/target/STM32F4xx_HAL_Driver/Src/stm32f4xx_hal.c.obj
 .debug_macro   0x0001e37b       0xea CMakeFiles/build.elf.dir/micro/target/STM32F4xx_HAL_Driver/Src/stm32f4xx_hal.c.obj
 .debug_macro   0x0001e465       0xa0 CMakeFiles/build.elf.dir/micro/target/STM32F4xx_HAL_Driver/Src/stm32f4xx_hal.c.obj
 .debug_macro   0x0001e505       0x3c CMakeFiles/build.elf.dir/micro/target/STM32F4xx_HAL_Driver/Src/stm32f4xx_hal.c.obj
 .debug_macro   0x0001e541       0x1f CMakeFiles/build.elf.dir/micro/target/STM32F4xx_HAL_Driver/Src/stm32f4xx_hal.c.obj
 .debug_macro   0x0001e560      0x1d0 CMakeFiles/build.elf.dir/micro/target/STM32F4xx_HAL_Driver/Src/stm32f4xx_hal.c.obj
 .debug_macro   0x0001e730      0xccf CMakeFiles/build.elf.dir/micro/target/STM32F4xx_HAL_Driver/Src/stm32f4xx_hal.c.obj
 .debug_macro   0x0001f3ff      0x12c CMakeFiles/build.elf.dir/micro/target/STM32F4xx_HAL_Driver/Src/stm32f4xx_hal.c.obj
 .debug_macro   0x0001f52b      0x21e CMakeFiles/build.elf.dir/micro/target/STM32F4xx_HAL_Driver/Src/stm32f4xx_hal.c.obj
 .debug_macro   0x0001f749       0x2e CMakeFiles/build.elf.dir/micro/target/STM32F4xx_HAL_Driver/Src/stm32f4xx_hal.c.obj
 .debug_macro   0x0001f777      0x543 CMakeFiles/build.elf.dir/micro/target/STM32F4xx_HAL_Driver/Src/stm32f4xx_hal.c.obj
 .debug_macro   0x0001fcba       0x88 CMakeFiles/build.elf.dir/micro/target/STM32F4xx_HAL_Driver/Src/stm32f4xx_hal.c.obj
 .debug_macro   0x0001fd42       0xea CMakeFiles/build.elf.dir/micro/target/STM32F4xx_HAL_Driver/Src/stm32f4xx_hal.c.obj
 .debug_macro   0x0001fe2c      0x184 CMakeFiles/build.elf.dir/micro/target/STM32F4xx_HAL_Driver/Src/stm32f4xx_hal.c.obj
 .debug_macro   0x0001ffb0      0x1ae CMakeFiles/build.elf.dir/micro/target/STM32F4xx_HAL_Driver/Src/stm32f4xx_hal.c.obj
 .debug_macro   0x0002015e       0xd6 CMakeFiles/build.elf.dir/micro/target/STM32F4xx_HAL_Driver/Src/stm32f4xx_hal.c.obj
 .debug_macro   0x00020234      0x199 CMakeFiles/build.elf.dir/micro/target/STM32F4xx_HAL_Driver/Src/stm32f4xx_hal.c.obj
 .debug_macro   0x000203cd       0x40 CMakeFiles/build.elf.dir/micro/target/STM32F4xx_HAL_Driver/Src/stm32f4xx_hal.c.obj
 .debug_macro   0x0002040d       0x4a CMakeFiles/build.elf.dir/micro/target/STM32F4xx_HAL_Driver/Src/stm32f4xx_hal.c.obj
 .debug_macro   0x00020457       0x78 CMakeFiles/build.elf.dir/micro/target/STM32F4xx_HAL_Driver/Src/stm32f4xx_hal.c.obj
 .debug_macro   0x000204cf      0x11a CMakeFiles/build.elf.dir/micro/target/STM32F4xx_HAL_Driver/Src/stm32f4xx_hal.c.obj
 .debug_macro   0x000205e9       0x7e CMakeFiles/build.elf.dir/micro/target/STM32F4xx_HAL_Driver/Src/stm32f4xx_hal.c.obj
 .debug_macro   0x00020667       0x89 CMakeFiles/build.elf.dir/micro/target/STM32F4xx_HAL_Driver/Src/stm32f4xx_hal.c.obj
 .debug_macro   0x000206f0       0xa4 CMakeFiles/build.elf.dir/micro/target/STM32F4xx_HAL_Driver/Src/stm32f4xx_hal.c.obj
 .debug_macro   0x00020794      0x31a CMakeFiles/build.elf.dir/micro/target/STM32F4xx_HAL_Driver/Src/stm32f4xx_hal.c.obj
 .debug_macro   0x00020aae      0x405 CMakeFiles/build.elf.dir/micro/target/STM32F4xx_HAL_Driver/Src/stm32f4xx_hal.c.obj
 .debug_macro   0x00020eb3       0xe4 CMakeFiles/build.elf.dir/micro/target/STM32F4xx_HAL_Driver/Src/stm32f4xx_hal.c.obj
 .debug_macro   0x00020f97      0x845 CMakeFiles/build.elf.dir/micro/target/STM32F4xx_HAL_Driver/Src/stm32f4xx_hal.c.obj
 .debug_macro   0x000217dc      0x19f CMakeFiles/build.elf.dir/micro/target/STM32F4xx_HAL_Driver/Src/stm32f4xx_hal.c.obj
 .debug_macro   0x0002197b      0x1ba CMakeFiles/build.elf.dir/micro/target/STM32F4xx_HAL_Driver/Src/stm32f4xx_hal.c.obj
 .debug_macro   0x00021b35      0x225 CMakeFiles/build.elf.dir/micro/target/STM32F4xx_HAL_Driver/Src/stm32f4xx_hal.c.obj
 .debug_macro   0x00021d5a      0x87d CMakeFiles/build.elf.dir/micro/target/STM32F4xx_HAL_Driver/Src/stm32f4xx_hal.c.obj
 .debug_macro   0x000225d7       0x47 CMakeFiles/build.elf.dir/micro/target/STM32F4xx_HAL_Driver/Src/stm32f4xx_hal.c.obj
 .debug_macro   0x0002261e      0x287 CMakeFiles/build.elf.dir/micro/target/STM32F4xx_HAL_Driver/Src/stm32f4xx_hal.c.obj
 .debug_macro   0x000228a5      0x217 CMakeFiles/build.elf.dir/micro/target/STM32F4xx_HAL_Driver/Src/stm32f4xx_hal.c.obj
 .debug_macro   0x00022abc      0x1b5 CMakeFiles/build.elf.dir/micro/target/STM32F4xx_HAL_Driver/Src/stm32f4xx_hal.c.obj
 .debug_macro   0x00022c71      0x2db CMakeFiles/build.elf.dir/micro/target/STM32F4xx_HAL_Driver/Src/stm32f4xx_hal.c.obj
 .debug_macro   0x00022f4c       0x8d CMakeFiles/build.elf.dir/micro/target/STM32F4xx_HAL_Driver/Src/stm32f4xx_hal.c.obj
 .debug_macro   0x00022fd9      0x225 CMakeFiles/build.elf.dir/micro/target/STM32F4xx_HAL_Driver/Src/stm32f4xx_hal.c.obj
 .debug_macro   0x000231fe       0xe4 CMakeFiles/build.elf.dir/micro/target/STM32F4xx_HAL_Driver/Src/stm32f4xx_hal.c.obj
 .debug_macro   0x000232e2       0x6e CMakeFiles/build.elf.dir/micro/target/STM32F4xx_HAL_Driver/Src/stm32f4xx_hal.c.obj
 .debug_macro   0x00023350      0x12d CMakeFiles/build.elf.dir/micro/target/STM32F4xx_HAL_Driver/Src/stm32f4xx_hal.c.obj
 .debug_macro   0x0002347d      0x39e CMakeFiles/build.elf.dir/micro/target/STM32F4xx_HAL_Driver/Src/stm32f4xx_hal_cortex.c.obj
 .debug_macro   0x0002381b      0x3d4 CMakeFiles/build.elf.dir/micro/target/STM32F4xx_HAL_Driver/Src/stm32f4xx_hal_gpio.c.obj
 .debug_macro   0x00023bef      0x3de CMakeFiles/build.elf.dir/micro/target/STM32F4xx_HAL_Driver/Src/stm32f4xx_hal_i2c.c.obj
 .debug_macro   0x00023fcd      0x39f CMakeFiles/build.elf.dir/micro/target/STM32F4xx_HAL_Driver/Src/stm32f4xx_hal_i2s.c.obj
 .debug_macro   0x0002436c      0x39e CMakeFiles/build.elf.dir/micro/target/STM32F4xx_HAL_Driver/Src/stm32f4xx_hal_i2s_ex.c.obj
 .debug_macro   0x0002470a      0x3c2 CMakeFiles/build.elf.dir/micro/target/STM32F4xx_HAL_Driver/Src/stm32f4xx_hal_rcc.c.obj
 .debug_macro   0x00024acc      0x39e CMakeFiles/build.elf.dir/micro/target/STM32F4xx_HAL_Driver/Src/stm32f4xx_hal_rcc_ex.c.obj
 .debug_macro   0x00024e6a      0x3ad CMakeFiles/build.elf.dir/micro/target/STM32F4xx_HAL_Driver/Src/stm32f4xx_hal_spi.c.obj
 .debug_macro   0x00025217      0x3ad CMakeFiles/build.elf.dir/src/main.c.obj
 .debug_macro   0x000255c4      0x190 CMakeFiles/build.elf.dir/src/main.c.obj
 .debug_macro   0x00025754      0x3ad CMakeFiles/build.elf.dir/src/stm32f4xx_hal_msp.c.obj
 .debug_macro   0x00025b01      0x3b7 CMakeFiles/build.elf.dir/src/stm32f4xx_it.c.obj
 .debug_macro   0x00025eb8       0x9b CMakeFiles/build.elf.dir/src/system_stm32f4xx.c.obj

.debug_line     0x00000000    0x118cf
 .debug_line    0x00000000      0xbd8 CMakeFiles/build.elf.dir/micro/target/STM32F4xx_HAL_Driver/Src/stm32f4xx_hal.c.obj
 .debug_line    0x00000bd8      0xe2e CMakeFiles/build.elf.dir/micro/target/STM32F4xx_HAL_Driver/Src/stm32f4xx_hal_cortex.c.obj
 .debug_line    0x00001a06      0xda9 CMakeFiles/build.elf.dir/micro/target/STM32F4xx_HAL_Driver/Src/stm32f4xx_hal_gpio.c.obj
 .debug_line    0x000027af     0x548f CMakeFiles/build.elf.dir/micro/target/STM32F4xx_HAL_Driver/Src/stm32f4xx_hal_i2c.c.obj
 .debug_line    0x00007c3e     0x1876 CMakeFiles/build.elf.dir/micro/target/STM32F4xx_HAL_Driver/Src/stm32f4xx_hal_i2s.c.obj
 .debug_line    0x000094b4     0x1821 CMakeFiles/build.elf.dir/micro/target/STM32F4xx_HAL_Driver/Src/stm32f4xx_hal_i2s_ex.c.obj
 .debug_line    0x0000acd5     0x1133 CMakeFiles/build.elf.dir/micro/target/STM32F4xx_HAL_Driver/Src/stm32f4xx_hal_rcc.c.obj
 .debug_line    0x0000be08      0xc8e CMakeFiles/build.elf.dir/micro/target/STM32F4xx_HAL_Driver/Src/stm32f4xx_hal_rcc_ex.c.obj
 .debug_line    0x0000ca96     0x2ac7 CMakeFiles/build.elf.dir/micro/target/STM32F4xx_HAL_Driver/Src/stm32f4xx_hal_spi.c.obj
 .debug_line    0x0000f55d      0xc35 CMakeFiles/build.elf.dir/src/main.c.obj
 .debug_line    0x00010192       0x7b CMakeFiles/build.elf.dir/src/startup_stm32f407xx.s.obj
 .debug_line    0x0001020d      0xa95 CMakeFiles/build.elf.dir/src/stm32f4xx_hal_msp.c.obj
 .debug_line    0x00010ca2      0x982 CMakeFiles/build.elf.dir/src/stm32f4xx_it.c.obj
 .debug_line    0x00011624      0x2ab CMakeFiles/build.elf.dir/src/system_stm32f4xx.c.obj

.debug_str      0x00000000    0xef435
 .debug_str     0x00000000    0xec0b7 CMakeFiles/build.elf.dir/micro/target/STM32F4xx_HAL_Driver/Src/stm32f4xx_hal.c.obj
                              0xec424 (size before relaxing)
 .debug_str     0x000ec0b7      0x3ad CMakeFiles/build.elf.dir/micro/target/STM32F4xx_HAL_Driver/Src/stm32f4xx_hal_cortex.c.obj
                              0xec15a (size before relaxing)
 .debug_str     0x000ec464      0x28f CMakeFiles/build.elf.dir/micro/target/STM32F4xx_HAL_Driver/Src/stm32f4xx_hal_gpio.c.obj
                              0xebad2 (size before relaxing)
 .debug_str     0x000ec6f3      0xf5c CMakeFiles/build.elf.dir/micro/target/STM32F4xx_HAL_Driver/Src/stm32f4xx_hal_i2c.c.obj
                              0xec819 (size before relaxing)
 .debug_str     0x000ed64f      0x44e CMakeFiles/build.elf.dir/micro/target/STM32F4xx_HAL_Driver/Src/stm32f4xx_hal_i2s.c.obj
                              0xebe77 (size before relaxing)
 .debug_str     0x000eda9d      0x1f6 CMakeFiles/build.elf.dir/micro/target/STM32F4xx_HAL_Driver/Src/stm32f4xx_hal_i2s_ex.c.obj
                              0xebdb8 (size before relaxing)
 .debug_str     0x000edc93      0x367 CMakeFiles/build.elf.dir/micro/target/STM32F4xx_HAL_Driver/Src/stm32f4xx_hal_rcc.c.obj
                              0xebc91 (size before relaxing)
 .debug_str     0x000edffa      0x163 CMakeFiles/build.elf.dir/micro/target/STM32F4xx_HAL_Driver/Src/stm32f4xx_hal_rcc_ex.c.obj
                              0xeb9ec (size before relaxing)
 .debug_str     0x000ee15d      0x696 CMakeFiles/build.elf.dir/micro/target/STM32F4xx_HAL_Driver/Src/stm32f4xx_hal_spi.c.obj
                              0xec13d (size before relaxing)
 .debug_str     0x000ee7f3      0x70e CMakeFiles/build.elf.dir/src/main.c.obj
                              0xec9be (size before relaxing)
 .debug_str     0x000eef01       0x2b CMakeFiles/build.elf.dir/src/startup_stm32f407xx.s.obj
                                 0x48 (size before relaxing)
 .debug_str     0x000eef2c       0x1b CMakeFiles/build.elf.dir/src/stm32f4xx_hal_msp.c.obj
                              0xec78c (size before relaxing)
 .debug_str     0x000eef47      0x475 CMakeFiles/build.elf.dir/src/stm32f4xx_it.c.obj
                              0xec229 (size before relaxing)
 .debug_str     0x000ef3bc       0x79 CMakeFiles/build.elf.dir/src/system_stm32f4xx.c.obj
                              0x87931 (size before relaxing)

.comment        0x00000000       0x79
 .comment       0x00000000       0x79 CMakeFiles/build.elf.dir/micro/target/STM32F4xx_HAL_Driver/Src/stm32f4xx_hal.c.obj
                                 0x7a (size before relaxing)
 .comment       0x00000079       0x7a CMakeFiles/build.elf.dir/micro/target/STM32F4xx_HAL_Driver/Src/stm32f4xx_hal_cortex.c.obj
 .comment       0x00000079       0x7a CMakeFiles/build.elf.dir/micro/target/STM32F4xx_HAL_Driver/Src/stm32f4xx_hal_gpio.c.obj
 .comment       0x00000079       0x7a CMakeFiles/build.elf.dir/micro/target/STM32F4xx_HAL_Driver/Src/stm32f4xx_hal_i2c.c.obj
 .comment       0x00000079       0x7a CMakeFiles/build.elf.dir/micro/target/STM32F4xx_HAL_Driver/Src/stm32f4xx_hal_i2s.c.obj
 .comment       0x00000079       0x7a CMakeFiles/build.elf.dir/micro/target/STM32F4xx_HAL_Driver/Src/stm32f4xx_hal_i2s_ex.c.obj
 .comment       0x00000079       0x7a CMakeFiles/build.elf.dir/micro/target/STM32F4xx_HAL_Driver/Src/stm32f4xx_hal_rcc.c.obj
 .comment       0x00000079       0x7a CMakeFiles/build.elf.dir/micro/target/STM32F4xx_HAL_Driver/Src/stm32f4xx_hal_rcc_ex.c.obj
 .comment       0x00000079       0x7a CMakeFiles/build.elf.dir/micro/target/STM32F4xx_HAL_Driver/Src/stm32f4xx_hal_spi.c.obj
 .comment       0x00000079       0x7a CMakeFiles/build.elf.dir/src/main.c.obj
 .comment       0x00000079       0x7a CMakeFiles/build.elf.dir/src/stm32f4xx_hal_msp.c.obj
 .comment       0x00000079       0x7a CMakeFiles/build.elf.dir/src/stm32f4xx_it.c.obj
 .comment       0x00000079       0x7a CMakeFiles/build.elf.dir/src/system_stm32f4xx.c.obj

Cross Reference Table

Symbol                                            File
ADC_IRQHandler                                    CMakeFiles/build.elf.dir/src/startup_stm32f407xx.s.obj
AHBPrescTable                                     CMakeFiles/build.elf.dir/src/system_stm32f4xx.c.obj
                                                  CMakeFiles/build.elf.dir/micro/target/STM32F4xx_HAL_Driver/Src/stm32f4xx_ll_utils.c.obj
                                                  CMakeFiles/build.elf.dir/micro/target/STM32F4xx_HAL_Driver/Src/stm32f4xx_hal_rcc.c.obj
APBPrescTable                                     CMakeFiles/build.elf.dir/src/system_stm32f4xx.c.obj
                                                  CMakeFiles/build.elf.dir/micro/target/STM32F4xx_HAL_Driver/Src/stm32f4xx_hal_rcc.c.obj
BusFault_Handler                                  CMakeFiles/build.elf.dir/src/stm32f4xx_it.c.obj
                                                  CMakeFiles/build.elf.dir/src/startup_stm32f407xx.s.obj
CAN1_RX0_IRQHandler                               CMakeFiles/build.elf.dir/src/startup_stm32f407xx.s.obj
CAN1_RX1_IRQHandler                               CMakeFiles/build.elf.dir/src/startup_stm32f407xx.s.obj
CAN1_SCE_IRQHandler                               CMakeFiles/build.elf.dir/src/startup_stm32f407xx.s.obj
CAN1_TX_IRQHandler                                CMakeFiles/build.elf.dir/src/startup_stm32f407xx.s.obj
CAN2_RX0_IRQHandler                               CMakeFiles/build.elf.dir/src/startup_stm32f407xx.s.obj
CAN2_RX1_IRQHandler                               CMakeFiles/build.elf.dir/src/startup_stm32f407xx.s.obj
CAN2_SCE_IRQHandler                               CMakeFiles/build.elf.dir/src/startup_stm32f407xx.s.obj
CAN2_TX_IRQHandler                                CMakeFiles/build.elf.dir/src/startup_stm32f407xx.s.obj
DAC_DMAConvCpltCh2                                CMakeFiles/build.elf.dir/micro/target/STM32F4xx_HAL_Driver/Src/stm32f4xx_hal_dac_ex.c.obj
                                                  CMakeFiles/build.elf.dir/micro/target/STM32F4xx_HAL_Driver/Src/stm32f4xx_hal_dac.c.obj
DAC_DMAErrorCh2                                   CMakeFiles/build.elf.dir/micro/target/STM32F4xx_HAL_Driver/Src/stm32f4xx_hal_dac_ex.c.obj
                                                  CMakeFiles/build.elf.dir/micro/target/STM32F4xx_HAL_Driver/Src/stm32f4xx_hal_dac.c.obj
DAC_DMAHalfConvCpltCh2                            CMakeFiles/build.elf.dir/micro/target/STM32F4xx_HAL_Driver/Src/stm32f4xx_hal_dac_ex.c.obj
                                                  CMakeFiles/build.elf.dir/micro/target/STM32F4xx_HAL_Driver/Src/stm32f4xx_hal_dac.c.obj
DCMI_IRQHandler                                   CMakeFiles/build.elf.dir/src/startup_stm32f407xx.s.obj
DMA1_Stream0_IRQHandler                           CMakeFiles/build.elf.dir/src/startup_stm32f407xx.s.obj
DMA1_Stream1_IRQHandler                           CMakeFiles/build.elf.dir/src/startup_stm32f407xx.s.obj
DMA1_Stream2_IRQHandler                           CMakeFiles/build.elf.dir/src/startup_stm32f407xx.s.obj
DMA1_Stream3_IRQHandler                           CMakeFiles/build.elf.dir/src/startup_stm32f407xx.s.obj
DMA1_Stream4_IRQHandler                           CMakeFiles/build.elf.dir/src/startup_stm32f407xx.s.obj
DMA1_Stream5_IRQHandler                           CMakeFiles/build.elf.dir/src/startup_stm32f407xx.s.obj
DMA1_Stream6_IRQHandler                           CMakeFiles/build.elf.dir/src/startup_stm32f407xx.s.obj
DMA1_Stream7_IRQHandler                           CMakeFiles/build.elf.dir/src/startup_stm32f407xx.s.obj
DMA2_Stream0_IRQHandler                           CMakeFiles/build.elf.dir/src/startup_stm32f407xx.s.obj
DMA2_Stream1_IRQHandler                           CMakeFiles/build.elf.dir/src/startup_stm32f407xx.s.obj
DMA2_Stream2_IRQHandler                           CMakeFiles/build.elf.dir/src/startup_stm32f407xx.s.obj
DMA2_Stream3_IRQHandler                           CMakeFiles/build.elf.dir/src/startup_stm32f407xx.s.obj
DMA2_Stream4_IRQHandler                           CMakeFiles/build.elf.dir/src/startup_stm32f407xx.s.obj
DMA2_Stream5_IRQHandler                           CMakeFiles/build.elf.dir/src/startup_stm32f407xx.s.obj
DMA2_Stream6_IRQHandler                           CMakeFiles/build.elf.dir/src/startup_stm32f407xx.s.obj
DMA2_Stream7_IRQHandler                           CMakeFiles/build.elf.dir/src/startup_stm32f407xx.s.obj
DebugMon_Handler                                  CMakeFiles/build.elf.dir/src/stm32f4xx_it.c.obj
                                                  CMakeFiles/build.elf.dir/src/startup_stm32f407xx.s.obj
Default_Handler                                   CMakeFiles/build.elf.dir/src/startup_stm32f407xx.s.obj
ETH_IRQHandler                                    CMakeFiles/build.elf.dir/src/startup_stm32f407xx.s.obj
ETH_WKUP_IRQHandler                               CMakeFiles/build.elf.dir/src/startup_stm32f407xx.s.obj
EXTI0_IRQHandler                                  CMakeFiles/build.elf.dir/src/startup_stm32f407xx.s.obj
EXTI15_10_IRQHandler                              CMakeFiles/build.elf.dir/src/startup_stm32f407xx.s.obj
EXTI1_IRQHandler                                  CMakeFiles/build.elf.dir/src/startup_stm32f407xx.s.obj
EXTI2_IRQHandler                                  CMakeFiles/build.elf.dir/src/startup_stm32f407xx.s.obj
EXTI3_IRQHandler                                  CMakeFiles/build.elf.dir/src/startup_stm32f407xx.s.obj
EXTI4_IRQHandler                                  CMakeFiles/build.elf.dir/src/startup_stm32f407xx.s.obj
EXTI9_5_IRQHandler                                CMakeFiles/build.elf.dir/src/startup_stm32f407xx.s.obj
Error_Handler                                     CMakeFiles/build.elf.dir/src/main.c.obj
FLASH_Erase_Sector                                CMakeFiles/build.elf.dir/micro/target/STM32F4xx_HAL_Driver/Src/stm32f4xx_hal_flash_ex.c.obj
                                                  CMakeFiles/build.elf.dir/micro/target/STM32F4xx_HAL_Driver/Src/stm32f4xx_hal_flash.c.obj
FLASH_FlushCaches                                 CMakeFiles/build.elf.dir/micro/target/STM32F4xx_HAL_Driver/Src/stm32f4xx_hal_flash_ex.c.obj
                                                  CMakeFiles/build.elf.dir/micro/target/STM32F4xx_HAL_Driver/Src/stm32f4xx_hal_flash.c.obj
FLASH_IRQHandler                                  CMakeFiles/build.elf.dir/src/startup_stm32f407xx.s.obj
FLASH_WaitForLastOperation                        CMakeFiles/build.elf.dir/micro/target/STM32F4xx_HAL_Driver/Src/stm32f4xx_hal_flash.c.obj
                                                  CMakeFiles/build.elf.dir/micro/target/STM32F4xx_HAL_Driver/Src/stm32f4xx_hal_flash_ex.c.obj
FPU_IRQHandler                                    CMakeFiles/build.elf.dir/src/startup_stm32f407xx.s.obj
FSMC_IRQHandler                                   CMakeFiles/build.elf.dir/src/startup_stm32f407xx.s.obj
FSMC_NAND_AttributeSpace_Timing_Init              CMakeFiles/build.elf.dir/micro/target/STM32F4xx_HAL_Driver/Src/stm32f4xx_ll_fsmc.c.obj
                                                  CMakeFiles/build.elf.dir/micro/target/STM32F4xx_HAL_Driver/Src/stm32f4xx_hal_nand.c.obj
FSMC_NAND_CommonSpace_Timing_Init                 CMakeFiles/build.elf.dir/micro/target/STM32F4xx_HAL_Driver/Src/stm32f4xx_ll_fsmc.c.obj
                                                  CMakeFiles/build.elf.dir/micro/target/STM32F4xx_HAL_Driver/Src/stm32f4xx_hal_nand.c.obj
FSMC_NAND_DeInit                                  CMakeFiles/build.elf.dir/micro/target/STM32F4xx_HAL_Driver/Src/stm32f4xx_ll_fsmc.c.obj
                                                  CMakeFiles/build.elf.dir/micro/target/STM32F4xx_HAL_Driver/Src/stm32f4xx_hal_nand.c.obj
FSMC_NAND_ECC_Disable                             CMakeFiles/build.elf.dir/micro/target/STM32F4xx_HAL_Driver/Src/stm32f4xx_ll_fsmc.c.obj
                                                  CMakeFiles/build.elf.dir/micro/target/STM32F4xx_HAL_Driver/Src/stm32f4xx_hal_nand.c.obj
FSMC_NAND_ECC_Enable                              CMakeFiles/build.elf.dir/micro/target/STM32F4xx_HAL_Driver/Src/stm32f4xx_ll_fsmc.c.obj
                                                  CMakeFiles/build.elf.dir/micro/target/STM32F4xx_HAL_Driver/Src/stm32f4xx_hal_nand.c.obj
FSMC_NAND_GetECC                                  CMakeFiles/build.elf.dir/micro/target/STM32F4xx_HAL_Driver/Src/stm32f4xx_ll_fsmc.c.obj
                                                  CMakeFiles/build.elf.dir/micro/target/STM32F4xx_HAL_Driver/Src/stm32f4xx_hal_nand.c.obj
FSMC_NAND_Init                                    CMakeFiles/build.elf.dir/micro/target/STM32F4xx_HAL_Driver/Src/stm32f4xx_ll_fsmc.c.obj
                                                  CMakeFiles/build.elf.dir/micro/target/STM32F4xx_HAL_Driver/Src/stm32f4xx_hal_nand.c.obj
FSMC_NORSRAM_DeInit                               CMakeFiles/build.elf.dir/micro/target/STM32F4xx_HAL_Driver/Src/stm32f4xx_ll_fsmc.c.obj
                                                  CMakeFiles/build.elf.dir/micro/target/STM32F4xx_HAL_Driver/Src/stm32f4xx_hal_sram.c.obj
                                                  CMakeFiles/build.elf.dir/micro/target/STM32F4xx_HAL_Driver/Src/stm32f4xx_hal_nor.c.obj
FSMC_NORSRAM_Extended_Timing_Init                 CMakeFiles/build.elf.dir/micro/target/STM32F4xx_HAL_Driver/Src/stm32f4xx_ll_fsmc.c.obj
                                                  CMakeFiles/build.elf.dir/micro/target/STM32F4xx_HAL_Driver/Src/stm32f4xx_hal_sram.c.obj
                                                  CMakeFiles/build.elf.dir/micro/target/STM32F4xx_HAL_Driver/Src/stm32f4xx_hal_nor.c.obj
FSMC_NORSRAM_Init                                 CMakeFiles/build.elf.dir/micro/target/STM32F4xx_HAL_Driver/Src/stm32f4xx_ll_fsmc.c.obj
                                                  CMakeFiles/build.elf.dir/micro/target/STM32F4xx_HAL_Driver/Src/stm32f4xx_hal_sram.c.obj
                                                  CMakeFiles/build.elf.dir/micro/target/STM32F4xx_HAL_Driver/Src/stm32f4xx_hal_nor.c.obj
FSMC_NORSRAM_Timing_Init                          CMakeFiles/build.elf.dir/micro/target/STM32F4xx_HAL_Driver/Src/stm32f4xx_ll_fsmc.c.obj
                                                  CMakeFiles/build.elf.dir/micro/target/STM32F4xx_HAL_Driver/Src/stm32f4xx_hal_sram.c.obj
                                                  CMakeFiles/build.elf.dir/micro/target/STM32F4xx_HAL_Driver/Src/stm32f4xx_hal_nor.c.obj
FSMC_NORSRAM_WriteOperation_Disable               CMakeFiles/build.elf.dir/micro/target/STM32F4xx_HAL_Driver/Src/stm32f4xx_ll_fsmc.c.obj
                                                  CMakeFiles/build.elf.dir/micro/target/STM32F4xx_HAL_Driver/Src/stm32f4xx_hal_sram.c.obj
                                                  CMakeFiles/build.elf.dir/micro/target/STM32F4xx_HAL_Driver/Src/stm32f4xx_hal_nor.c.obj
FSMC_NORSRAM_WriteOperation_Enable                CMakeFiles/build.elf.dir/micro/target/STM32F4xx_HAL_Driver/Src/stm32f4xx_ll_fsmc.c.obj
                                                  CMakeFiles/build.elf.dir/micro/target/STM32F4xx_HAL_Driver/Src/stm32f4xx_hal_sram.c.obj
                                                  CMakeFiles/build.elf.dir/micro/target/STM32F4xx_HAL_Driver/Src/stm32f4xx_hal_nor.c.obj
FSMC_PCCARD_AttributeSpace_Timing_Init            CMakeFiles/build.elf.dir/micro/target/STM32F4xx_HAL_Driver/Src/stm32f4xx_ll_fsmc.c.obj
                                                  CMakeFiles/build.elf.dir/micro/target/STM32F4xx_HAL_Driver/Src/stm32f4xx_hal_pccard.c.obj
FSMC_PCCARD_CommonSpace_Timing_Init               CMakeFiles/build.elf.dir/micro/target/STM32F4xx_HAL_Driver/Src/stm32f4xx_ll_fsmc.c.obj
                                                  CMakeFiles/build.elf.dir/micro/target/STM32F4xx_HAL_Driver/Src/stm32f4xx_hal_pccard.c.obj
FSMC_PCCARD_DeInit                                CMakeFiles/build.elf.dir/micro/target/STM32F4xx_HAL_Driver/Src/stm32f4xx_ll_fsmc.c.obj
                                                  CMakeFiles/build.elf.dir/micro/target/STM32F4xx_HAL_Driver/Src/stm32f4xx_hal_pccard.c.obj
FSMC_PCCARD_IOSpace_Timing_Init                   CMakeFiles/build.elf.dir/micro/target/STM32F4xx_HAL_Driver/Src/stm32f4xx_ll_fsmc.c.obj
                                                  CMakeFiles/build.elf.dir/micro/target/STM32F4xx_HAL_Driver/Src/stm32f4xx_hal_pccard.c.obj
FSMC_PCCARD_Init                                  CMakeFiles/build.elf.dir/micro/target/STM32F4xx_HAL_Driver/Src/stm32f4xx_ll_fsmc.c.obj
                                                  CMakeFiles/build.elf.dir/micro/target/STM32F4xx_HAL_Driver/Src/stm32f4xx_hal_pccard.c.obj
HAL_ADCEx_InjectedConfigChannel                   CMakeFiles/build.elf.dir/micro/target/STM32F4xx_HAL_Driver/Src/stm32f4xx_hal_adc_ex.c.obj
HAL_ADCEx_InjectedConvCpltCallback                CMakeFiles/build.elf.dir/micro/target/STM32F4xx_HAL_Driver/Src/stm32f4xx_hal_adc_ex.c.obj
                                                  CMakeFiles/build.elf.dir/micro/target/STM32F4xx_HAL_Driver/Src/stm32f4xx_hal_adc.c.obj
HAL_ADCEx_InjectedGetValue                        CMakeFiles/build.elf.dir/micro/target/STM32F4xx_HAL_Driver/Src/stm32f4xx_hal_adc_ex.c.obj
HAL_ADCEx_InjectedPollForConversion               CMakeFiles/build.elf.dir/micro/target/STM32F4xx_HAL_Driver/Src/stm32f4xx_hal_adc_ex.c.obj
HAL_ADCEx_InjectedStart                           CMakeFiles/build.elf.dir/micro/target/STM32F4xx_HAL_Driver/Src/stm32f4xx_hal_adc_ex.c.obj
HAL_ADCEx_InjectedStart_IT                        CMakeFiles/build.elf.dir/micro/target/STM32F4xx_HAL_Driver/Src/stm32f4xx_hal_adc_ex.c.obj
HAL_ADCEx_InjectedStop                            CMakeFiles/build.elf.dir/micro/target/STM32F4xx_HAL_Driver/Src/stm32f4xx_hal_adc_ex.c.obj
HAL_ADCEx_InjectedStop_IT                         CMakeFiles/build.elf.dir/micro/target/STM32F4xx_HAL_Driver/Src/stm32f4xx_hal_adc_ex.c.obj
HAL_ADCEx_MultiModeConfigChannel                  CMakeFiles/build.elf.dir/micro/target/STM32F4xx_HAL_Driver/Src/stm32f4xx_hal_adc_ex.c.obj
HAL_ADCEx_MultiModeGetValue                       CMakeFiles/build.elf.dir/micro/target/STM32F4xx_HAL_Driver/Src/stm32f4xx_hal_adc_ex.c.obj
HAL_ADCEx_MultiModeStart_DMA                      CMakeFiles/build.elf.dir/micro/target/STM32F4xx_HAL_Driver/Src/stm32f4xx_hal_adc_ex.c.obj
HAL_ADCEx_MultiModeStop_DMA                       CMakeFiles/build.elf.dir/micro/target/STM32F4xx_HAL_Driver/Src/stm32f4xx_hal_adc_ex.c.obj
HAL_ADC_AnalogWDGConfig                           CMakeFiles/build.elf.dir/micro/target/STM32F4xx_HAL_Driver/Src/stm32f4xx_hal_adc.c.obj
HAL_ADC_ConfigChannel                             CMakeFiles/build.elf.dir/micro/target/STM32F4xx_HAL_Driver/Src/stm32f4xx_hal_adc.c.obj
HAL_ADC_ConvCpltCallback                          CMakeFiles/build.elf.dir/micro/target/STM32F4xx_HAL_Driver/Src/stm32f4xx_hal_adc.c.obj
                                                  CMakeFiles/build.elf.dir/micro/target/STM32F4xx_HAL_Driver/Src/stm32f4xx_hal_adc_ex.c.obj
HAL_ADC_ConvHalfCpltCallback                      CMakeFiles/build.elf.dir/micro/target/STM32F4xx_HAL_Driver/Src/stm32f4xx_hal_adc.c.obj
                                                  CMakeFiles/build.elf.dir/micro/target/STM32F4xx_HAL_Driver/Src/stm32f4xx_hal_adc_ex.c.obj
HAL_ADC_DeInit                                    CMakeFiles/build.elf.dir/micro/target/STM32F4xx_HAL_Driver/Src/stm32f4xx_hal_adc.c.obj
HAL_ADC_ErrorCallback                             CMakeFiles/build.elf.dir/micro/target/STM32F4xx_HAL_Driver/Src/stm32f4xx_hal_adc.c.obj
                                                  CMakeFiles/build.elf.dir/micro/target/STM32F4xx_HAL_Driver/Src/stm32f4xx_hal_adc_ex.c.obj
HAL_ADC_GetError                                  CMakeFiles/build.elf.dir/micro/target/STM32F4xx_HAL_Driver/Src/stm32f4xx_hal_adc.c.obj
HAL_ADC_GetState                                  CMakeFiles/build.elf.dir/micro/target/STM32F4xx_HAL_Driver/Src/stm32f4xx_hal_adc.c.obj
HAL_ADC_GetValue                                  CMakeFiles/build.elf.dir/micro/target/STM32F4xx_HAL_Driver/Src/stm32f4xx_hal_adc.c.obj
HAL_ADC_IRQHandler                                CMakeFiles/build.elf.dir/micro/target/STM32F4xx_HAL_Driver/Src/stm32f4xx_hal_adc.c.obj
HAL_ADC_Init                                      CMakeFiles/build.elf.dir/micro/target/STM32F4xx_HAL_Driver/Src/stm32f4xx_hal_adc.c.obj
HAL_ADC_LevelOutOfWindowCallback                  CMakeFiles/build.elf.dir/micro/target/STM32F4xx_HAL_Driver/Src/stm32f4xx_hal_adc.c.obj
HAL_ADC_MspDeInit                                 CMakeFiles/build.elf.dir/micro/target/STM32F4xx_HAL_Driver/Src/stm32f4xx_hal_adc.c.obj
HAL_ADC_MspInit                                   CMakeFiles/build.elf.dir/micro/target/STM32F4xx_HAL_Driver/Src/stm32f4xx_hal_adc.c.obj
HAL_ADC_PollForConversion                         CMakeFiles/build.elf.dir/micro/target/STM32F4xx_HAL_Driver/Src/stm32f4xx_hal_adc.c.obj
HAL_ADC_PollForEvent                              CMakeFiles/build.elf.dir/micro/target/STM32F4xx_HAL_Driver/Src/stm32f4xx_hal_adc.c.obj
HAL_ADC_Start                                     CMakeFiles/build.elf.dir/micro/target/STM32F4xx_HAL_Driver/Src/stm32f4xx_hal_adc.c.obj
HAL_ADC_Start_DMA                                 CMakeFiles/build.elf.dir/micro/target/STM32F4xx_HAL_Driver/Src/stm32f4xx_hal_adc.c.obj
HAL_ADC_Start_IT                                  CMakeFiles/build.elf.dir/micro/target/STM32F4xx_HAL_Driver/Src/stm32f4xx_hal_adc.c.obj
HAL_ADC_Stop                                      CMakeFiles/build.elf.dir/micro/target/STM32F4xx_HAL_Driver/Src/stm32f4xx_hal_adc.c.obj
HAL_ADC_Stop_DMA                                  CMakeFiles/build.elf.dir/micro/target/STM32F4xx_HAL_Driver/Src/stm32f4xx_hal_adc.c.obj
HAL_ADC_Stop_IT                                   CMakeFiles/build.elf.dir/micro/target/STM32F4xx_HAL_Driver/Src/stm32f4xx_hal_adc.c.obj
HAL_CAN_AbortTxRequest                            CMakeFiles/build.elf.dir/micro/target/STM32F4xx_HAL_Driver/Src/stm32f4xx_hal_can.c.obj
HAL_CAN_ActivateNotification                      CMakeFiles/build.elf.dir/micro/target/STM32F4xx_HAL_Driver/Src/stm32f4xx_hal_can.c.obj
HAL_CAN_AddTxMessage                              CMakeFiles/build.elf.dir/micro/target/STM32F4xx_HAL_Driver/Src/stm32f4xx_hal_can.c.obj
HAL_CAN_ConfigFilter                              CMakeFiles/build.elf.dir/micro/target/STM32F4xx_HAL_Driver/Src/stm32f4xx_hal_can.c.obj
HAL_CAN_DeInit                                    CMakeFiles/build.elf.dir/micro/target/STM32F4xx_HAL_Driver/Src/stm32f4xx_hal_can.c.obj
HAL_CAN_DeactivateNotification                    CMakeFiles/build.elf.dir/micro/target/STM32F4xx_HAL_Driver/Src/stm32f4xx_hal_can.c.obj
HAL_CAN_ErrorCallback                             CMakeFiles/build.elf.dir/micro/target/STM32F4xx_HAL_Driver/Src/stm32f4xx_hal_can.c.obj
HAL_CAN_GetError                                  CMakeFiles/build.elf.dir/micro/target/STM32F4xx_HAL_Driver/Src/stm32f4xx_hal_can.c.obj
HAL_CAN_GetRxFifoFillLevel                        CMakeFiles/build.elf.dir/micro/target/STM32F4xx_HAL_Driver/Src/stm32f4xx_hal_can.c.obj
HAL_CAN_GetRxMessage                              CMakeFiles/build.elf.dir/micro/target/STM32F4xx_HAL_Driver/Src/stm32f4xx_hal_can.c.obj
HAL_CAN_GetState                                  CMakeFiles/build.elf.dir/micro/target/STM32F4xx_HAL_Driver/Src/stm32f4xx_hal_can.c.obj
HAL_CAN_GetTxMailboxesFreeLevel                   CMakeFiles/build.elf.dir/micro/target/STM32F4xx_HAL_Driver/Src/stm32f4xx_hal_can.c.obj
HAL_CAN_GetTxTimestamp                            CMakeFiles/build.elf.dir/micro/target/STM32F4xx_HAL_Driver/Src/stm32f4xx_hal_can.c.obj
HAL_CAN_IRQHandler                                CMakeFiles/build.elf.dir/micro/target/STM32F4xx_HAL_Driver/Src/stm32f4xx_hal_can.c.obj
HAL_CAN_Init                                      CMakeFiles/build.elf.dir/micro/target/STM32F4xx_HAL_Driver/Src/stm32f4xx_hal_can.c.obj
HAL_CAN_IsSleepActive                             CMakeFiles/build.elf.dir/micro/target/STM32F4xx_HAL_Driver/Src/stm32f4xx_hal_can.c.obj
HAL_CAN_IsTxMessagePending                        CMakeFiles/build.elf.dir/micro/target/STM32F4xx_HAL_Driver/Src/stm32f4xx_hal_can.c.obj
HAL_CAN_MspDeInit                                 CMakeFiles/build.elf.dir/micro/target/STM32F4xx_HAL_Driver/Src/stm32f4xx_hal_can.c.obj
HAL_CAN_MspInit                                   CMakeFiles/build.elf.dir/micro/target/STM32F4xx_HAL_Driver/Src/stm32f4xx_hal_can.c.obj
HAL_CAN_RequestSleep                              CMakeFiles/build.elf.dir/micro/target/STM32F4xx_HAL_Driver/Src/stm32f4xx_hal_can.c.obj
HAL_CAN_ResetError                                CMakeFiles/build.elf.dir/micro/target/STM32F4xx_HAL_Driver/Src/stm32f4xx_hal_can.c.obj
HAL_CAN_RxFifo0FullCallback                       CMakeFiles/build.elf.dir/micro/target/STM32F4xx_HAL_Driver/Src/stm32f4xx_hal_can.c.obj
HAL_CAN_RxFifo0MsgPendingCallback                 CMakeFiles/build.elf.dir/micro/target/STM32F4xx_HAL_Driver/Src/stm32f4xx_hal_can.c.obj
HAL_CAN_RxFifo1FullCallback                       CMakeFiles/build.elf.dir/micro/target/STM32F4xx_HAL_Driver/Src/stm32f4xx_hal_can.c.obj
HAL_CAN_RxFifo1MsgPendingCallback                 CMakeFiles/build.elf.dir/micro/target/STM32F4xx_HAL_Driver/Src/stm32f4xx_hal_can.c.obj
HAL_CAN_SleepCallback                             CMakeFiles/build.elf.dir/micro/target/STM32F4xx_HAL_Driver/Src/stm32f4xx_hal_can.c.obj
HAL_CAN_Start                                     CMakeFiles/build.elf.dir/micro/target/STM32F4xx_HAL_Driver/Src/stm32f4xx_hal_can.c.obj
HAL_CAN_Stop                                      CMakeFiles/build.elf.dir/micro/target/STM32F4xx_HAL_Driver/Src/stm32f4xx_hal_can.c.obj
HAL_CAN_TxMailbox0AbortCallback                   CMakeFiles/build.elf.dir/micro/target/STM32F4xx_HAL_Driver/Src/stm32f4xx_hal_can.c.obj
HAL_CAN_TxMailbox0CompleteCallback                CMakeFiles/build.elf.dir/micro/target/STM32F4xx_HAL_Driver/Src/stm32f4xx_hal_can.c.obj
HAL_CAN_TxMailbox1AbortCallback                   CMakeFiles/build.elf.dir/micro/target/STM32F4xx_HAL_Driver/Src/stm32f4xx_hal_can.c.obj
HAL_CAN_TxMailbox1CompleteCallback                CMakeFiles/build.elf.dir/micro/target/STM32F4xx_HAL_Driver/Src/stm32f4xx_hal_can.c.obj
HAL_CAN_TxMailbox2AbortCallback                   CMakeFiles/build.elf.dir/micro/target/STM32F4xx_HAL_Driver/Src/stm32f4xx_hal_can.c.obj
HAL_CAN_TxMailbox2CompleteCallback                CMakeFiles/build.elf.dir/micro/target/STM32F4xx_HAL_Driver/Src/stm32f4xx_hal_can.c.obj
HAL_CAN_WakeUp                                    CMakeFiles/build.elf.dir/micro/target/STM32F4xx_HAL_Driver/Src/stm32f4xx_hal_can.c.obj
HAL_CAN_WakeUpFromRxMsgCallback                   CMakeFiles/build.elf.dir/micro/target/STM32F4xx_HAL_Driver/Src/stm32f4xx_hal_can.c.obj
HAL_CRC_Accumulate                                CMakeFiles/build.elf.dir/micro/target/STM32F4xx_HAL_Driver/Src/stm32f4xx_hal_crc.c.obj
HAL_CRC_Calculate                                 CMakeFiles/build.elf.dir/micro/target/STM32F4xx_HAL_Driver/Src/stm32f4xx_hal_crc.c.obj
HAL_CRC_DeInit                                    CMakeFiles/build.elf.dir/micro/target/STM32F4xx_HAL_Driver/Src/stm32f4xx_hal_crc.c.obj
HAL_CRC_GetState                                  CMakeFiles/build.elf.dir/micro/target/STM32F4xx_HAL_Driver/Src/stm32f4xx_hal_crc.c.obj
HAL_CRC_Init                                      CMakeFiles/build.elf.dir/micro/target/STM32F4xx_HAL_Driver/Src/stm32f4xx_hal_crc.c.obj
HAL_CRC_MspDeInit                                 CMakeFiles/build.elf.dir/micro/target/STM32F4xx_HAL_Driver/Src/stm32f4xx_hal_crc.c.obj
HAL_CRC_MspInit                                   CMakeFiles/build.elf.dir/micro/target/STM32F4xx_HAL_Driver/Src/stm32f4xx_hal_crc.c.obj
HAL_DACEx_ConvCpltCallbackCh2                     CMakeFiles/build.elf.dir/micro/target/STM32F4xx_HAL_Driver/Src/stm32f4xx_hal_dac_ex.c.obj
HAL_DACEx_ConvHalfCpltCallbackCh2                 CMakeFiles/build.elf.dir/micro/target/STM32F4xx_HAL_Driver/Src/stm32f4xx_hal_dac_ex.c.obj
HAL_DACEx_DMAUnderrunCallbackCh2                  CMakeFiles/build.elf.dir/micro/target/STM32F4xx_HAL_Driver/Src/stm32f4xx_hal_dac_ex.c.obj
                                                  CMakeFiles/build.elf.dir/micro/target/STM32F4xx_HAL_Driver/Src/stm32f4xx_hal_dac.c.obj
HAL_DACEx_DualGetValue                            CMakeFiles/build.elf.dir/micro/target/STM32F4xx_HAL_Driver/Src/stm32f4xx_hal_dac_ex.c.obj
HAL_DACEx_DualSetValue                            CMakeFiles/build.elf.dir/micro/target/STM32F4xx_HAL_Driver/Src/stm32f4xx_hal_dac_ex.c.obj
HAL_DACEx_ErrorCallbackCh2                        CMakeFiles/build.elf.dir/micro/target/STM32F4xx_HAL_Driver/Src/stm32f4xx_hal_dac_ex.c.obj
HAL_DACEx_NoiseWaveGenerate                       CMakeFiles/build.elf.dir/micro/target/STM32F4xx_HAL_Driver/Src/stm32f4xx_hal_dac_ex.c.obj
HAL_DACEx_TriangleWaveGenerate                    CMakeFiles/build.elf.dir/micro/target/STM32F4xx_HAL_Driver/Src/stm32f4xx_hal_dac_ex.c.obj
HAL_DAC_ConfigChannel                             CMakeFiles/build.elf.dir/micro/target/STM32F4xx_HAL_Driver/Src/stm32f4xx_hal_dac.c.obj
HAL_DAC_ConvCpltCallbackCh1                       CMakeFiles/build.elf.dir/micro/target/STM32F4xx_HAL_Driver/Src/stm32f4xx_hal_dac.c.obj
HAL_DAC_ConvHalfCpltCallbackCh1                   CMakeFiles/build.elf.dir/micro/target/STM32F4xx_HAL_Driver/Src/stm32f4xx_hal_dac.c.obj
HAL_DAC_DMAUnderrunCallbackCh1                    CMakeFiles/build.elf.dir/micro/target/STM32F4xx_HAL_Driver/Src/stm32f4xx_hal_dac.c.obj
HAL_DAC_DeInit                                    CMakeFiles/build.elf.dir/micro/target/STM32F4xx_HAL_Driver/Src/stm32f4xx_hal_dac.c.obj
HAL_DAC_ErrorCallbackCh1                          CMakeFiles/build.elf.dir/micro/target/STM32F4xx_HAL_Driver/Src/stm32f4xx_hal_dac.c.obj
HAL_DAC_GetError                                  CMakeFiles/build.elf.dir/micro/target/STM32F4xx_HAL_Driver/Src/stm32f4xx_hal_dac.c.obj
HAL_DAC_GetState                                  CMakeFiles/build.elf.dir/micro/target/STM32F4xx_HAL_Driver/Src/stm32f4xx_hal_dac.c.obj
HAL_DAC_GetValue                                  CMakeFiles/build.elf.dir/micro/target/STM32F4xx_HAL_Driver/Src/stm32f4xx_hal_dac.c.obj
HAL_DAC_IRQHandler                                CMakeFiles/build.elf.dir/micro/target/STM32F4xx_HAL_Driver/Src/stm32f4xx_hal_dac.c.obj
HAL_DAC_Init                                      CMakeFiles/build.elf.dir/micro/target/STM32F4xx_HAL_Driver/Src/stm32f4xx_hal_dac.c.obj
HAL_DAC_MspDeInit                                 CMakeFiles/build.elf.dir/micro/target/STM32F4xx_HAL_Driver/Src/stm32f4xx_hal_dac.c.obj
HAL_DAC_MspInit                                   CMakeFiles/build.elf.dir/micro/target/STM32F4xx_HAL_Driver/Src/stm32f4xx_hal_dac.c.obj
HAL_DAC_SetValue                                  CMakeFiles/build.elf.dir/micro/target/STM32F4xx_HAL_Driver/Src/stm32f4xx_hal_dac.c.obj
HAL_DAC_Start                                     CMakeFiles/build.elf.dir/micro/target/STM32F4xx_HAL_Driver/Src/stm32f4xx_hal_dac.c.obj
HAL_DAC_Start_DMA                                 CMakeFiles/build.elf.dir/micro/target/STM32F4xx_HAL_Driver/Src/stm32f4xx_hal_dac.c.obj
HAL_DAC_Stop                                      CMakeFiles/build.elf.dir/micro/target/STM32F4xx_HAL_Driver/Src/stm32f4xx_hal_dac.c.obj
HAL_DAC_Stop_DMA                                  CMakeFiles/build.elf.dir/micro/target/STM32F4xx_HAL_Driver/Src/stm32f4xx_hal_dac.c.obj
HAL_DBGMCU_DisableDBGSleepMode                    CMakeFiles/build.elf.dir/micro/target/STM32F4xx_HAL_Driver/Src/stm32f4xx_hal.c.obj
HAL_DBGMCU_DisableDBGStandbyMode                  CMakeFiles/build.elf.dir/micro/target/STM32F4xx_HAL_Driver/Src/stm32f4xx_hal.c.obj
HAL_DBGMCU_DisableDBGStopMode                     CMakeFiles/build.elf.dir/micro/target/STM32F4xx_HAL_Driver/Src/stm32f4xx_hal.c.obj
HAL_DBGMCU_EnableDBGSleepMode                     CMakeFiles/build.elf.dir/micro/target/STM32F4xx_HAL_Driver/Src/stm32f4xx_hal.c.obj
HAL_DBGMCU_EnableDBGStandbyMode                   CMakeFiles/build.elf.dir/micro/target/STM32F4xx_HAL_Driver/Src/stm32f4xx_hal.c.obj
HAL_DBGMCU_EnableDBGStopMode                      CMakeFiles/build.elf.dir/micro/target/STM32F4xx_HAL_Driver/Src/stm32f4xx_hal.c.obj
HAL_DCMI_ConfigCrop                               CMakeFiles/build.elf.dir/micro/target/STM32F4xx_HAL_Driver/Src/stm32f4xx_hal_dcmi.c.obj
HAL_DCMI_DeInit                                   CMakeFiles/build.elf.dir/micro/target/STM32F4xx_HAL_Driver/Src/stm32f4xx_hal_dcmi.c.obj
HAL_DCMI_DisableCrop                              CMakeFiles/build.elf.dir/micro/target/STM32F4xx_HAL_Driver/Src/stm32f4xx_hal_dcmi.c.obj
HAL_DCMI_EnableCrop                               CMakeFiles/build.elf.dir/micro/target/STM32F4xx_HAL_Driver/Src/stm32f4xx_hal_dcmi.c.obj
HAL_DCMI_ErrorCallback                            CMakeFiles/build.elf.dir/micro/target/STM32F4xx_HAL_Driver/Src/stm32f4xx_hal_dcmi.c.obj
HAL_DCMI_FrameEventCallback                       CMakeFiles/build.elf.dir/micro/target/STM32F4xx_HAL_Driver/Src/stm32f4xx_hal_dcmi.c.obj
HAL_DCMI_GetError                                 CMakeFiles/build.elf.dir/micro/target/STM32F4xx_HAL_Driver/Src/stm32f4xx_hal_dcmi.c.obj
HAL_DCMI_GetState                                 CMakeFiles/build.elf.dir/micro/target/STM32F4xx_HAL_Driver/Src/stm32f4xx_hal_dcmi.c.obj
HAL_DCMI_IRQHandler                               CMakeFiles/build.elf.dir/micro/target/STM32F4xx_HAL_Driver/Src/stm32f4xx_hal_dcmi.c.obj
HAL_DCMI_Init                                     CMakeFiles/build.elf.dir/micro/target/STM32F4xx_HAL_Driver/Src/stm32f4xx_hal_dcmi_ex.c.obj
                                                  CMakeFiles/build.elf.dir/micro/target/STM32F4xx_HAL_Driver/Src/stm32f4xx_hal_dcmi.c.obj
HAL_DCMI_LineEventCallback                        CMakeFiles/build.elf.dir/micro/target/STM32F4xx_HAL_Driver/Src/stm32f4xx_hal_dcmi.c.obj
HAL_DCMI_MspDeInit                                CMakeFiles/build.elf.dir/micro/target/STM32F4xx_HAL_Driver/Src/stm32f4xx_hal_dcmi.c.obj
HAL_DCMI_MspInit                                  CMakeFiles/build.elf.dir/micro/target/STM32F4xx_HAL_Driver/Src/stm32f4xx_hal_dcmi.c.obj
                                                  CMakeFiles/build.elf.dir/micro/target/STM32F4xx_HAL_Driver/Src/stm32f4xx_hal_dcmi_ex.c.obj
HAL_DCMI_Resume                                   CMakeFiles/build.elf.dir/micro/target/STM32F4xx_HAL_Driver/Src/stm32f4xx_hal_dcmi.c.obj
HAL_DCMI_Start_DMA                                CMakeFiles/build.elf.dir/micro/target/STM32F4xx_HAL_Driver/Src/stm32f4xx_hal_dcmi.c.obj
HAL_DCMI_Stop                                     CMakeFiles/build.elf.dir/micro/target/STM32F4xx_HAL_Driver/Src/stm32f4xx_hal_dcmi.c.obj
HAL_DCMI_Suspend                                  CMakeFiles/build.elf.dir/micro/target/STM32F4xx_HAL_Driver/Src/stm32f4xx_hal_dcmi.c.obj
HAL_DCMI_VsyncEventCallback                       CMakeFiles/build.elf.dir/micro/target/STM32F4xx_HAL_Driver/Src/stm32f4xx_hal_dcmi.c.obj
HAL_DMAEx_ChangeMemory                            CMakeFiles/build.elf.dir/micro/target/STM32F4xx_HAL_Driver/Src/stm32f4xx_hal_dma_ex.c.obj
                                                  CMakeFiles/build.elf.dir/micro/target/STM32F4xx_HAL_Driver/Src/stm32f4xx_hal_dcmi.c.obj
HAL_DMAEx_MultiBufferStart                        CMakeFiles/build.elf.dir/micro/target/STM32F4xx_HAL_Driver/Src/stm32f4xx_hal_dma_ex.c.obj
HAL_DMAEx_MultiBufferStart_IT                     CMakeFiles/build.elf.dir/micro/target/STM32F4xx_HAL_Driver/Src/stm32f4xx_hal_dma_ex.c.obj
                                                  CMakeFiles/build.elf.dir/micro/target/STM32F4xx_HAL_Driver/Src/stm32f4xx_hal_dcmi.c.obj
HAL_DMA_Abort                                     CMakeFiles/build.elf.dir/micro/target/STM32F4xx_HAL_Driver/Src/stm32f4xx_hal_dma.c.obj
                                                  CMakeFiles/build.elf.dir/micro/target/STM32F4xx_HAL_Driver/Src/stm32f4xx_hal_usart.c.obj
                                                  CMakeFiles/build.elf.dir/micro/target/STM32F4xx_HAL_Driver/Src/stm32f4xx_hal_uart.c.obj
                                                  CMakeFiles/build.elf.dir/micro/target/STM32F4xx_HAL_Driver/Src/stm32f4xx_hal_spi.c.obj
                                                  CMakeFiles/build.elf.dir/micro/target/STM32F4xx_HAL_Driver/Src/stm32f4xx_hal_smartcard.c.obj
                                                  CMakeFiles/build.elf.dir/micro/target/STM32F4xx_HAL_Driver/Src/stm32f4xx_hal_sd.c.obj
                                                  CMakeFiles/build.elf.dir/micro/target/STM32F4xx_HAL_Driver/Src/stm32f4xx_hal_mmc.c.obj
                                                  CMakeFiles/build.elf.dir/micro/target/STM32F4xx_HAL_Driver/Src/stm32f4xx_hal_irda.c.obj
                                                  CMakeFiles/build.elf.dir/micro/target/STM32F4xx_HAL_Driver/Src/stm32f4xx_hal_i2s.c.obj
                                                  CMakeFiles/build.elf.dir/micro/target/STM32F4xx_HAL_Driver/Src/stm32f4xx_hal_dcmi.c.obj
                                                  CMakeFiles/build.elf.dir/micro/target/STM32F4xx_HAL_Driver/Src/stm32f4xx_hal_dac.c.obj
                                                  CMakeFiles/build.elf.dir/micro/target/STM32F4xx_HAL_Driver/Src/stm32f4xx_hal_adc_ex.c.obj
                                                  CMakeFiles/build.elf.dir/micro/target/STM32F4xx_HAL_Driver/Src/stm32f4xx_hal_adc.c.obj
HAL_DMA_Abort_IT                                  CMakeFiles/build.elf.dir/micro/target/STM32F4xx_HAL_Driver/Src/stm32f4xx_hal_dma.c.obj
                                                  CMakeFiles/build.elf.dir/micro/target/STM32F4xx_HAL_Driver/Src/stm32f4xx_hal_usart.c.obj
                                                  CMakeFiles/build.elf.dir/micro/target/STM32F4xx_HAL_Driver/Src/stm32f4xx_hal_uart.c.obj
                                                  CMakeFiles/build.elf.dir/micro/target/STM32F4xx_HAL_Driver/Src/stm32f4xx_hal_tim_ex.c.obj
                                                  CMakeFiles/build.elf.dir/micro/target/STM32F4xx_HAL_Driver/Src/stm32f4xx_hal_tim.c.obj
                                                  CMakeFiles/build.elf.dir/micro/target/STM32F4xx_HAL_Driver/Src/stm32f4xx_hal_spi.c.obj
                                                  CMakeFiles/build.elf.dir/micro/target/STM32F4xx_HAL_Driver/Src/stm32f4xx_hal_smartcard.c.obj
                                                  CMakeFiles/build.elf.dir/micro/target/STM32F4xx_HAL_Driver/Src/stm32f4xx_hal_sd.c.obj
                                                  CMakeFiles/build.elf.dir/micro/target/STM32F4xx_HAL_Driver/Src/stm32f4xx_hal_mmc.c.obj
                                                  CMakeFiles/build.elf.dir/micro/target/STM32F4xx_HAL_Driver/Src/stm32f4xx_hal_irda.c.obj
                                                  CMakeFiles/build.elf.dir/micro/target/STM32F4xx_HAL_Driver/Src/stm32f4xx_hal_i2c.c.obj
                                                  CMakeFiles/build.elf.dir/micro/target/STM32F4xx_HAL_Driver/Src/stm32f4xx_hal_dcmi.c.obj
HAL_DMA_DeInit                                    CMakeFiles/build.elf.dir/micro/target/STM32F4xx_HAL_Driver/Src/stm32f4xx_hal_dma.c.obj
HAL_DMA_GetError                                  CMakeFiles/build.elf.dir/micro/target/STM32F4xx_HAL_Driver/Src/stm32f4xx_hal_dma.c.obj
                                                  CMakeFiles/build.elf.dir/micro/target/STM32F4xx_HAL_Driver/Src/stm32f4xx_hal_uart.c.obj
                                                  CMakeFiles/build.elf.dir/micro/target/STM32F4xx_HAL_Driver/Src/stm32f4xx_hal_i2c.c.obj
HAL_DMA_GetState                                  CMakeFiles/build.elf.dir/micro/target/STM32F4xx_HAL_Driver/Src/stm32f4xx_hal_dma.c.obj
                                                  CMakeFiles/build.elf.dir/micro/target/STM32F4xx_HAL_Driver/Src/stm32f4xx_hal_i2c.c.obj
HAL_DMA_IRQHandler                                CMakeFiles/build.elf.dir/micro/target/STM32F4xx_HAL_Driver/Src/stm32f4xx_hal_dma.c.obj
HAL_DMA_Init                                      CMakeFiles/build.elf.dir/micro/target/STM32F4xx_HAL_Driver/Src/stm32f4xx_hal_dma.c.obj
HAL_DMA_PollForTransfer                           CMakeFiles/build.elf.dir/micro/target/STM32F4xx_HAL_Driver/Src/stm32f4xx_hal_dma.c.obj
HAL_DMA_RegisterCallback                          CMakeFiles/build.elf.dir/micro/target/STM32F4xx_HAL_Driver/Src/stm32f4xx_hal_dma.c.obj
HAL_DMA_Start                                     CMakeFiles/build.elf.dir/micro/target/STM32F4xx_HAL_Driver/Src/stm32f4xx_hal_dma.c.obj
HAL_DMA_Start_IT                                  CMakeFiles/build.elf.dir/micro/target/STM32F4xx_HAL_Driver/Src/stm32f4xx_hal_dma.c.obj
                                                  CMakeFiles/build.elf.dir/micro/target/STM32F4xx_HAL_Driver/Src/stm32f4xx_hal_usart.c.obj
                                                  CMakeFiles/build.elf.dir/micro/target/STM32F4xx_HAL_Driver/Src/stm32f4xx_hal_uart.c.obj
                                                  CMakeFiles/build.elf.dir/micro/target/STM32F4xx_HAL_Driver/Src/stm32f4xx_hal_tim_ex.c.obj
                                                  CMakeFiles/build.elf.dir/micro/target/STM32F4xx_HAL_Driver/Src/stm32f4xx_hal_tim.c.obj
                                                  CMakeFiles/build.elf.dir/micro/target/STM32F4xx_HAL_Driver/Src/stm32f4xx_hal_sram.c.obj
                                                  CMakeFiles/build.elf.dir/micro/target/STM32F4xx_HAL_Driver/Src/stm32f4xx_hal_spi.c.obj
                                                  CMakeFiles/build.elf.dir/micro/target/STM32F4xx_HAL_Driver/Src/stm32f4xx_hal_smartcard.c.obj
                                                  CMakeFiles/build.elf.dir/micro/target/STM32F4xx_HAL_Driver/Src/stm32f4xx_hal_sd.c.obj
                                                  CMakeFiles/build.elf.dir/micro/target/STM32F4xx_HAL_Driver/Src/stm32f4xx_hal_mmc.c.obj
                                                  CMakeFiles/build.elf.dir/micro/target/STM32F4xx_HAL_Driver/Src/stm32f4xx_hal_irda.c.obj
                                                  CMakeFiles/build.elf.dir/micro/target/STM32F4xx_HAL_Driver/Src/stm32f4xx_hal_i2s_ex.c.obj
                                                  CMakeFiles/build.elf.dir/micro/target/STM32F4xx_HAL_Driver/Src/stm32f4xx_hal_i2s.c.obj
                                                  CMakeFiles/build.elf.dir/micro/target/STM32F4xx_HAL_Driver/Src/stm32f4xx_hal_i2c.c.obj
                                                  CMakeFiles/build.elf.dir/micro/target/STM32F4xx_HAL_Driver/Src/stm32f4xx_hal_dcmi.c.obj
                                                  CMakeFiles/build.elf.dir/micro/target/STM32F4xx_HAL_Driver/Src/stm32f4xx_hal_dac.c.obj
                                                  CMakeFiles/build.elf.dir/micro/target/STM32F4xx_HAL_Driver/Src/stm32f4xx_hal_adc_ex.c.obj
                                                  CMakeFiles/build.elf.dir/micro/target/STM32F4xx_HAL_Driver/Src/stm32f4xx_hal_adc.c.obj
HAL_DMA_UnRegisterCallback                        CMakeFiles/build.elf.dir/micro/target/STM32F4xx_HAL_Driver/Src/stm32f4xx_hal_dma.c.obj
HAL_DeInit                                        CMakeFiles/build.elf.dir/micro/target/STM32F4xx_HAL_Driver/Src/stm32f4xx_hal.c.obj
HAL_Delay                                         CMakeFiles/build.elf.dir/micro/target/STM32F4xx_HAL_Driver/Src/stm32f4xx_hal.c.obj
                                                  CMakeFiles/build.elf.dir/src/main.c.obj
                                                  CMakeFiles/build.elf.dir/micro/target/STM32F4xx_HAL_Driver/Src/stm32f4xx_ll_usb.c.obj
                                                  CMakeFiles/build.elf.dir/micro/target/STM32F4xx_HAL_Driver/Src/stm32f4xx_hal_sd.c.obj
                                                  CMakeFiles/build.elf.dir/micro/target/STM32F4xx_HAL_Driver/Src/stm32f4xx_hal_mmc.c.obj
                                                  CMakeFiles/build.elf.dir/micro/target/STM32F4xx_HAL_Driver/Src/stm32f4xx_hal_eth.c.obj
HAL_DisableCompensationCell                       CMakeFiles/build.elf.dir/micro/target/STM32F4xx_HAL_Driver/Src/stm32f4xx_hal.c.obj
HAL_ETH_ConfigDMA                                 CMakeFiles/build.elf.dir/micro/target/STM32F4xx_HAL_Driver/Src/stm32f4xx_hal_eth.c.obj
HAL_ETH_ConfigMAC                                 CMakeFiles/build.elf.dir/micro/target/STM32F4xx_HAL_Driver/Src/stm32f4xx_hal_eth.c.obj
HAL_ETH_DMARxDescListInit                         CMakeFiles/build.elf.dir/micro/target/STM32F4xx_HAL_Driver/Src/stm32f4xx_hal_eth.c.obj
HAL_ETH_DMATxDescListInit                         CMakeFiles/build.elf.dir/micro/target/STM32F4xx_HAL_Driver/Src/stm32f4xx_hal_eth.c.obj
HAL_ETH_DeInit                                    CMakeFiles/build.elf.dir/micro/target/STM32F4xx_HAL_Driver/Src/stm32f4xx_hal_eth.c.obj
HAL_ETH_ErrorCallback                             CMakeFiles/build.elf.dir/micro/target/STM32F4xx_HAL_Driver/Src/stm32f4xx_hal_eth.c.obj
HAL_ETH_GetReceivedFrame                          CMakeFiles/build.elf.dir/micro/target/STM32F4xx_HAL_Driver/Src/stm32f4xx_hal_eth.c.obj
HAL_ETH_GetReceivedFrame_IT                       CMakeFiles/build.elf.dir/micro/target/STM32F4xx_HAL_Driver/Src/stm32f4xx_hal_eth.c.obj
HAL_ETH_GetState                                  CMakeFiles/build.elf.dir/micro/target/STM32F4xx_HAL_Driver/Src/stm32f4xx_hal_eth.c.obj
HAL_ETH_IRQHandler                                CMakeFiles/build.elf.dir/micro/target/STM32F4xx_HAL_Driver/Src/stm32f4xx_hal_eth.c.obj
HAL_ETH_Init                                      CMakeFiles/build.elf.dir/micro/target/STM32F4xx_HAL_Driver/Src/stm32f4xx_hal_eth.c.obj
HAL_ETH_MspDeInit                                 CMakeFiles/build.elf.dir/micro/target/STM32F4xx_HAL_Driver/Src/stm32f4xx_hal_eth.c.obj
HAL_ETH_MspInit                                   CMakeFiles/build.elf.dir/micro/target/STM32F4xx_HAL_Driver/Src/stm32f4xx_hal_eth.c.obj
HAL_ETH_ReadPHYRegister                           CMakeFiles/build.elf.dir/micro/target/STM32F4xx_HAL_Driver/Src/stm32f4xx_hal_eth.c.obj
HAL_ETH_RxCpltCallback                            CMakeFiles/build.elf.dir/micro/target/STM32F4xx_HAL_Driver/Src/stm32f4xx_hal_eth.c.obj
HAL_ETH_Start                                     CMakeFiles/build.elf.dir/micro/target/STM32F4xx_HAL_Driver/Src/stm32f4xx_hal_eth.c.obj
HAL_ETH_Stop                                      CMakeFiles/build.elf.dir/micro/target/STM32F4xx_HAL_Driver/Src/stm32f4xx_hal_eth.c.obj
HAL_ETH_TransmitFrame                             CMakeFiles/build.elf.dir/micro/target/STM32F4xx_HAL_Driver/Src/stm32f4xx_hal_eth.c.obj
HAL_ETH_TxCpltCallback                            CMakeFiles/build.elf.dir/micro/target/STM32F4xx_HAL_Driver/Src/stm32f4xx_hal_eth.c.obj
HAL_ETH_WritePHYRegister                          CMakeFiles/build.elf.dir/micro/target/STM32F4xx_HAL_Driver/Src/stm32f4xx_hal_eth.c.obj
HAL_EXTI_ClearConfigLine                          CMakeFiles/build.elf.dir/micro/target/STM32F4xx_HAL_Driver/Src/stm32f4xx_hal_exti.c.obj
HAL_EXTI_ClearPending                             CMakeFiles/build.elf.dir/micro/target/STM32F4xx_HAL_Driver/Src/stm32f4xx_hal_exti.c.obj
HAL_EXTI_GenerateSWI                              CMakeFiles/build.elf.dir/micro/target/STM32F4xx_HAL_Driver/Src/stm32f4xx_hal_exti.c.obj
HAL_EXTI_GetConfigLine                            CMakeFiles/build.elf.dir/micro/target/STM32F4xx_HAL_Driver/Src/stm32f4xx_hal_exti.c.obj
HAL_EXTI_GetHandle                                CMakeFiles/build.elf.dir/micro/target/STM32F4xx_HAL_Driver/Src/stm32f4xx_hal_exti.c.obj
HAL_EXTI_GetPending                               CMakeFiles/build.elf.dir/micro/target/STM32F4xx_HAL_Driver/Src/stm32f4xx_hal_exti.c.obj
HAL_EXTI_IRQHandler                               CMakeFiles/build.elf.dir/micro/target/STM32F4xx_HAL_Driver/Src/stm32f4xx_hal_exti.c.obj
HAL_EXTI_RegisterCallback                         CMakeFiles/build.elf.dir/micro/target/STM32F4xx_HAL_Driver/Src/stm32f4xx_hal_exti.c.obj
HAL_EXTI_SetConfigLine                            CMakeFiles/build.elf.dir/micro/target/STM32F4xx_HAL_Driver/Src/stm32f4xx_hal_exti.c.obj
HAL_EnableCompensationCell                        CMakeFiles/build.elf.dir/micro/target/STM32F4xx_HAL_Driver/Src/stm32f4xx_hal.c.obj
HAL_FLASHEx_Erase                                 CMakeFiles/build.elf.dir/micro/target/STM32F4xx_HAL_Driver/Src/stm32f4xx_hal_flash_ex.c.obj
HAL_FLASHEx_Erase_IT                              CMakeFiles/build.elf.dir/micro/target/STM32F4xx_HAL_Driver/Src/stm32f4xx_hal_flash_ex.c.obj
HAL_FLASHEx_OBGetConfig                           CMakeFiles/build.elf.dir/micro/target/STM32F4xx_HAL_Driver/Src/stm32f4xx_hal_flash_ex.c.obj
HAL_FLASHEx_OBProgram                             CMakeFiles/build.elf.dir/micro/target/STM32F4xx_HAL_Driver/Src/stm32f4xx_hal_flash_ex.c.obj
HAL_FLASH_EndOfOperationCallback                  CMakeFiles/build.elf.dir/micro/target/STM32F4xx_HAL_Driver/Src/stm32f4xx_hal_flash.c.obj
HAL_FLASH_GetError                                CMakeFiles/build.elf.dir/micro/target/STM32F4xx_HAL_Driver/Src/stm32f4xx_hal_flash.c.obj
HAL_FLASH_IRQHandler                              CMakeFiles/build.elf.dir/micro/target/STM32F4xx_HAL_Driver/Src/stm32f4xx_hal_flash.c.obj
HAL_FLASH_Lock                                    CMakeFiles/build.elf.dir/micro/target/STM32F4xx_HAL_Driver/Src/stm32f4xx_hal_flash.c.obj
HAL_FLASH_OB_Launch                               CMakeFiles/build.elf.dir/micro/target/STM32F4xx_HAL_Driver/Src/stm32f4xx_hal_flash.c.obj
HAL_FLASH_OB_Lock                                 CMakeFiles/build.elf.dir/micro/target/STM32F4xx_HAL_Driver/Src/stm32f4xx_hal_flash.c.obj
HAL_FLASH_OB_Unlock                               CMakeFiles/build.elf.dir/micro/target/STM32F4xx_HAL_Driver/Src/stm32f4xx_hal_flash.c.obj
HAL_FLASH_OperationErrorCallback                  CMakeFiles/build.elf.dir/micro/target/STM32F4xx_HAL_Driver/Src/stm32f4xx_hal_flash.c.obj
HAL_FLASH_Program                                 CMakeFiles/build.elf.dir/micro/target/STM32F4xx_HAL_Driver/Src/stm32f4xx_hal_flash.c.obj
HAL_FLASH_Program_IT                              CMakeFiles/build.elf.dir/micro/target/STM32F4xx_HAL_Driver/Src/stm32f4xx_hal_flash.c.obj
HAL_FLASH_Unlock                                  CMakeFiles/build.elf.dir/micro/target/STM32F4xx_HAL_Driver/Src/stm32f4xx_hal_flash.c.obj
HAL_GPIO_DeInit                                   CMakeFiles/build.elf.dir/micro/target/STM32F4xx_HAL_Driver/Src/stm32f4xx_hal_gpio.c.obj
                                                  CMakeFiles/build.elf.dir/src/stm32f4xx_hal_msp.c.obj
HAL_GPIO_EXTI_Callback                            CMakeFiles/build.elf.dir/micro/target/STM32F4xx_HAL_Driver/Src/stm32f4xx_hal_gpio.c.obj
HAL_GPIO_EXTI_IRQHandler                          CMakeFiles/build.elf.dir/micro/target/STM32F4xx_HAL_Driver/Src/stm32f4xx_hal_gpio.c.obj
HAL_GPIO_Init                                     CMakeFiles/build.elf.dir/micro/target/STM32F4xx_HAL_Driver/Src/stm32f4xx_hal_gpio.c.obj
                                                  CMakeFiles/build.elf.dir/src/stm32f4xx_hal_msp.c.obj
                                                  CMakeFiles/build.elf.dir/src/main.c.obj
                                                  CMakeFiles/build.elf.dir/micro/target/STM32F4xx_HAL_Driver/Src/stm32f4xx_hal_rcc.c.obj
HAL_GPIO_LockPin                                  CMakeFiles/build.elf.dir/micro/target/STM32F4xx_HAL_Driver/Src/stm32f4xx_hal_gpio.c.obj
HAL_GPIO_ReadPin                                  CMakeFiles/build.elf.dir/micro/target/STM32F4xx_HAL_Driver/Src/stm32f4xx_hal_gpio.c.obj
HAL_GPIO_TogglePin                                CMakeFiles/build.elf.dir/micro/target/STM32F4xx_HAL_Driver/Src/stm32f4xx_hal_gpio.c.obj
HAL_GPIO_WritePin                                 CMakeFiles/build.elf.dir/micro/target/STM32F4xx_HAL_Driver/Src/stm32f4xx_hal_gpio.c.obj
                                                  CMakeFiles/build.elf.dir/src/main.c.obj
HAL_GetDEVID                                      CMakeFiles/build.elf.dir/micro/target/STM32F4xx_HAL_Driver/Src/stm32f4xx_hal.c.obj
HAL_GetHalVersion                                 CMakeFiles/build.elf.dir/micro/target/STM32F4xx_HAL_Driver/Src/stm32f4xx_hal.c.obj
HAL_GetREVID                                      CMakeFiles/build.elf.dir/micro/target/STM32F4xx_HAL_Driver/Src/stm32f4xx_hal.c.obj
HAL_GetTick                                       CMakeFiles/build.elf.dir/micro/target/STM32F4xx_HAL_Driver/Src/stm32f4xx_hal.c.obj
                                                  CMakeFiles/build.elf.dir/micro/target/STM32F4xx_HAL_Driver/Src/stm32f4xx_ll_fsmc.c.obj
                                                  CMakeFiles/build.elf.dir/micro/target/STM32F4xx_HAL_Driver/Src/stm32f4xx_hal_usart.c.obj
                                                  CMakeFiles/build.elf.dir/micro/target/STM32F4xx_HAL_Driver/Src/stm32f4xx_hal_uart.c.obj
                                                  CMakeFiles/build.elf.dir/micro/target/STM32F4xx_HAL_Driver/Src/stm32f4xx_hal_spi.c.obj
                                                  CMakeFiles/build.elf.dir/micro/target/STM32F4xx_HAL_Driver/Src/stm32f4xx_hal_smartcard.c.obj
                                                  CMakeFiles/build.elf.dir/micro/target/STM32F4xx_HAL_Driver/Src/stm32f4xx_hal_sd.c.obj
                                                  CMakeFiles/build.elf.dir/micro/target/STM32F4xx_HAL_Driver/Src/stm32f4xx_hal_rtc_ex.c.obj
                                                  CMakeFiles/build.elf.dir/micro/target/STM32F4xx_HAL_Driver/Src/stm32f4xx_hal_rtc.c.obj
                                                  CMakeFiles/build.elf.dir/micro/target/STM32F4xx_HAL_Driver/Src/stm32f4xx_hal_rng.c.obj
                                                  CMakeFiles/build.elf.dir/micro/target/STM32F4xx_HAL_Driver/Src/stm32f4xx_hal_rcc_ex.c.obj
                                                  CMakeFiles/build.elf.dir/micro/target/STM32F4xx_HAL_Driver/Src/stm32f4xx_hal_rcc.c.obj
                                                  CMakeFiles/build.elf.dir/micro/target/STM32F4xx_HAL_Driver/Src/stm32f4xx_hal_pwr_ex.c.obj
                                                  CMakeFiles/build.elf.dir/micro/target/STM32F4xx_HAL_Driver/Src/stm32f4xx_hal_nor.c.obj
                                                  CMakeFiles/build.elf.dir/micro/target/STM32F4xx_HAL_Driver/Src/stm32f4xx_hal_nand.c.obj
                                                  CMakeFiles/build.elf.dir/micro/target/STM32F4xx_HAL_Driver/Src/stm32f4xx_hal_mmc.c.obj
                                                  CMakeFiles/build.elf.dir/micro/target/STM32F4xx_HAL_Driver/Src/stm32f4xx_hal_iwdg.c.obj
                                                  CMakeFiles/build.elf.dir/micro/target/STM32F4xx_HAL_Driver/Src/stm32f4xx_hal_irda.c.obj
                                                  CMakeFiles/build.elf.dir/micro/target/STM32F4xx_HAL_Driver/Src/stm32f4xx_hal_i2s_ex.c.obj
                                                  CMakeFiles/build.elf.dir/micro/target/STM32F4xx_HAL_Driver/Src/stm32f4xx_hal_i2s.c.obj
                                                  CMakeFiles/build.elf.dir/micro/target/STM32F4xx_HAL_Driver/Src/stm32f4xx_hal_i2c.c.obj
                                                  CMakeFiles/build.elf.dir/micro/target/STM32F4xx_HAL_Driver/Src/stm32f4xx_hal_flash.c.obj
                                                  CMakeFiles/build.elf.dir/micro/target/STM32F4xx_HAL_Driver/Src/stm32f4xx_hal_eth.c.obj
                                                  CMakeFiles/build.elf.dir/micro/target/STM32F4xx_HAL_Driver/Src/stm32f4xx_hal_dma.c.obj
                                                  CMakeFiles/build.elf.dir/micro/target/STM32F4xx_HAL_Driver/Src/stm32f4xx_hal_can.c.obj
                                                  CMakeFiles/build.elf.dir/micro/target/STM32F4xx_HAL_Driver/Src/stm32f4xx_hal_adc_ex.c.obj
                                                  CMakeFiles/build.elf.dir/micro/target/STM32F4xx_HAL_Driver/Src/stm32f4xx_hal_adc.c.obj
HAL_GetTickFreq                                   CMakeFiles/build.elf.dir/micro/target/STM32F4xx_HAL_Driver/Src/stm32f4xx_hal.c.obj
HAL_GetTickPrio                                   CMakeFiles/build.elf.dir/micro/target/STM32F4xx_HAL_Driver/Src/stm32f4xx_hal.c.obj
HAL_GetUIDw0                                      CMakeFiles/build.elf.dir/micro/target/STM32F4xx_HAL_Driver/Src/stm32f4xx_hal.c.obj
HAL_GetUIDw1                                      CMakeFiles/build.elf.dir/micro/target/STM32F4xx_HAL_Driver/Src/stm32f4xx_hal.c.obj
HAL_GetUIDw2                                      CMakeFiles/build.elf.dir/micro/target/STM32F4xx_HAL_Driver/Src/stm32f4xx_hal.c.obj
HAL_HCD_Connect_Callback                          CMakeFiles/build.elf.dir/micro/target/STM32F4xx_HAL_Driver/Src/stm32f4xx_hal_hcd.c.obj
HAL_HCD_DeInit                                    CMakeFiles/build.elf.dir/micro/target/STM32F4xx_HAL_Driver/Src/stm32f4xx_hal_hcd.c.obj
HAL_HCD_Disconnect_Callback                       CMakeFiles/build.elf.dir/micro/target/STM32F4xx_HAL_Driver/Src/stm32f4xx_hal_hcd.c.obj
HAL_HCD_GetCurrentFrame                           CMakeFiles/build.elf.dir/micro/target/STM32F4xx_HAL_Driver/Src/stm32f4xx_hal_hcd.c.obj
HAL_HCD_GetCurrentSpeed                           CMakeFiles/build.elf.dir/micro/target/STM32F4xx_HAL_Driver/Src/stm32f4xx_hal_hcd.c.obj
HAL_HCD_GetState                                  CMakeFiles/build.elf.dir/micro/target/STM32F4xx_HAL_Driver/Src/stm32f4xx_hal_hcd.c.obj
HAL_HCD_HC_GetState                               CMakeFiles/build.elf.dir/micro/target/STM32F4xx_HAL_Driver/Src/stm32f4xx_hal_hcd.c.obj
HAL_HCD_HC_GetURBState                            CMakeFiles/build.elf.dir/micro/target/STM32F4xx_HAL_Driver/Src/stm32f4xx_hal_hcd.c.obj
HAL_HCD_HC_GetXferCount                           CMakeFiles/build.elf.dir/micro/target/STM32F4xx_HAL_Driver/Src/stm32f4xx_hal_hcd.c.obj
HAL_HCD_HC_Halt                                   CMakeFiles/build.elf.dir/micro/target/STM32F4xx_HAL_Driver/Src/stm32f4xx_hal_hcd.c.obj
HAL_HCD_HC_Init                                   CMakeFiles/build.elf.dir/micro/target/STM32F4xx_HAL_Driver/Src/stm32f4xx_hal_hcd.c.obj
HAL_HCD_HC_NotifyURBChange_Callback               CMakeFiles/build.elf.dir/micro/target/STM32F4xx_HAL_Driver/Src/stm32f4xx_hal_hcd.c.obj
HAL_HCD_HC_SubmitRequest                          CMakeFiles/build.elf.dir/micro/target/STM32F4xx_HAL_Driver/Src/stm32f4xx_hal_hcd.c.obj
HAL_HCD_IRQHandler                                CMakeFiles/build.elf.dir/micro/target/STM32F4xx_HAL_Driver/Src/stm32f4xx_hal_hcd.c.obj
HAL_HCD_Init                                      CMakeFiles/build.elf.dir/micro/target/STM32F4xx_HAL_Driver/Src/stm32f4xx_hal_hcd.c.obj
HAL_HCD_MspDeInit                                 CMakeFiles/build.elf.dir/micro/target/STM32F4xx_HAL_Driver/Src/stm32f4xx_hal_hcd.c.obj
HAL_HCD_MspInit                                   CMakeFiles/build.elf.dir/micro/target/STM32F4xx_HAL_Driver/Src/stm32f4xx_hal_hcd.c.obj
HAL_HCD_PortDisabled_Callback                     CMakeFiles/build.elf.dir/micro/target/STM32F4xx_HAL_Driver/Src/stm32f4xx_hal_hcd.c.obj
HAL_HCD_PortEnabled_Callback                      CMakeFiles/build.elf.dir/micro/target/STM32F4xx_HAL_Driver/Src/stm32f4xx_hal_hcd.c.obj
HAL_HCD_ResetPort                                 CMakeFiles/build.elf.dir/micro/target/STM32F4xx_HAL_Driver/Src/stm32f4xx_hal_hcd.c.obj
HAL_HCD_SOF_Callback                              CMakeFiles/build.elf.dir/micro/target/STM32F4xx_HAL_Driver/Src/stm32f4xx_hal_hcd.c.obj
HAL_HCD_Start                                     CMakeFiles/build.elf.dir/micro/target/STM32F4xx_HAL_Driver/Src/stm32f4xx_hal_hcd.c.obj
HAL_HCD_Stop                                      CMakeFiles/build.elf.dir/micro/target/STM32F4xx_HAL_Driver/Src/stm32f4xx_hal_hcd.c.obj
HAL_HalfDuplex_EnableReceiver                     CMakeFiles/build.elf.dir/micro/target/STM32F4xx_HAL_Driver/Src/stm32f4xx_hal_uart.c.obj
HAL_HalfDuplex_EnableTransmitter                  CMakeFiles/build.elf.dir/micro/target/STM32F4xx_HAL_Driver/Src/stm32f4xx_hal_uart.c.obj
HAL_HalfDuplex_Init                               CMakeFiles/build.elf.dir/micro/target/STM32F4xx_HAL_Driver/Src/stm32f4xx_hal_uart.c.obj
HAL_I2C_AbortCpltCallback                         CMakeFiles/build.elf.dir/micro/target/STM32F4xx_HAL_Driver/Src/stm32f4xx_hal_i2c.c.obj
HAL_I2C_AddrCallback                              CMakeFiles/build.elf.dir/micro/target/STM32F4xx_HAL_Driver/Src/stm32f4xx_hal_i2c.c.obj
HAL_I2C_DeInit                                    CMakeFiles/build.elf.dir/micro/target/STM32F4xx_HAL_Driver/Src/stm32f4xx_hal_i2c.c.obj
HAL_I2C_DisableListen_IT                          CMakeFiles/build.elf.dir/micro/target/STM32F4xx_HAL_Driver/Src/stm32f4xx_hal_i2c.c.obj
HAL_I2C_ER_IRQHandler                             CMakeFiles/build.elf.dir/micro/target/STM32F4xx_HAL_Driver/Src/stm32f4xx_hal_i2c.c.obj
HAL_I2C_EV_IRQHandler                             CMakeFiles/build.elf.dir/micro/target/STM32F4xx_HAL_Driver/Src/stm32f4xx_hal_i2c.c.obj
HAL_I2C_EnableListen_IT                           CMakeFiles/build.elf.dir/micro/target/STM32F4xx_HAL_Driver/Src/stm32f4xx_hal_i2c.c.obj
HAL_I2C_ErrorCallback                             CMakeFiles/build.elf.dir/micro/target/STM32F4xx_HAL_Driver/Src/stm32f4xx_hal_i2c.c.obj
HAL_I2C_GetError                                  CMakeFiles/build.elf.dir/micro/target/STM32F4xx_HAL_Driver/Src/stm32f4xx_hal_i2c.c.obj
HAL_I2C_GetMode                                   CMakeFiles/build.elf.dir/micro/target/STM32F4xx_HAL_Driver/Src/stm32f4xx_hal_i2c.c.obj
HAL_I2C_GetState                                  CMakeFiles/build.elf.dir/micro/target/STM32F4xx_HAL_Driver/Src/stm32f4xx_hal_i2c.c.obj
HAL_I2C_Init                                      CMakeFiles/build.elf.dir/micro/target/STM32F4xx_HAL_Driver/Src/stm32f4xx_hal_i2c.c.obj
                                                  CMakeFiles/build.elf.dir/src/main.c.obj
HAL_I2C_IsDeviceReady                             CMakeFiles/build.elf.dir/micro/target/STM32F4xx_HAL_Driver/Src/stm32f4xx_hal_i2c.c.obj
HAL_I2C_ListenCpltCallback                        CMakeFiles/build.elf.dir/micro/target/STM32F4xx_HAL_Driver/Src/stm32f4xx_hal_i2c.c.obj
HAL_I2C_MasterRxCpltCallback                      CMakeFiles/build.elf.dir/micro/target/STM32F4xx_HAL_Driver/Src/stm32f4xx_hal_i2c.c.obj
HAL_I2C_MasterTxCpltCallback                      CMakeFiles/build.elf.dir/micro/target/STM32F4xx_HAL_Driver/Src/stm32f4xx_hal_i2c.c.obj
HAL_I2C_Master_Abort_IT                           CMakeFiles/build.elf.dir/micro/target/STM32F4xx_HAL_Driver/Src/stm32f4xx_hal_i2c.c.obj
HAL_I2C_Master_Receive                            CMakeFiles/build.elf.dir/micro/target/STM32F4xx_HAL_Driver/Src/stm32f4xx_hal_i2c.c.obj
HAL_I2C_Master_Receive_DMA                        CMakeFiles/build.elf.dir/micro/target/STM32F4xx_HAL_Driver/Src/stm32f4xx_hal_i2c.c.obj
HAL_I2C_Master_Receive_IT                         CMakeFiles/build.elf.dir/micro/target/STM32F4xx_HAL_Driver/Src/stm32f4xx_hal_i2c.c.obj
HAL_I2C_Master_Seq_Receive_DMA                    CMakeFiles/build.elf.dir/micro/target/STM32F4xx_HAL_Driver/Src/stm32f4xx_hal_i2c.c.obj
HAL_I2C_Master_Seq_Receive_IT                     CMakeFiles/build.elf.dir/micro/target/STM32F4xx_HAL_Driver/Src/stm32f4xx_hal_i2c.c.obj
HAL_I2C_Master_Seq_Transmit_DMA                   CMakeFiles/build.elf.dir/micro/target/STM32F4xx_HAL_Driver/Src/stm32f4xx_hal_i2c.c.obj
HAL_I2C_Master_Seq_Transmit_IT                    CMakeFiles/build.elf.dir/micro/target/STM32F4xx_HAL_Driver/Src/stm32f4xx_hal_i2c.c.obj
HAL_I2C_Master_Transmit                           CMakeFiles/build.elf.dir/micro/target/STM32F4xx_HAL_Driver/Src/stm32f4xx_hal_i2c.c.obj
HAL_I2C_Master_Transmit_DMA                       CMakeFiles/build.elf.dir/micro/target/STM32F4xx_HAL_Driver/Src/stm32f4xx_hal_i2c.c.obj
HAL_I2C_Master_Transmit_IT                        CMakeFiles/build.elf.dir/micro/target/STM32F4xx_HAL_Driver/Src/stm32f4xx_hal_i2c.c.obj
HAL_I2C_MemRxCpltCallback                         CMakeFiles/build.elf.dir/micro/target/STM32F4xx_HAL_Driver/Src/stm32f4xx_hal_i2c.c.obj
HAL_I2C_MemTxCpltCallback                         CMakeFiles/build.elf.dir/micro/target/STM32F4xx_HAL_Driver/Src/stm32f4xx_hal_i2c.c.obj
HAL_I2C_Mem_Read                                  CMakeFiles/build.elf.dir/micro/target/STM32F4xx_HAL_Driver/Src/stm32f4xx_hal_i2c.c.obj
HAL_I2C_Mem_Read_DMA                              CMakeFiles/build.elf.dir/micro/target/STM32F4xx_HAL_Driver/Src/stm32f4xx_hal_i2c.c.obj
HAL_I2C_Mem_Read_IT                               CMakeFiles/build.elf.dir/micro/target/STM32F4xx_HAL_Driver/Src/stm32f4xx_hal_i2c.c.obj
HAL_I2C_Mem_Write                                 CMakeFiles/build.elf.dir/micro/target/STM32F4xx_HAL_Driver/Src/stm32f4xx_hal_i2c.c.obj
HAL_I2C_Mem_Write_DMA                             CMakeFiles/build.elf.dir/micro/target/STM32F4xx_HAL_Driver/Src/stm32f4xx_hal_i2c.c.obj
HAL_I2C_Mem_Write_IT                              CMakeFiles/build.elf.dir/micro/target/STM32F4xx_HAL_Driver/Src/stm32f4xx_hal_i2c.c.obj
HAL_I2C_MspDeInit                                 CMakeFiles/build.elf.dir/src/stm32f4xx_hal_msp.c.obj
                                                  CMakeFiles/build.elf.dir/micro/target/STM32F4xx_HAL_Driver/Src/stm32f4xx_hal_i2c.c.obj
HAL_I2C_MspInit                                   CMakeFiles/build.elf.dir/src/stm32f4xx_hal_msp.c.obj
                                                  CMakeFiles/build.elf.dir/micro/target/STM32F4xx_HAL_Driver/Src/stm32f4xx_hal_i2c.c.obj
HAL_I2C_SlaveRxCpltCallback                       CMakeFiles/build.elf.dir/micro/target/STM32F4xx_HAL_Driver/Src/stm32f4xx_hal_i2c.c.obj
HAL_I2C_SlaveTxCpltCallback                       CMakeFiles/build.elf.dir/micro/target/STM32F4xx_HAL_Driver/Src/stm32f4xx_hal_i2c.c.obj
HAL_I2C_Slave_Receive                             CMakeFiles/build.elf.dir/micro/target/STM32F4xx_HAL_Driver/Src/stm32f4xx_hal_i2c.c.obj
HAL_I2C_Slave_Receive_DMA                         CMakeFiles/build.elf.dir/micro/target/STM32F4xx_HAL_Driver/Src/stm32f4xx_hal_i2c.c.obj
HAL_I2C_Slave_Receive_IT                          CMakeFiles/build.elf.dir/micro/target/STM32F4xx_HAL_Driver/Src/stm32f4xx_hal_i2c.c.obj
HAL_I2C_Slave_Seq_Receive_DMA                     CMakeFiles/build.elf.dir/micro/target/STM32F4xx_HAL_Driver/Src/stm32f4xx_hal_i2c.c.obj
HAL_I2C_Slave_Seq_Receive_IT                      CMakeFiles/build.elf.dir/micro/target/STM32F4xx_HAL_Driver/Src/stm32f4xx_hal_i2c.c.obj
HAL_I2C_Slave_Seq_Transmit_DMA                    CMakeFiles/build.elf.dir/micro/target/STM32F4xx_HAL_Driver/Src/stm32f4xx_hal_i2c.c.obj
HAL_I2C_Slave_Seq_Transmit_IT                     CMakeFiles/build.elf.dir/micro/target/STM32F4xx_HAL_Driver/Src/stm32f4xx_hal_i2c.c.obj
HAL_I2C_Slave_Transmit                            CMakeFiles/build.elf.dir/micro/target/STM32F4xx_HAL_Driver/Src/stm32f4xx_hal_i2c.c.obj
HAL_I2C_Slave_Transmit_DMA                        CMakeFiles/build.elf.dir/micro/target/STM32F4xx_HAL_Driver/Src/stm32f4xx_hal_i2c.c.obj
HAL_I2C_Slave_Transmit_IT                         CMakeFiles/build.elf.dir/micro/target/STM32F4xx_HAL_Driver/Src/stm32f4xx_hal_i2c.c.obj
HAL_I2SEx_FullDuplex_IRQHandler                   CMakeFiles/build.elf.dir/micro/target/STM32F4xx_HAL_Driver/Src/stm32f4xx_hal_i2s_ex.c.obj
                                                  CMakeFiles/build.elf.dir/micro/target/STM32F4xx_HAL_Driver/Src/stm32f4xx_hal_i2s.c.obj
HAL_I2SEx_TransmitReceive                         CMakeFiles/build.elf.dir/micro/target/STM32F4xx_HAL_Driver/Src/stm32f4xx_hal_i2s_ex.c.obj
HAL_I2SEx_TransmitReceive_DMA                     CMakeFiles/build.elf.dir/micro/target/STM32F4xx_HAL_Driver/Src/stm32f4xx_hal_i2s_ex.c.obj
HAL_I2SEx_TransmitReceive_IT                      CMakeFiles/build.elf.dir/micro/target/STM32F4xx_HAL_Driver/Src/stm32f4xx_hal_i2s_ex.c.obj
HAL_I2SEx_TxRxCpltCallback                        CMakeFiles/build.elf.dir/micro/target/STM32F4xx_HAL_Driver/Src/stm32f4xx_hal_i2s_ex.c.obj
HAL_I2SEx_TxRxHalfCpltCallback                    CMakeFiles/build.elf.dir/micro/target/STM32F4xx_HAL_Driver/Src/stm32f4xx_hal_i2s_ex.c.obj
HAL_I2S_DMAPause                                  CMakeFiles/build.elf.dir/micro/target/STM32F4xx_HAL_Driver/Src/stm32f4xx_hal_i2s.c.obj
HAL_I2S_DMAResume                                 CMakeFiles/build.elf.dir/micro/target/STM32F4xx_HAL_Driver/Src/stm32f4xx_hal_i2s.c.obj
HAL_I2S_DMAStop                                   CMakeFiles/build.elf.dir/micro/target/STM32F4xx_HAL_Driver/Src/stm32f4xx_hal_i2s.c.obj
HAL_I2S_DeInit                                    CMakeFiles/build.elf.dir/micro/target/STM32F4xx_HAL_Driver/Src/stm32f4xx_hal_i2s.c.obj
HAL_I2S_ErrorCallback                             CMakeFiles/build.elf.dir/micro/target/STM32F4xx_HAL_Driver/Src/stm32f4xx_hal_i2s.c.obj
                                                  CMakeFiles/build.elf.dir/micro/target/STM32F4xx_HAL_Driver/Src/stm32f4xx_hal_i2s_ex.c.obj
HAL_I2S_GetError                                  CMakeFiles/build.elf.dir/micro/target/STM32F4xx_HAL_Driver/Src/stm32f4xx_hal_i2s.c.obj
HAL_I2S_GetState                                  CMakeFiles/build.elf.dir/micro/target/STM32F4xx_HAL_Driver/Src/stm32f4xx_hal_i2s.c.obj
HAL_I2S_IRQHandler                                CMakeFiles/build.elf.dir/micro/target/STM32F4xx_HAL_Driver/Src/stm32f4xx_hal_i2s.c.obj
HAL_I2S_Init                                      CMakeFiles/build.elf.dir/micro/target/STM32F4xx_HAL_Driver/Src/stm32f4xx_hal_i2s.c.obj
                                                  CMakeFiles/build.elf.dir/src/main.c.obj
HAL_I2S_MspDeInit                                 CMakeFiles/build.elf.dir/src/stm32f4xx_hal_msp.c.obj
                                                  CMakeFiles/build.elf.dir/micro/target/STM32F4xx_HAL_Driver/Src/stm32f4xx_hal_i2s.c.obj
HAL_I2S_MspInit                                   CMakeFiles/build.elf.dir/src/stm32f4xx_hal_msp.c.obj
                                                  CMakeFiles/build.elf.dir/micro/target/STM32F4xx_HAL_Driver/Src/stm32f4xx_hal_i2s.c.obj
HAL_I2S_Receive                                   CMakeFiles/build.elf.dir/micro/target/STM32F4xx_HAL_Driver/Src/stm32f4xx_hal_i2s.c.obj
HAL_I2S_Receive_DMA                               CMakeFiles/build.elf.dir/micro/target/STM32F4xx_HAL_Driver/Src/stm32f4xx_hal_i2s.c.obj
HAL_I2S_Receive_IT                                CMakeFiles/build.elf.dir/micro/target/STM32F4xx_HAL_Driver/Src/stm32f4xx_hal_i2s.c.obj
HAL_I2S_RxCpltCallback                            CMakeFiles/build.elf.dir/micro/target/STM32F4xx_HAL_Driver/Src/stm32f4xx_hal_i2s.c.obj
HAL_I2S_RxHalfCpltCallback                        CMakeFiles/build.elf.dir/micro/target/STM32F4xx_HAL_Driver/Src/stm32f4xx_hal_i2s.c.obj
HAL_I2S_Transmit                                  CMakeFiles/build.elf.dir/micro/target/STM32F4xx_HAL_Driver/Src/stm32f4xx_hal_i2s.c.obj
HAL_I2S_Transmit_DMA                              CMakeFiles/build.elf.dir/micro/target/STM32F4xx_HAL_Driver/Src/stm32f4xx_hal_i2s.c.obj
HAL_I2S_Transmit_IT                               CMakeFiles/build.elf.dir/micro/target/STM32F4xx_HAL_Driver/Src/stm32f4xx_hal_i2s.c.obj
HAL_I2S_TxCpltCallback                            CMakeFiles/build.elf.dir/micro/target/STM32F4xx_HAL_Driver/Src/stm32f4xx_hal_i2s.c.obj
HAL_I2S_TxHalfCpltCallback                        CMakeFiles/build.elf.dir/micro/target/STM32F4xx_HAL_Driver/Src/stm32f4xx_hal_i2s.c.obj
HAL_IRDA_Abort                                    CMakeFiles/build.elf.dir/micro/target/STM32F4xx_HAL_Driver/Src/stm32f4xx_hal_irda.c.obj
HAL_IRDA_AbortCpltCallback                        CMakeFiles/build.elf.dir/micro/target/STM32F4xx_HAL_Driver/Src/stm32f4xx_hal_irda.c.obj
HAL_IRDA_AbortReceive                             CMakeFiles/build.elf.dir/micro/target/STM32F4xx_HAL_Driver/Src/stm32f4xx_hal_irda.c.obj
HAL_IRDA_AbortReceiveCpltCallback                 CMakeFiles/build.elf.dir/micro/target/STM32F4xx_HAL_Driver/Src/stm32f4xx_hal_irda.c.obj
HAL_IRDA_AbortReceive_IT                          CMakeFiles/build.elf.dir/micro/target/STM32F4xx_HAL_Driver/Src/stm32f4xx_hal_irda.c.obj
HAL_IRDA_AbortTransmit                            CMakeFiles/build.elf.dir/micro/target/STM32F4xx_HAL_Driver/Src/stm32f4xx_hal_irda.c.obj
HAL_IRDA_AbortTransmitCpltCallback                CMakeFiles/build.elf.dir/micro/target/STM32F4xx_HAL_Driver/Src/stm32f4xx_hal_irda.c.obj
HAL_IRDA_AbortTransmit_IT                         CMakeFiles/build.elf.dir/micro/target/STM32F4xx_HAL_Driver/Src/stm32f4xx_hal_irda.c.obj
HAL_IRDA_Abort_IT                                 CMakeFiles/build.elf.dir/micro/target/STM32F4xx_HAL_Driver/Src/stm32f4xx_hal_irda.c.obj
HAL_IRDA_DMAPause                                 CMakeFiles/build.elf.dir/micro/target/STM32F4xx_HAL_Driver/Src/stm32f4xx_hal_irda.c.obj
HAL_IRDA_DMAResume                                CMakeFiles/build.elf.dir/micro/target/STM32F4xx_HAL_Driver/Src/stm32f4xx_hal_irda.c.obj
HAL_IRDA_DMAStop                                  CMakeFiles/build.elf.dir/micro/target/STM32F4xx_HAL_Driver/Src/stm32f4xx_hal_irda.c.obj
HAL_IRDA_DeInit                                   CMakeFiles/build.elf.dir/micro/target/STM32F4xx_HAL_Driver/Src/stm32f4xx_hal_irda.c.obj
HAL_IRDA_ErrorCallback                            CMakeFiles/build.elf.dir/micro/target/STM32F4xx_HAL_Driver/Src/stm32f4xx_hal_irda.c.obj
HAL_IRDA_GetError                                 CMakeFiles/build.elf.dir/micro/target/STM32F4xx_HAL_Driver/Src/stm32f4xx_hal_irda.c.obj
HAL_IRDA_GetState                                 CMakeFiles/build.elf.dir/micro/target/STM32F4xx_HAL_Driver/Src/stm32f4xx_hal_irda.c.obj
HAL_IRDA_IRQHandler                               CMakeFiles/build.elf.dir/micro/target/STM32F4xx_HAL_Driver/Src/stm32f4xx_hal_irda.c.obj
HAL_IRDA_Init                                     CMakeFiles/build.elf.dir/micro/target/STM32F4xx_HAL_Driver/Src/stm32f4xx_hal_irda.c.obj
HAL_IRDA_MspDeInit                                CMakeFiles/build.elf.dir/micro/target/STM32F4xx_HAL_Driver/Src/stm32f4xx_hal_irda.c.obj
HAL_IRDA_MspInit                                  CMakeFiles/build.elf.dir/micro/target/STM32F4xx_HAL_Driver/Src/stm32f4xx_hal_irda.c.obj
HAL_IRDA_Receive                                  CMakeFiles/build.elf.dir/micro/target/STM32F4xx_HAL_Driver/Src/stm32f4xx_hal_irda.c.obj
HAL_IRDA_Receive_DMA                              CMakeFiles/build.elf.dir/micro/target/STM32F4xx_HAL_Driver/Src/stm32f4xx_hal_irda.c.obj
HAL_IRDA_Receive_IT                               CMakeFiles/build.elf.dir/micro/target/STM32F4xx_HAL_Driver/Src/stm32f4xx_hal_irda.c.obj
HAL_IRDA_RxCpltCallback                           CMakeFiles/build.elf.dir/micro/target/STM32F4xx_HAL_Driver/Src/stm32f4xx_hal_irda.c.obj
HAL_IRDA_RxHalfCpltCallback                       CMakeFiles/build.elf.dir/micro/target/STM32F4xx_HAL_Driver/Src/stm32f4xx_hal_irda.c.obj
HAL_IRDA_Transmit                                 CMakeFiles/build.elf.dir/micro/target/STM32F4xx_HAL_Driver/Src/stm32f4xx_hal_irda.c.obj
HAL_IRDA_Transmit_DMA                             CMakeFiles/build.elf.dir/micro/target/STM32F4xx_HAL_Driver/Src/stm32f4xx_hal_irda.c.obj
HAL_IRDA_Transmit_IT                              CMakeFiles/build.elf.dir/micro/target/STM32F4xx_HAL_Driver/Src/stm32f4xx_hal_irda.c.obj
HAL_IRDA_TxCpltCallback                           CMakeFiles/build.elf.dir/micro/target/STM32F4xx_HAL_Driver/Src/stm32f4xx_hal_irda.c.obj
HAL_IRDA_TxHalfCpltCallback                       CMakeFiles/build.elf.dir/micro/target/STM32F4xx_HAL_Driver/Src/stm32f4xx_hal_irda.c.obj
HAL_IWDG_Init                                     CMakeFiles/build.elf.dir/micro/target/STM32F4xx_HAL_Driver/Src/stm32f4xx_hal_iwdg.c.obj
HAL_IWDG_Refresh                                  CMakeFiles/build.elf.dir/micro/target/STM32F4xx_HAL_Driver/Src/stm32f4xx_hal_iwdg.c.obj
HAL_IncTick                                       CMakeFiles/build.elf.dir/micro/target/STM32F4xx_HAL_Driver/Src/stm32f4xx_hal.c.obj
                                                  CMakeFiles/build.elf.dir/src/stm32f4xx_it.c.obj
HAL_Init                                          CMakeFiles/build.elf.dir/micro/target/STM32F4xx_HAL_Driver/Src/stm32f4xx_hal.c.obj
                                                  CMakeFiles/build.elf.dir/src/main.c.obj
HAL_InitTick                                      CMakeFiles/build.elf.dir/micro/target/STM32F4xx_HAL_Driver/Src/stm32f4xx_hal.c.obj
                                                  CMakeFiles/build.elf.dir/micro/target/STM32F4xx_HAL_Driver/Src/stm32f4xx_hal_rcc_ex.c.obj
                                                  CMakeFiles/build.elf.dir/micro/target/STM32F4xx_HAL_Driver/Src/stm32f4xx_hal_rcc.c.obj
HAL_LIN_Init                                      CMakeFiles/build.elf.dir/micro/target/STM32F4xx_HAL_Driver/Src/stm32f4xx_hal_uart.c.obj
HAL_LIN_SendBreak                                 CMakeFiles/build.elf.dir/micro/target/STM32F4xx_HAL_Driver/Src/stm32f4xx_hal_uart.c.obj
HAL_MMC_Abort                                     CMakeFiles/build.elf.dir/micro/target/STM32F4xx_HAL_Driver/Src/stm32f4xx_hal_mmc.c.obj
HAL_MMC_AbortCallback                             CMakeFiles/build.elf.dir/micro/target/STM32F4xx_HAL_Driver/Src/stm32f4xx_hal_mmc.c.obj
HAL_MMC_Abort_IT                                  CMakeFiles/build.elf.dir/micro/target/STM32F4xx_HAL_Driver/Src/stm32f4xx_hal_mmc.c.obj
HAL_MMC_ConfigWideBusOperation                    CMakeFiles/build.elf.dir/micro/target/STM32F4xx_HAL_Driver/Src/stm32f4xx_hal_mmc.c.obj
HAL_MMC_DeInit                                    CMakeFiles/build.elf.dir/micro/target/STM32F4xx_HAL_Driver/Src/stm32f4xx_hal_mmc.c.obj
HAL_MMC_Erase                                     CMakeFiles/build.elf.dir/micro/target/STM32F4xx_HAL_Driver/Src/stm32f4xx_hal_mmc.c.obj
HAL_MMC_ErrorCallback                             CMakeFiles/build.elf.dir/micro/target/STM32F4xx_HAL_Driver/Src/stm32f4xx_hal_mmc.c.obj
HAL_MMC_GetCardCID                                CMakeFiles/build.elf.dir/micro/target/STM32F4xx_HAL_Driver/Src/stm32f4xx_hal_mmc.c.obj
HAL_MMC_GetCardCSD                                CMakeFiles/build.elf.dir/micro/target/STM32F4xx_HAL_Driver/Src/stm32f4xx_hal_mmc.c.obj
HAL_MMC_GetCardInfo                               CMakeFiles/build.elf.dir/micro/target/STM32F4xx_HAL_Driver/Src/stm32f4xx_hal_mmc.c.obj
HAL_MMC_GetCardState                              CMakeFiles/build.elf.dir/micro/target/STM32F4xx_HAL_Driver/Src/stm32f4xx_hal_mmc.c.obj
HAL_MMC_GetError                                  CMakeFiles/build.elf.dir/micro/target/STM32F4xx_HAL_Driver/Src/stm32f4xx_hal_mmc.c.obj
HAL_MMC_GetState                                  CMakeFiles/build.elf.dir/micro/target/STM32F4xx_HAL_Driver/Src/stm32f4xx_hal_mmc.c.obj
HAL_MMC_IRQHandler                                CMakeFiles/build.elf.dir/micro/target/STM32F4xx_HAL_Driver/Src/stm32f4xx_hal_mmc.c.obj
HAL_MMC_Init                                      CMakeFiles/build.elf.dir/micro/target/STM32F4xx_HAL_Driver/Src/stm32f4xx_hal_mmc.c.obj
HAL_MMC_InitCard                                  CMakeFiles/build.elf.dir/micro/target/STM32F4xx_HAL_Driver/Src/stm32f4xx_hal_mmc.c.obj
HAL_MMC_MspDeInit                                 CMakeFiles/build.elf.dir/micro/target/STM32F4xx_HAL_Driver/Src/stm32f4xx_hal_mmc.c.obj
HAL_MMC_MspInit                                   CMakeFiles/build.elf.dir/micro/target/STM32F4xx_HAL_Driver/Src/stm32f4xx_hal_mmc.c.obj
HAL_MMC_ReadBlocks                                CMakeFiles/build.elf.dir/micro/target/STM32F4xx_HAL_Driver/Src/stm32f4xx_hal_mmc.c.obj
HAL_MMC_ReadBlocks_DMA                            CMakeFiles/build.elf.dir/micro/target/STM32F4xx_HAL_Driver/Src/stm32f4xx_hal_mmc.c.obj
HAL_MMC_ReadBlocks_IT                             CMakeFiles/build.elf.dir/micro/target/STM32F4xx_HAL_Driver/Src/stm32f4xx_hal_mmc.c.obj
HAL_MMC_RxCpltCallback                            CMakeFiles/build.elf.dir/micro/target/STM32F4xx_HAL_Driver/Src/stm32f4xx_hal_mmc.c.obj
HAL_MMC_TxCpltCallback                            CMakeFiles/build.elf.dir/micro/target/STM32F4xx_HAL_Driver/Src/stm32f4xx_hal_mmc.c.obj
HAL_MMC_WriteBlocks                               CMakeFiles/build.elf.dir/micro/target/STM32F4xx_HAL_Driver/Src/stm32f4xx_hal_mmc.c.obj
HAL_MMC_WriteBlocks_DMA                           CMakeFiles/build.elf.dir/micro/target/STM32F4xx_HAL_Driver/Src/stm32f4xx_hal_mmc.c.obj
HAL_MMC_WriteBlocks_IT                            CMakeFiles/build.elf.dir/micro/target/STM32F4xx_HAL_Driver/Src/stm32f4xx_hal_mmc.c.obj
HAL_MPU_ConfigRegion                              CMakeFiles/build.elf.dir/micro/target/STM32F4xx_HAL_Driver/Src/stm32f4xx_hal_cortex.c.obj
HAL_MPU_Disable                                   CMakeFiles/build.elf.dir/micro/target/STM32F4xx_HAL_Driver/Src/stm32f4xx_hal_cortex.c.obj
HAL_MPU_Enable                                    CMakeFiles/build.elf.dir/micro/target/STM32F4xx_HAL_Driver/Src/stm32f4xx_hal_cortex.c.obj
HAL_MspDeInit                                     CMakeFiles/build.elf.dir/micro/target/STM32F4xx_HAL_Driver/Src/stm32f4xx_hal.c.obj
HAL_MspInit                                       CMakeFiles/build.elf.dir/src/stm32f4xx_hal_msp.c.obj
                                                  CMakeFiles/build.elf.dir/micro/target/STM32F4xx_HAL_Driver/Src/stm32f4xx_hal.c.obj
HAL_MultiProcessor_EnterMuteMode                  CMakeFiles/build.elf.dir/micro/target/STM32F4xx_HAL_Driver/Src/stm32f4xx_hal_uart.c.obj
HAL_MultiProcessor_ExitMuteMode                   CMakeFiles/build.elf.dir/micro/target/STM32F4xx_HAL_Driver/Src/stm32f4xx_hal_uart.c.obj
HAL_MultiProcessor_Init                           CMakeFiles/build.elf.dir/micro/target/STM32F4xx_HAL_Driver/Src/stm32f4xx_hal_uart.c.obj
HAL_NAND_Address_Inc                              CMakeFiles/build.elf.dir/micro/target/STM32F4xx_HAL_Driver/Src/stm32f4xx_hal_nand.c.obj
HAL_NAND_ConfigDevice                             CMakeFiles/build.elf.dir/micro/target/STM32F4xx_HAL_Driver/Src/stm32f4xx_hal_nand.c.obj
HAL_NAND_DeInit                                   CMakeFiles/build.elf.dir/micro/target/STM32F4xx_HAL_Driver/Src/stm32f4xx_hal_nand.c.obj
HAL_NAND_ECC_Disable                              CMakeFiles/build.elf.dir/micro/target/STM32F4xx_HAL_Driver/Src/stm32f4xx_hal_nand.c.obj
HAL_NAND_ECC_Enable                               CMakeFiles/build.elf.dir/micro/target/STM32F4xx_HAL_Driver/Src/stm32f4xx_hal_nand.c.obj
HAL_NAND_Erase_Block                              CMakeFiles/build.elf.dir/micro/target/STM32F4xx_HAL_Driver/Src/stm32f4xx_hal_nand.c.obj
HAL_NAND_GetECC                                   CMakeFiles/build.elf.dir/micro/target/STM32F4xx_HAL_Driver/Src/stm32f4xx_hal_nand.c.obj
HAL_NAND_GetState                                 CMakeFiles/build.elf.dir/micro/target/STM32F4xx_HAL_Driver/Src/stm32f4xx_hal_nand.c.obj
HAL_NAND_IRQHandler                               CMakeFiles/build.elf.dir/micro/target/STM32F4xx_HAL_Driver/Src/stm32f4xx_hal_nand.c.obj
HAL_NAND_ITCallback                               CMakeFiles/build.elf.dir/micro/target/STM32F4xx_HAL_Driver/Src/stm32f4xx_hal_nand.c.obj
HAL_NAND_Init                                     CMakeFiles/build.elf.dir/micro/target/STM32F4xx_HAL_Driver/Src/stm32f4xx_hal_nand.c.obj
HAL_NAND_MspDeInit                                CMakeFiles/build.elf.dir/micro/target/STM32F4xx_HAL_Driver/Src/stm32f4xx_hal_nand.c.obj
HAL_NAND_MspInit                                  CMakeFiles/build.elf.dir/micro/target/STM32F4xx_HAL_Driver/Src/stm32f4xx_hal_nand.c.obj
HAL_NAND_Read_ID                                  CMakeFiles/build.elf.dir/micro/target/STM32F4xx_HAL_Driver/Src/stm32f4xx_hal_nand.c.obj
HAL_NAND_Read_Page_16b                            CMakeFiles/build.elf.dir/micro/target/STM32F4xx_HAL_Driver/Src/stm32f4xx_hal_nand.c.obj
HAL_NAND_Read_Page_8b                             CMakeFiles/build.elf.dir/micro/target/STM32F4xx_HAL_Driver/Src/stm32f4xx_hal_nand.c.obj
HAL_NAND_Read_SpareArea_16b                       CMakeFiles/build.elf.dir/micro/target/STM32F4xx_HAL_Driver/Src/stm32f4xx_hal_nand.c.obj
HAL_NAND_Read_SpareArea_8b                        CMakeFiles/build.elf.dir/micro/target/STM32F4xx_HAL_Driver/Src/stm32f4xx_hal_nand.c.obj
HAL_NAND_Read_Status                              CMakeFiles/build.elf.dir/micro/target/STM32F4xx_HAL_Driver/Src/stm32f4xx_hal_nand.c.obj
HAL_NAND_Reset                                    CMakeFiles/build.elf.dir/micro/target/STM32F4xx_HAL_Driver/Src/stm32f4xx_hal_nand.c.obj
HAL_NAND_Write_Page_16b                           CMakeFiles/build.elf.dir/micro/target/STM32F4xx_HAL_Driver/Src/stm32f4xx_hal_nand.c.obj
HAL_NAND_Write_Page_8b                            CMakeFiles/build.elf.dir/micro/target/STM32F4xx_HAL_Driver/Src/stm32f4xx_hal_nand.c.obj
HAL_NAND_Write_SpareArea_16b                      CMakeFiles/build.elf.dir/micro/target/STM32F4xx_HAL_Driver/Src/stm32f4xx_hal_nand.c.obj
HAL_NAND_Write_SpareArea_8b                       CMakeFiles/build.elf.dir/micro/target/STM32F4xx_HAL_Driver/Src/stm32f4xx_hal_nand.c.obj
HAL_NOR_DeInit                                    CMakeFiles/build.elf.dir/micro/target/STM32F4xx_HAL_Driver/Src/stm32f4xx_hal_nor.c.obj
HAL_NOR_Erase_Block                               CMakeFiles/build.elf.dir/micro/target/STM32F4xx_HAL_Driver/Src/stm32f4xx_hal_nor.c.obj
HAL_NOR_Erase_Chip                                CMakeFiles/build.elf.dir/micro/target/STM32F4xx_HAL_Driver/Src/stm32f4xx_hal_nor.c.obj
HAL_NOR_GetState                                  CMakeFiles/build.elf.dir/micro/target/STM32F4xx_HAL_Driver/Src/stm32f4xx_hal_nor.c.obj
HAL_NOR_GetStatus                                 CMakeFiles/build.elf.dir/micro/target/STM32F4xx_HAL_Driver/Src/stm32f4xx_hal_nor.c.obj
HAL_NOR_Init                                      CMakeFiles/build.elf.dir/micro/target/STM32F4xx_HAL_Driver/Src/stm32f4xx_hal_nor.c.obj
HAL_NOR_MspDeInit                                 CMakeFiles/build.elf.dir/micro/target/STM32F4xx_HAL_Driver/Src/stm32f4xx_hal_nor.c.obj
HAL_NOR_MspInit                                   CMakeFiles/build.elf.dir/micro/target/STM32F4xx_HAL_Driver/Src/stm32f4xx_hal_nor.c.obj
HAL_NOR_MspWait                                   CMakeFiles/build.elf.dir/micro/target/STM32F4xx_HAL_Driver/Src/stm32f4xx_hal_nor.c.obj
HAL_NOR_Program                                   CMakeFiles/build.elf.dir/micro/target/STM32F4xx_HAL_Driver/Src/stm32f4xx_hal_nor.c.obj
HAL_NOR_ProgramBuffer                             CMakeFiles/build.elf.dir/micro/target/STM32F4xx_HAL_Driver/Src/stm32f4xx_hal_nor.c.obj
HAL_NOR_Read                                      CMakeFiles/build.elf.dir/micro/target/STM32F4xx_HAL_Driver/Src/stm32f4xx_hal_nor.c.obj
HAL_NOR_ReadBuffer                                CMakeFiles/build.elf.dir/micro/target/STM32F4xx_HAL_Driver/Src/stm32f4xx_hal_nor.c.obj
HAL_NOR_Read_CFI                                  CMakeFiles/build.elf.dir/micro/target/STM32F4xx_HAL_Driver/Src/stm32f4xx_hal_nor.c.obj
HAL_NOR_Read_ID                                   CMakeFiles/build.elf.dir/micro/target/STM32F4xx_HAL_Driver/Src/stm32f4xx_hal_nor.c.obj
HAL_NOR_ReturnToReadMode                          CMakeFiles/build.elf.dir/micro/target/STM32F4xx_HAL_Driver/Src/stm32f4xx_hal_nor.c.obj
HAL_NOR_WriteOperation_Disable                    CMakeFiles/build.elf.dir/micro/target/STM32F4xx_HAL_Driver/Src/stm32f4xx_hal_nor.c.obj
HAL_NOR_WriteOperation_Enable                     CMakeFiles/build.elf.dir/micro/target/STM32F4xx_HAL_Driver/Src/stm32f4xx_hal_nor.c.obj
HAL_NVIC_ClearPendingIRQ                          CMakeFiles/build.elf.dir/micro/target/STM32F4xx_HAL_Driver/Src/stm32f4xx_hal_cortex.c.obj
HAL_NVIC_DisableIRQ                               CMakeFiles/build.elf.dir/micro/target/STM32F4xx_HAL_Driver/Src/stm32f4xx_hal_cortex.c.obj
HAL_NVIC_EnableIRQ                                CMakeFiles/build.elf.dir/micro/target/STM32F4xx_HAL_Driver/Src/stm32f4xx_hal_cortex.c.obj
HAL_NVIC_GetActive                                CMakeFiles/build.elf.dir/micro/target/STM32F4xx_HAL_Driver/Src/stm32f4xx_hal_cortex.c.obj
HAL_NVIC_GetPendingIRQ                            CMakeFiles/build.elf.dir/micro/target/STM32F4xx_HAL_Driver/Src/stm32f4xx_hal_cortex.c.obj
HAL_NVIC_GetPriority                              CMakeFiles/build.elf.dir/micro/target/STM32F4xx_HAL_Driver/Src/stm32f4xx_hal_cortex.c.obj
HAL_NVIC_GetPriorityGrouping                      CMakeFiles/build.elf.dir/micro/target/STM32F4xx_HAL_Driver/Src/stm32f4xx_hal_cortex.c.obj
HAL_NVIC_SetPendingIRQ                            CMakeFiles/build.elf.dir/micro/target/STM32F4xx_HAL_Driver/Src/stm32f4xx_hal_cortex.c.obj
HAL_NVIC_SetPriority                              CMakeFiles/build.elf.dir/micro/target/STM32F4xx_HAL_Driver/Src/stm32f4xx_hal_cortex.c.obj
                                                  CMakeFiles/build.elf.dir/micro/target/STM32F4xx_HAL_Driver/Src/stm32f4xx_hal.c.obj
HAL_NVIC_SetPriorityGrouping                      CMakeFiles/build.elf.dir/micro/target/STM32F4xx_HAL_Driver/Src/stm32f4xx_hal_cortex.c.obj
                                                  CMakeFiles/build.elf.dir/src/stm32f4xx_hal_msp.c.obj
                                                  CMakeFiles/build.elf.dir/micro/target/STM32F4xx_HAL_Driver/Src/stm32f4xx_hal.c.obj
HAL_NVIC_SystemReset                              CMakeFiles/build.elf.dir/micro/target/STM32F4xx_HAL_Driver/Src/stm32f4xx_hal_cortex.c.obj
HAL_PCCARD_DeInit                                 CMakeFiles/build.elf.dir/micro/target/STM32F4xx_HAL_Driver/Src/stm32f4xx_hal_pccard.c.obj
HAL_PCCARD_Erase_Sector                           CMakeFiles/build.elf.dir/micro/target/STM32F4xx_HAL_Driver/Src/stm32f4xx_hal_pccard.c.obj
HAL_PCCARD_GetState                               CMakeFiles/build.elf.dir/micro/target/STM32F4xx_HAL_Driver/Src/stm32f4xx_hal_pccard.c.obj
HAL_PCCARD_GetStatus                              CMakeFiles/build.elf.dir/micro/target/STM32F4xx_HAL_Driver/Src/stm32f4xx_hal_pccard.c.obj
HAL_PCCARD_IRQHandler                             CMakeFiles/build.elf.dir/micro/target/STM32F4xx_HAL_Driver/Src/stm32f4xx_hal_pccard.c.obj
HAL_PCCARD_ITCallback                             CMakeFiles/build.elf.dir/micro/target/STM32F4xx_HAL_Driver/Src/stm32f4xx_hal_pccard.c.obj
HAL_PCCARD_Init                                   CMakeFiles/build.elf.dir/micro/target/STM32F4xx_HAL_Driver/Src/stm32f4xx_hal_pccard.c.obj
HAL_PCCARD_MspDeInit                              CMakeFiles/build.elf.dir/micro/target/STM32F4xx_HAL_Driver/Src/stm32f4xx_hal_pccard.c.obj
HAL_PCCARD_MspInit                                CMakeFiles/build.elf.dir/micro/target/STM32F4xx_HAL_Driver/Src/stm32f4xx_hal_pccard.c.obj
HAL_PCCARD_ReadStatus                             CMakeFiles/build.elf.dir/micro/target/STM32F4xx_HAL_Driver/Src/stm32f4xx_hal_pccard.c.obj
HAL_PCCARD_Read_ID                                CMakeFiles/build.elf.dir/micro/target/STM32F4xx_HAL_Driver/Src/stm32f4xx_hal_pccard.c.obj
HAL_PCCARD_Read_Sector                            CMakeFiles/build.elf.dir/micro/target/STM32F4xx_HAL_Driver/Src/stm32f4xx_hal_pccard.c.obj
HAL_PCCARD_Reset                                  CMakeFiles/build.elf.dir/micro/target/STM32F4xx_HAL_Driver/Src/stm32f4xx_hal_pccard.c.obj
HAL_PCCARD_Write_Sector                           CMakeFiles/build.elf.dir/micro/target/STM32F4xx_HAL_Driver/Src/stm32f4xx_hal_pccard.c.obj
HAL_PCDEx_BCD_Callback                            CMakeFiles/build.elf.dir/micro/target/STM32F4xx_HAL_Driver/Src/stm32f4xx_hal_pcd_ex.c.obj
HAL_PCDEx_LPM_Callback                            CMakeFiles/build.elf.dir/micro/target/STM32F4xx_HAL_Driver/Src/stm32f4xx_hal_pcd_ex.c.obj
                                                  CMakeFiles/build.elf.dir/micro/target/STM32F4xx_HAL_Driver/Src/stm32f4xx_hal_pcd.c.obj
HAL_PCDEx_SetRxFiFo                               CMakeFiles/build.elf.dir/micro/target/STM32F4xx_HAL_Driver/Src/stm32f4xx_hal_pcd_ex.c.obj
HAL_PCDEx_SetTxFiFo                               CMakeFiles/build.elf.dir/micro/target/STM32F4xx_HAL_Driver/Src/stm32f4xx_hal_pcd_ex.c.obj
HAL_PCD_ActivateRemoteWakeup                      CMakeFiles/build.elf.dir/micro/target/STM32F4xx_HAL_Driver/Src/stm32f4xx_hal_pcd.c.obj
HAL_PCD_ConnectCallback                           CMakeFiles/build.elf.dir/micro/target/STM32F4xx_HAL_Driver/Src/stm32f4xx_hal_pcd.c.obj
HAL_PCD_DataInStageCallback                       CMakeFiles/build.elf.dir/micro/target/STM32F4xx_HAL_Driver/Src/stm32f4xx_hal_pcd.c.obj
HAL_PCD_DataOutStageCallback                      CMakeFiles/build.elf.dir/micro/target/STM32F4xx_HAL_Driver/Src/stm32f4xx_hal_pcd.c.obj
HAL_PCD_DeActivateRemoteWakeup                    CMakeFiles/build.elf.dir/micro/target/STM32F4xx_HAL_Driver/Src/stm32f4xx_hal_pcd.c.obj
HAL_PCD_DeInit                                    CMakeFiles/build.elf.dir/micro/target/STM32F4xx_HAL_Driver/Src/stm32f4xx_hal_pcd.c.obj
HAL_PCD_DevConnect                                CMakeFiles/build.elf.dir/micro/target/STM32F4xx_HAL_Driver/Src/stm32f4xx_hal_pcd.c.obj
HAL_PCD_DevDisconnect                             CMakeFiles/build.elf.dir/micro/target/STM32F4xx_HAL_Driver/Src/stm32f4xx_hal_pcd.c.obj
HAL_PCD_DisconnectCallback                        CMakeFiles/build.elf.dir/micro/target/STM32F4xx_HAL_Driver/Src/stm32f4xx_hal_pcd.c.obj
HAL_PCD_EP_Close                                  CMakeFiles/build.elf.dir/micro/target/STM32F4xx_HAL_Driver/Src/stm32f4xx_hal_pcd.c.obj
HAL_PCD_EP_ClrStall                               CMakeFiles/build.elf.dir/micro/target/STM32F4xx_HAL_Driver/Src/stm32f4xx_hal_pcd.c.obj
HAL_PCD_EP_Flush                                  CMakeFiles/build.elf.dir/micro/target/STM32F4xx_HAL_Driver/Src/stm32f4xx_hal_pcd.c.obj
HAL_PCD_EP_GetRxCount                             CMakeFiles/build.elf.dir/micro/target/STM32F4xx_HAL_Driver/Src/stm32f4xx_hal_pcd.c.obj
HAL_PCD_EP_Open                                   CMakeFiles/build.elf.dir/micro/target/STM32F4xx_HAL_Driver/Src/stm32f4xx_hal_pcd.c.obj
HAL_PCD_EP_Receive                                CMakeFiles/build.elf.dir/micro/target/STM32F4xx_HAL_Driver/Src/stm32f4xx_hal_pcd.c.obj
HAL_PCD_EP_SetStall                               CMakeFiles/build.elf.dir/micro/target/STM32F4xx_HAL_Driver/Src/stm32f4xx_hal_pcd.c.obj
HAL_PCD_EP_Transmit                               CMakeFiles/build.elf.dir/micro/target/STM32F4xx_HAL_Driver/Src/stm32f4xx_hal_pcd.c.obj
HAL_PCD_GetState                                  CMakeFiles/build.elf.dir/micro/target/STM32F4xx_HAL_Driver/Src/stm32f4xx_hal_pcd.c.obj
HAL_PCD_IRQHandler                                CMakeFiles/build.elf.dir/micro/target/STM32F4xx_HAL_Driver/Src/stm32f4xx_hal_pcd.c.obj
HAL_PCD_ISOINIncompleteCallback                   CMakeFiles/build.elf.dir/micro/target/STM32F4xx_HAL_Driver/Src/stm32f4xx_hal_pcd.c.obj
HAL_PCD_ISOOUTIncompleteCallback                  CMakeFiles/build.elf.dir/micro/target/STM32F4xx_HAL_Driver/Src/stm32f4xx_hal_pcd.c.obj
HAL_PCD_Init                                      CMakeFiles/build.elf.dir/micro/target/STM32F4xx_HAL_Driver/Src/stm32f4xx_hal_pcd.c.obj
HAL_PCD_MspDeInit                                 CMakeFiles/build.elf.dir/micro/target/STM32F4xx_HAL_Driver/Src/stm32f4xx_hal_pcd.c.obj
HAL_PCD_MspInit                                   CMakeFiles/build.elf.dir/micro/target/STM32F4xx_HAL_Driver/Src/stm32f4xx_hal_pcd.c.obj
HAL_PCD_ResetCallback                             CMakeFiles/build.elf.dir/micro/target/STM32F4xx_HAL_Driver/Src/stm32f4xx_hal_pcd.c.obj
HAL_PCD_ResumeCallback                            CMakeFiles/build.elf.dir/micro/target/STM32F4xx_HAL_Driver/Src/stm32f4xx_hal_pcd.c.obj
HAL_PCD_SOFCallback                               CMakeFiles/build.elf.dir/micro/target/STM32F4xx_HAL_Driver/Src/stm32f4xx_hal_pcd.c.obj
HAL_PCD_SetAddress                                CMakeFiles/build.elf.dir/micro/target/STM32F4xx_HAL_Driver/Src/stm32f4xx_hal_pcd.c.obj
HAL_PCD_SetupStageCallback                        CMakeFiles/build.elf.dir/micro/target/STM32F4xx_HAL_Driver/Src/stm32f4xx_hal_pcd.c.obj
HAL_PCD_Start                                     CMakeFiles/build.elf.dir/micro/target/STM32F4xx_HAL_Driver/Src/stm32f4xx_hal_pcd.c.obj
HAL_PCD_Stop                                      CMakeFiles/build.elf.dir/micro/target/STM32F4xx_HAL_Driver/Src/stm32f4xx_hal_pcd.c.obj
HAL_PCD_SuspendCallback                           CMakeFiles/build.elf.dir/micro/target/STM32F4xx_HAL_Driver/Src/stm32f4xx_hal_pcd.c.obj
HAL_PWREx_ControlVoltageScaling                   CMakeFiles/build.elf.dir/micro/target/STM32F4xx_HAL_Driver/Src/stm32f4xx_hal_pwr_ex.c.obj
HAL_PWREx_DisableBkUpReg                          CMakeFiles/build.elf.dir/micro/target/STM32F4xx_HAL_Driver/Src/stm32f4xx_hal_pwr_ex.c.obj
HAL_PWREx_DisableFlashPowerDown                   CMakeFiles/build.elf.dir/micro/target/STM32F4xx_HAL_Driver/Src/stm32f4xx_hal_pwr_ex.c.obj
HAL_PWREx_EnableBkUpReg                           CMakeFiles/build.elf.dir/micro/target/STM32F4xx_HAL_Driver/Src/stm32f4xx_hal_pwr_ex.c.obj
HAL_PWREx_EnableFlashPowerDown                    CMakeFiles/build.elf.dir/micro/target/STM32F4xx_HAL_Driver/Src/stm32f4xx_hal_pwr_ex.c.obj
HAL_PWREx_GetVoltageRange                         CMakeFiles/build.elf.dir/micro/target/STM32F4xx_HAL_Driver/Src/stm32f4xx_hal_pwr_ex.c.obj
HAL_PWR_ConfigPVD                                 CMakeFiles/build.elf.dir/micro/target/STM32F4xx_HAL_Driver/Src/stm32f4xx_hal_pwr.c.obj
HAL_PWR_DeInit                                    CMakeFiles/build.elf.dir/micro/target/STM32F4xx_HAL_Driver/Src/stm32f4xx_hal_pwr.c.obj
HAL_PWR_DisableBkUpAccess                         CMakeFiles/build.elf.dir/micro/target/STM32F4xx_HAL_Driver/Src/stm32f4xx_hal_pwr.c.obj
HAL_PWR_DisablePVD                                CMakeFiles/build.elf.dir/micro/target/STM32F4xx_HAL_Driver/Src/stm32f4xx_hal_pwr.c.obj
HAL_PWR_DisableSEVOnPend                          CMakeFiles/build.elf.dir/micro/target/STM32F4xx_HAL_Driver/Src/stm32f4xx_hal_pwr.c.obj
HAL_PWR_DisableSleepOnExit                        CMakeFiles/build.elf.dir/micro/target/STM32F4xx_HAL_Driver/Src/stm32f4xx_hal_pwr.c.obj
HAL_PWR_DisableWakeUpPin                          CMakeFiles/build.elf.dir/micro/target/STM32F4xx_HAL_Driver/Src/stm32f4xx_hal_pwr.c.obj
HAL_PWR_EnableBkUpAccess                          CMakeFiles/build.elf.dir/micro/target/STM32F4xx_HAL_Driver/Src/stm32f4xx_hal_pwr.c.obj
HAL_PWR_EnablePVD                                 CMakeFiles/build.elf.dir/micro/target/STM32F4xx_HAL_Driver/Src/stm32f4xx_hal_pwr.c.obj
HAL_PWR_EnableSEVOnPend                           CMakeFiles/build.elf.dir/micro/target/STM32F4xx_HAL_Driver/Src/stm32f4xx_hal_pwr.c.obj
HAL_PWR_EnableSleepOnExit                         CMakeFiles/build.elf.dir/micro/target/STM32F4xx_HAL_Driver/Src/stm32f4xx_hal_pwr.c.obj
HAL_PWR_EnableWakeUpPin                           CMakeFiles/build.elf.dir/micro/target/STM32F4xx_HAL_Driver/Src/stm32f4xx_hal_pwr.c.obj
HAL_PWR_EnterSLEEPMode                            CMakeFiles/build.elf.dir/micro/target/STM32F4xx_HAL_Driver/Src/stm32f4xx_hal_pwr.c.obj
HAL_PWR_EnterSTANDBYMode                          CMakeFiles/build.elf.dir/micro/target/STM32F4xx_HAL_Driver/Src/stm32f4xx_hal_pwr.c.obj
HAL_PWR_EnterSTOPMode                             CMakeFiles/build.elf.dir/micro/target/STM32F4xx_HAL_Driver/Src/stm32f4xx_hal_pwr.c.obj
HAL_PWR_PVDCallback                               CMakeFiles/build.elf.dir/micro/target/STM32F4xx_HAL_Driver/Src/stm32f4xx_hal_pwr.c.obj
HAL_PWR_PVD_IRQHandler                            CMakeFiles/build.elf.dir/micro/target/STM32F4xx_HAL_Driver/Src/stm32f4xx_hal_pwr.c.obj
HAL_RCCEx_DisablePLLI2S                           CMakeFiles/build.elf.dir/micro/target/STM32F4xx_HAL_Driver/Src/stm32f4xx_hal_rcc_ex.c.obj
HAL_RCCEx_EnablePLLI2S                            CMakeFiles/build.elf.dir/micro/target/STM32F4xx_HAL_Driver/Src/stm32f4xx_hal_rcc_ex.c.obj
HAL_RCCEx_GetPeriphCLKConfig                      CMakeFiles/build.elf.dir/micro/target/STM32F4xx_HAL_Driver/Src/stm32f4xx_hal_rcc_ex.c.obj
HAL_RCCEx_GetPeriphCLKFreq                        CMakeFiles/build.elf.dir/micro/target/STM32F4xx_HAL_Driver/Src/stm32f4xx_hal_rcc_ex.c.obj
                                                  CMakeFiles/build.elf.dir/micro/target/STM32F4xx_HAL_Driver/Src/stm32f4xx_hal_i2s.c.obj
HAL_RCCEx_PeriphCLKConfig                         CMakeFiles/build.elf.dir/micro/target/STM32F4xx_HAL_Driver/Src/stm32f4xx_hal_rcc_ex.c.obj
                                                  CMakeFiles/build.elf.dir/src/main.c.obj
HAL_RCC_CSSCallback                               CMakeFiles/build.elf.dir/micro/target/STM32F4xx_HAL_Driver/Src/stm32f4xx_hal_rcc.c.obj
HAL_RCC_ClockConfig                               CMakeFiles/build.elf.dir/micro/target/STM32F4xx_HAL_Driver/Src/stm32f4xx_hal_rcc.c.obj
                                                  CMakeFiles/build.elf.dir/src/main.c.obj
HAL_RCC_DeInit                                    CMakeFiles/build.elf.dir/micro/target/STM32F4xx_HAL_Driver/Src/stm32f4xx_hal_rcc_ex.c.obj
                                                  CMakeFiles/build.elf.dir/micro/target/STM32F4xx_HAL_Driver/Src/stm32f4xx_hal_rcc.c.obj
HAL_RCC_DisableCSS                                CMakeFiles/build.elf.dir/micro/target/STM32F4xx_HAL_Driver/Src/stm32f4xx_hal_rcc.c.obj
HAL_RCC_EnableCSS                                 CMakeFiles/build.elf.dir/micro/target/STM32F4xx_HAL_Driver/Src/stm32f4xx_hal_rcc.c.obj
HAL_RCC_GetClockConfig                            CMakeFiles/build.elf.dir/micro/target/STM32F4xx_HAL_Driver/Src/stm32f4xx_hal_rcc.c.obj
HAL_RCC_GetHCLKFreq                               CMakeFiles/build.elf.dir/micro/target/STM32F4xx_HAL_Driver/Src/stm32f4xx_hal_rcc.c.obj
                                                  CMakeFiles/build.elf.dir/micro/target/STM32F4xx_HAL_Driver/Src/stm32f4xx_hal_pcd.c.obj
                                                  CMakeFiles/build.elf.dir/micro/target/STM32F4xx_HAL_Driver/Src/stm32f4xx_hal_eth.c.obj
HAL_RCC_GetOscConfig                              CMakeFiles/build.elf.dir/micro/target/STM32F4xx_HAL_Driver/Src/stm32f4xx_hal_rcc.c.obj
HAL_RCC_GetPCLK1Freq                              CMakeFiles/build.elf.dir/micro/target/STM32F4xx_HAL_Driver/Src/stm32f4xx_hal_rcc.c.obj
                                                  CMakeFiles/build.elf.dir/micro/target/STM32F4xx_HAL_Driver/Src/stm32f4xx_hal_usart.c.obj
                                                  CMakeFiles/build.elf.dir/micro/target/STM32F4xx_HAL_Driver/Src/stm32f4xx_hal_uart.c.obj
                                                  CMakeFiles/build.elf.dir/micro/target/STM32F4xx_HAL_Driver/Src/stm32f4xx_hal_smartcard.c.obj
                                                  CMakeFiles/build.elf.dir/micro/target/STM32F4xx_HAL_Driver/Src/stm32f4xx_hal_irda.c.obj
                                                  CMakeFiles/build.elf.dir/micro/target/STM32F4xx_HAL_Driver/Src/stm32f4xx_hal_i2c.c.obj
HAL_RCC_GetPCLK2Freq                              CMakeFiles/build.elf.dir/micro/target/STM32F4xx_HAL_Driver/Src/stm32f4xx_hal_rcc.c.obj
                                                  CMakeFiles/build.elf.dir/micro/target/STM32F4xx_HAL_Driver/Src/stm32f4xx_hal_usart.c.obj
                                                  CMakeFiles/build.elf.dir/micro/target/STM32F4xx_HAL_Driver/Src/stm32f4xx_hal_uart.c.obj
                                                  CMakeFiles/build.elf.dir/micro/target/STM32F4xx_HAL_Driver/Src/stm32f4xx_hal_smartcard.c.obj
                                                  CMakeFiles/build.elf.dir/micro/target/STM32F4xx_HAL_Driver/Src/stm32f4xx_hal_irda.c.obj
HAL_RCC_GetSysClockFreq                           CMakeFiles/build.elf.dir/micro/target/STM32F4xx_HAL_Driver/Src/stm32f4xx_hal_rcc.c.obj
HAL_RCC_MCOConfig                                 CMakeFiles/build.elf.dir/micro/target/STM32F4xx_HAL_Driver/Src/stm32f4xx_hal_rcc.c.obj
HAL_RCC_NMI_IRQHandler                            CMakeFiles/build.elf.dir/micro/target/STM32F4xx_HAL_Driver/Src/stm32f4xx_hal_rcc.c.obj
HAL_RCC_OscConfig                                 CMakeFiles/build.elf.dir/micro/target/STM32F4xx_HAL_Driver/Src/stm32f4xx_hal_rcc.c.obj
                                                  CMakeFiles/build.elf.dir/src/main.c.obj
HAL_RNG_DeInit                                    CMakeFiles/build.elf.dir/micro/target/STM32F4xx_HAL_Driver/Src/stm32f4xx_hal_rng.c.obj
HAL_RNG_ErrorCallback                             CMakeFiles/build.elf.dir/micro/target/STM32F4xx_HAL_Driver/Src/stm32f4xx_hal_rng.c.obj
HAL_RNG_GenerateRandomNumber                      CMakeFiles/build.elf.dir/micro/target/STM32F4xx_HAL_Driver/Src/stm32f4xx_hal_rng.c.obj
HAL_RNG_GenerateRandomNumber_IT                   CMakeFiles/build.elf.dir/micro/target/STM32F4xx_HAL_Driver/Src/stm32f4xx_hal_rng.c.obj
HAL_RNG_GetError                                  CMakeFiles/build.elf.dir/micro/target/STM32F4xx_HAL_Driver/Src/stm32f4xx_hal_rng.c.obj
HAL_RNG_GetRandomNumber                           CMakeFiles/build.elf.dir/micro/target/STM32F4xx_HAL_Driver/Src/stm32f4xx_hal_rng.c.obj
HAL_RNG_GetRandomNumber_IT                        CMakeFiles/build.elf.dir/micro/target/STM32F4xx_HAL_Driver/Src/stm32f4xx_hal_rng.c.obj
HAL_RNG_GetState                                  CMakeFiles/build.elf.dir/micro/target/STM32F4xx_HAL_Driver/Src/stm32f4xx_hal_rng.c.obj
HAL_RNG_IRQHandler                                CMakeFiles/build.elf.dir/micro/target/STM32F4xx_HAL_Driver/Src/stm32f4xx_hal_rng.c.obj
HAL_RNG_Init                                      CMakeFiles/build.elf.dir/micro/target/STM32F4xx_HAL_Driver/Src/stm32f4xx_hal_rng.c.obj
HAL_RNG_MspDeInit                                 CMakeFiles/build.elf.dir/micro/target/STM32F4xx_HAL_Driver/Src/stm32f4xx_hal_rng.c.obj
HAL_RNG_MspInit                                   CMakeFiles/build.elf.dir/micro/target/STM32F4xx_HAL_Driver/Src/stm32f4xx_hal_rng.c.obj
HAL_RNG_ReadLastRandomNumber                      CMakeFiles/build.elf.dir/micro/target/STM32F4xx_HAL_Driver/Src/stm32f4xx_hal_rng.c.obj
HAL_RNG_ReadyDataCallback                         CMakeFiles/build.elf.dir/micro/target/STM32F4xx_HAL_Driver/Src/stm32f4xx_hal_rng.c.obj
HAL_RTCEx_AlarmBEventCallback                     CMakeFiles/build.elf.dir/micro/target/STM32F4xx_HAL_Driver/Src/stm32f4xx_hal_rtc_ex.c.obj
                                                  CMakeFiles/build.elf.dir/micro/target/STM32F4xx_HAL_Driver/Src/stm32f4xx_hal_rtc.c.obj
HAL_RTCEx_BKUPRead                                CMakeFiles/build.elf.dir/micro/target/STM32F4xx_HAL_Driver/Src/stm32f4xx_hal_rtc_ex.c.obj
HAL_RTCEx_BKUPWrite                               CMakeFiles/build.elf.dir/micro/target/STM32F4xx_HAL_Driver/Src/stm32f4xx_hal_rtc_ex.c.obj
HAL_RTCEx_DeactivateCalibrationOutPut             CMakeFiles/build.elf.dir/micro/target/STM32F4xx_HAL_Driver/Src/stm32f4xx_hal_rtc_ex.c.obj
HAL_RTCEx_DeactivateCoarseCalib                   CMakeFiles/build.elf.dir/micro/target/STM32F4xx_HAL_Driver/Src/stm32f4xx_hal_rtc_ex.c.obj
HAL_RTCEx_DeactivateRefClock                      CMakeFiles/build.elf.dir/micro/target/STM32F4xx_HAL_Driver/Src/stm32f4xx_hal_rtc_ex.c.obj
HAL_RTCEx_DeactivateTamper                        CMakeFiles/build.elf.dir/micro/target/STM32F4xx_HAL_Driver/Src/stm32f4xx_hal_rtc_ex.c.obj
HAL_RTCEx_DeactivateTimeStamp                     CMakeFiles/build.elf.dir/micro/target/STM32F4xx_HAL_Driver/Src/stm32f4xx_hal_rtc_ex.c.obj
HAL_RTCEx_DeactivateWakeUpTimer                   CMakeFiles/build.elf.dir/micro/target/STM32F4xx_HAL_Driver/Src/stm32f4xx_hal_rtc_ex.c.obj
HAL_RTCEx_DisableBypassShadow                     CMakeFiles/build.elf.dir/micro/target/STM32F4xx_HAL_Driver/Src/stm32f4xx_hal_rtc_ex.c.obj
HAL_RTCEx_EnableBypassShadow                      CMakeFiles/build.elf.dir/micro/target/STM32F4xx_HAL_Driver/Src/stm32f4xx_hal_rtc_ex.c.obj
HAL_RTCEx_GetTimeStamp                            CMakeFiles/build.elf.dir/micro/target/STM32F4xx_HAL_Driver/Src/stm32f4xx_hal_rtc_ex.c.obj
HAL_RTCEx_GetWakeUpTimer                          CMakeFiles/build.elf.dir/micro/target/STM32F4xx_HAL_Driver/Src/stm32f4xx_hal_rtc_ex.c.obj
HAL_RTCEx_PollForAlarmBEvent                      CMakeFiles/build.elf.dir/micro/target/STM32F4xx_HAL_Driver/Src/stm32f4xx_hal_rtc_ex.c.obj
HAL_RTCEx_PollForTamper1Event                     CMakeFiles/build.elf.dir/micro/target/STM32F4xx_HAL_Driver/Src/stm32f4xx_hal_rtc_ex.c.obj
HAL_RTCEx_PollForTamper2Event                     CMakeFiles/build.elf.dir/micro/target/STM32F4xx_HAL_Driver/Src/stm32f4xx_hal_rtc_ex.c.obj
HAL_RTCEx_PollForTimeStampEvent                   CMakeFiles/build.elf.dir/micro/target/STM32F4xx_HAL_Driver/Src/stm32f4xx_hal_rtc_ex.c.obj
HAL_RTCEx_PollForWakeUpTimerEvent                 CMakeFiles/build.elf.dir/micro/target/STM32F4xx_HAL_Driver/Src/stm32f4xx_hal_rtc_ex.c.obj
HAL_RTCEx_SetCalibrationOutPut                    CMakeFiles/build.elf.dir/micro/target/STM32F4xx_HAL_Driver/Src/stm32f4xx_hal_rtc_ex.c.obj
HAL_RTCEx_SetCoarseCalib                          CMakeFiles/build.elf.dir/micro/target/STM32F4xx_HAL_Driver/Src/stm32f4xx_hal_rtc_ex.c.obj
HAL_RTCEx_SetRefClock                             CMakeFiles/build.elf.dir/micro/target/STM32F4xx_HAL_Driver/Src/stm32f4xx_hal_rtc_ex.c.obj
HAL_RTCEx_SetSmoothCalib                          CMakeFiles/build.elf.dir/micro/target/STM32F4xx_HAL_Driver/Src/stm32f4xx_hal_rtc_ex.c.obj
HAL_RTCEx_SetSynchroShift                         CMakeFiles/build.elf.dir/micro/target/STM32F4xx_HAL_Driver/Src/stm32f4xx_hal_rtc_ex.c.obj
HAL_RTCEx_SetTamper                               CMakeFiles/build.elf.dir/micro/target/STM32F4xx_HAL_Driver/Src/stm32f4xx_hal_rtc_ex.c.obj
HAL_RTCEx_SetTamper_IT                            CMakeFiles/build.elf.dir/micro/target/STM32F4xx_HAL_Driver/Src/stm32f4xx_hal_rtc_ex.c.obj
HAL_RTCEx_SetTimeStamp                            CMakeFiles/build.elf.dir/micro/target/STM32F4xx_HAL_Driver/Src/stm32f4xx_hal_rtc_ex.c.obj
HAL_RTCEx_SetTimeStamp_IT                         CMakeFiles/build.elf.dir/micro/target/STM32F4xx_HAL_Driver/Src/stm32f4xx_hal_rtc_ex.c.obj
HAL_RTCEx_SetWakeUpTimer                          CMakeFiles/build.elf.dir/micro/target/STM32F4xx_HAL_Driver/Src/stm32f4xx_hal_rtc_ex.c.obj
HAL_RTCEx_SetWakeUpTimer_IT                       CMakeFiles/build.elf.dir/micro/target/STM32F4xx_HAL_Driver/Src/stm32f4xx_hal_rtc_ex.c.obj
HAL_RTCEx_Tamper1EventCallback                    CMakeFiles/build.elf.dir/micro/target/STM32F4xx_HAL_Driver/Src/stm32f4xx_hal_rtc_ex.c.obj
HAL_RTCEx_Tamper2EventCallback                    CMakeFiles/build.elf.dir/micro/target/STM32F4xx_HAL_Driver/Src/stm32f4xx_hal_rtc_ex.c.obj
HAL_RTCEx_TamperTimeStampIRQHandler               CMakeFiles/build.elf.dir/micro/target/STM32F4xx_HAL_Driver/Src/stm32f4xx_hal_rtc_ex.c.obj
HAL_RTCEx_TimeStampEventCallback                  CMakeFiles/build.elf.dir/micro/target/STM32F4xx_HAL_Driver/Src/stm32f4xx_hal_rtc_ex.c.obj
HAL_RTCEx_WakeUpTimerEventCallback                CMakeFiles/build.elf.dir/micro/target/STM32F4xx_HAL_Driver/Src/stm32f4xx_hal_rtc_ex.c.obj
HAL_RTCEx_WakeUpTimerIRQHandler                   CMakeFiles/build.elf.dir/micro/target/STM32F4xx_HAL_Driver/Src/stm32f4xx_hal_rtc_ex.c.obj
HAL_RTC_AlarmAEventCallback                       CMakeFiles/build.elf.dir/micro/target/STM32F4xx_HAL_Driver/Src/stm32f4xx_hal_rtc.c.obj
HAL_RTC_AlarmIRQHandler                           CMakeFiles/build.elf.dir/micro/target/STM32F4xx_HAL_Driver/Src/stm32f4xx_hal_rtc.c.obj
HAL_RTC_DeInit                                    CMakeFiles/build.elf.dir/micro/target/STM32F4xx_HAL_Driver/Src/stm32f4xx_hal_rtc.c.obj
HAL_RTC_DeactivateAlarm                           CMakeFiles/build.elf.dir/micro/target/STM32F4xx_HAL_Driver/Src/stm32f4xx_hal_rtc.c.obj
HAL_RTC_GetAlarm                                  CMakeFiles/build.elf.dir/micro/target/STM32F4xx_HAL_Driver/Src/stm32f4xx_hal_rtc.c.obj
HAL_RTC_GetDate                                   CMakeFiles/build.elf.dir/micro/target/STM32F4xx_HAL_Driver/Src/stm32f4xx_hal_rtc.c.obj
HAL_RTC_GetState                                  CMakeFiles/build.elf.dir/micro/target/STM32F4xx_HAL_Driver/Src/stm32f4xx_hal_rtc.c.obj
HAL_RTC_GetTime                                   CMakeFiles/build.elf.dir/micro/target/STM32F4xx_HAL_Driver/Src/stm32f4xx_hal_rtc.c.obj
HAL_RTC_Init                                      CMakeFiles/build.elf.dir/micro/target/STM32F4xx_HAL_Driver/Src/stm32f4xx_hal_rtc.c.obj
HAL_RTC_MspDeInit                                 CMakeFiles/build.elf.dir/micro/target/STM32F4xx_HAL_Driver/Src/stm32f4xx_hal_rtc.c.obj
HAL_RTC_MspInit                                   CMakeFiles/build.elf.dir/micro/target/STM32F4xx_HAL_Driver/Src/stm32f4xx_hal_rtc.c.obj
HAL_RTC_PollForAlarmAEvent                        CMakeFiles/build.elf.dir/micro/target/STM32F4xx_HAL_Driver/Src/stm32f4xx_hal_rtc.c.obj
HAL_RTC_SetAlarm                                  CMakeFiles/build.elf.dir/micro/target/STM32F4xx_HAL_Driver/Src/stm32f4xx_hal_rtc.c.obj
HAL_RTC_SetAlarm_IT                               CMakeFiles/build.elf.dir/micro/target/STM32F4xx_HAL_Driver/Src/stm32f4xx_hal_rtc.c.obj
HAL_RTC_SetDate                                   CMakeFiles/build.elf.dir/micro/target/STM32F4xx_HAL_Driver/Src/stm32f4xx_hal_rtc.c.obj
HAL_RTC_SetTime                                   CMakeFiles/build.elf.dir/micro/target/STM32F4xx_HAL_Driver/Src/stm32f4xx_hal_rtc.c.obj
HAL_RTC_WaitForSynchro                            CMakeFiles/build.elf.dir/micro/target/STM32F4xx_HAL_Driver/Src/stm32f4xx_hal_rtc.c.obj
                                                  CMakeFiles/build.elf.dir/micro/target/STM32F4xx_HAL_Driver/Src/stm32f4xx_hal_rtc_ex.c.obj
HAL_ResumeTick                                    CMakeFiles/build.elf.dir/micro/target/STM32F4xx_HAL_Driver/Src/stm32f4xx_hal.c.obj
HAL_SD_Abort                                      CMakeFiles/build.elf.dir/micro/target/STM32F4xx_HAL_Driver/Src/stm32f4xx_hal_sd.c.obj
HAL_SD_AbortCallback                              CMakeFiles/build.elf.dir/micro/target/STM32F4xx_HAL_Driver/Src/stm32f4xx_hal_sd.c.obj
HAL_SD_Abort_IT                                   CMakeFiles/build.elf.dir/micro/target/STM32F4xx_HAL_Driver/Src/stm32f4xx_hal_sd.c.obj
HAL_SD_ConfigWideBusOperation                     CMakeFiles/build.elf.dir/micro/target/STM32F4xx_HAL_Driver/Src/stm32f4xx_hal_sd.c.obj
HAL_SD_DeInit                                     CMakeFiles/build.elf.dir/micro/target/STM32F4xx_HAL_Driver/Src/stm32f4xx_hal_sd.c.obj
HAL_SD_Erase                                      CMakeFiles/build.elf.dir/micro/target/STM32F4xx_HAL_Driver/Src/stm32f4xx_hal_sd.c.obj
HAL_SD_ErrorCallback                              CMakeFiles/build.elf.dir/micro/target/STM32F4xx_HAL_Driver/Src/stm32f4xx_hal_sd.c.obj
HAL_SD_GetCardCID                                 CMakeFiles/build.elf.dir/micro/target/STM32F4xx_HAL_Driver/Src/stm32f4xx_hal_sd.c.obj
HAL_SD_GetCardCSD                                 CMakeFiles/build.elf.dir/micro/target/STM32F4xx_HAL_Driver/Src/stm32f4xx_hal_sd.c.obj
HAL_SD_GetCardInfo                                CMakeFiles/build.elf.dir/micro/target/STM32F4xx_HAL_Driver/Src/stm32f4xx_hal_sd.c.obj
HAL_SD_GetCardState                               CMakeFiles/build.elf.dir/micro/target/STM32F4xx_HAL_Driver/Src/stm32f4xx_hal_sd.c.obj
HAL_SD_GetCardStatus                              CMakeFiles/build.elf.dir/micro/target/STM32F4xx_HAL_Driver/Src/stm32f4xx_hal_sd.c.obj
HAL_SD_GetError                                   CMakeFiles/build.elf.dir/micro/target/STM32F4xx_HAL_Driver/Src/stm32f4xx_hal_sd.c.obj
HAL_SD_GetState                                   CMakeFiles/build.elf.dir/micro/target/STM32F4xx_HAL_Driver/Src/stm32f4xx_hal_sd.c.obj
HAL_SD_IRQHandler                                 CMakeFiles/build.elf.dir/micro/target/STM32F4xx_HAL_Driver/Src/stm32f4xx_hal_sd.c.obj
HAL_SD_Init                                       CMakeFiles/build.elf.dir/micro/target/STM32F4xx_HAL_Driver/Src/stm32f4xx_hal_sd.c.obj
HAL_SD_InitCard                                   CMakeFiles/build.elf.dir/micro/target/STM32F4xx_HAL_Driver/Src/stm32f4xx_hal_sd.c.obj
HAL_SD_MspDeInit                                  CMakeFiles/build.elf.dir/micro/target/STM32F4xx_HAL_Driver/Src/stm32f4xx_hal_sd.c.obj
HAL_SD_MspInit                                    CMakeFiles/build.elf.dir/micro/target/STM32F4xx_HAL_Driver/Src/stm32f4xx_hal_sd.c.obj
HAL_SD_ReadBlocks                                 CMakeFiles/build.elf.dir/micro/target/STM32F4xx_HAL_Driver/Src/stm32f4xx_hal_sd.c.obj
HAL_SD_ReadBlocks_DMA                             CMakeFiles/build.elf.dir/micro/target/STM32F4xx_HAL_Driver/Src/stm32f4xx_hal_sd.c.obj
HAL_SD_ReadBlocks_IT                              CMakeFiles/build.elf.dir/micro/target/STM32F4xx_HAL_Driver/Src/stm32f4xx_hal_sd.c.obj
HAL_SD_RxCpltCallback                             CMakeFiles/build.elf.dir/micro/target/STM32F4xx_HAL_Driver/Src/stm32f4xx_hal_sd.c.obj
HAL_SD_TxCpltCallback                             CMakeFiles/build.elf.dir/micro/target/STM32F4xx_HAL_Driver/Src/stm32f4xx_hal_sd.c.obj
HAL_SD_WriteBlocks                                CMakeFiles/build.elf.dir/micro/target/STM32F4xx_HAL_Driver/Src/stm32f4xx_hal_sd.c.obj
HAL_SD_WriteBlocks_DMA                            CMakeFiles/build.elf.dir/micro/target/STM32F4xx_HAL_Driver/Src/stm32f4xx_hal_sd.c.obj
HAL_SD_WriteBlocks_IT                             CMakeFiles/build.elf.dir/micro/target/STM32F4xx_HAL_Driver/Src/stm32f4xx_hal_sd.c.obj
HAL_SMARTCARD_Abort                               CMakeFiles/build.elf.dir/micro/target/STM32F4xx_HAL_Driver/Src/stm32f4xx_hal_smartcard.c.obj
HAL_SMARTCARD_AbortCpltCallback                   CMakeFiles/build.elf.dir/micro/target/STM32F4xx_HAL_Driver/Src/stm32f4xx_hal_smartcard.c.obj
HAL_SMARTCARD_AbortReceive                        CMakeFiles/build.elf.dir/micro/target/STM32F4xx_HAL_Driver/Src/stm32f4xx_hal_smartcard.c.obj
HAL_SMARTCARD_AbortReceiveCpltCallback            CMakeFiles/build.elf.dir/micro/target/STM32F4xx_HAL_Driver/Src/stm32f4xx_hal_smartcard.c.obj
HAL_SMARTCARD_AbortReceive_IT                     CMakeFiles/build.elf.dir/micro/target/STM32F4xx_HAL_Driver/Src/stm32f4xx_hal_smartcard.c.obj
HAL_SMARTCARD_AbortTransmit                       CMakeFiles/build.elf.dir/micro/target/STM32F4xx_HAL_Driver/Src/stm32f4xx_hal_smartcard.c.obj
HAL_SMARTCARD_AbortTransmitCpltCallback           CMakeFiles/build.elf.dir/micro/target/STM32F4xx_HAL_Driver/Src/stm32f4xx_hal_smartcard.c.obj
HAL_SMARTCARD_AbortTransmit_IT                    CMakeFiles/build.elf.dir/micro/target/STM32F4xx_HAL_Driver/Src/stm32f4xx_hal_smartcard.c.obj
HAL_SMARTCARD_Abort_IT                            CMakeFiles/build.elf.dir/micro/target/STM32F4xx_HAL_Driver/Src/stm32f4xx_hal_smartcard.c.obj
HAL_SMARTCARD_DeInit                              CMakeFiles/build.elf.dir/micro/target/STM32F4xx_HAL_Driver/Src/stm32f4xx_hal_smartcard.c.obj
HAL_SMARTCARD_ErrorCallback                       CMakeFiles/build.elf.dir/micro/target/STM32F4xx_HAL_Driver/Src/stm32f4xx_hal_smartcard.c.obj
HAL_SMARTCARD_GetError                            CMakeFiles/build.elf.dir/micro/target/STM32F4xx_HAL_Driver/Src/stm32f4xx_hal_smartcard.c.obj
HAL_SMARTCARD_GetState                            CMakeFiles/build.elf.dir/micro/target/STM32F4xx_HAL_Driver/Src/stm32f4xx_hal_smartcard.c.obj
HAL_SMARTCARD_IRQHandler                          CMakeFiles/build.elf.dir/micro/target/STM32F4xx_HAL_Driver/Src/stm32f4xx_hal_smartcard.c.obj
HAL_SMARTCARD_Init                                CMakeFiles/build.elf.dir/micro/target/STM32F4xx_HAL_Driver/Src/stm32f4xx_hal_smartcard.c.obj
HAL_SMARTCARD_MspDeInit                           CMakeFiles/build.elf.dir/micro/target/STM32F4xx_HAL_Driver/Src/stm32f4xx_hal_smartcard.c.obj
HAL_SMARTCARD_MspInit                             CMakeFiles/build.elf.dir/micro/target/STM32F4xx_HAL_Driver/Src/stm32f4xx_hal_smartcard.c.obj
HAL_SMARTCARD_Receive                             CMakeFiles/build.elf.dir/micro/target/STM32F4xx_HAL_Driver/Src/stm32f4xx_hal_smartcard.c.obj
HAL_SMARTCARD_Receive_DMA                         CMakeFiles/build.elf.dir/micro/target/STM32F4xx_HAL_Driver/Src/stm32f4xx_hal_smartcard.c.obj
HAL_SMARTCARD_Receive_IT                          CMakeFiles/build.elf.dir/micro/target/STM32F4xx_HAL_Driver/Src/stm32f4xx_hal_smartcard.c.obj
HAL_SMARTCARD_RxCpltCallback                      CMakeFiles/build.elf.dir/micro/target/STM32F4xx_HAL_Driver/Src/stm32f4xx_hal_smartcard.c.obj
HAL_SMARTCARD_Transmit                            CMakeFiles/build.elf.dir/micro/target/STM32F4xx_HAL_Driver/Src/stm32f4xx_hal_smartcard.c.obj
HAL_SMARTCARD_Transmit_DMA                        CMakeFiles/build.elf.dir/micro/target/STM32F4xx_HAL_Driver/Src/stm32f4xx_hal_smartcard.c.obj
HAL_SMARTCARD_Transmit_IT                         CMakeFiles/build.elf.dir/micro/target/STM32F4xx_HAL_Driver/Src/stm32f4xx_hal_smartcard.c.obj
HAL_SMARTCARD_TxCpltCallback                      CMakeFiles/build.elf.dir/micro/target/STM32F4xx_HAL_Driver/Src/stm32f4xx_hal_smartcard.c.obj
HAL_SPI_Abort                                     CMakeFiles/build.elf.dir/micro/target/STM32F4xx_HAL_Driver/Src/stm32f4xx_hal_spi.c.obj
HAL_SPI_AbortCpltCallback                         CMakeFiles/build.elf.dir/micro/target/STM32F4xx_HAL_Driver/Src/stm32f4xx_hal_spi.c.obj
HAL_SPI_Abort_IT                                  CMakeFiles/build.elf.dir/micro/target/STM32F4xx_HAL_Driver/Src/stm32f4xx_hal_spi.c.obj
HAL_SPI_DMAPause                                  CMakeFiles/build.elf.dir/micro/target/STM32F4xx_HAL_Driver/Src/stm32f4xx_hal_spi.c.obj
HAL_SPI_DMAResume                                 CMakeFiles/build.elf.dir/micro/target/STM32F4xx_HAL_Driver/Src/stm32f4xx_hal_spi.c.obj
HAL_SPI_DMAStop                                   CMakeFiles/build.elf.dir/micro/target/STM32F4xx_HAL_Driver/Src/stm32f4xx_hal_spi.c.obj
HAL_SPI_DeInit                                    CMakeFiles/build.elf.dir/micro/target/STM32F4xx_HAL_Driver/Src/stm32f4xx_hal_spi.c.obj
HAL_SPI_ErrorCallback                             CMakeFiles/build.elf.dir/micro/target/STM32F4xx_HAL_Driver/Src/stm32f4xx_hal_spi.c.obj
HAL_SPI_GetError                                  CMakeFiles/build.elf.dir/micro/target/STM32F4xx_HAL_Driver/Src/stm32f4xx_hal_spi.c.obj
HAL_SPI_GetState                                  CMakeFiles/build.elf.dir/micro/target/STM32F4xx_HAL_Driver/Src/stm32f4xx_hal_spi.c.obj
